{
  "contractName": "Exchange",
  "abi": [
    {
      "inputs": [],
      "stateMutability": "nonpayable",
      "type": "constructor"
    },
    {
      "anonymous": false,
      "inputs": [
        {
          "indexed": false,
          "internalType": "string",
          "name": "label",
          "type": "string"
        },
        {
          "indexed": false,
          "internalType": "uint256",
          "name": "beforeAmount",
          "type": "uint256"
        },
        {
          "indexed": false,
          "internalType": "uint256",
          "name": "afterAmount",
          "type": "uint256"
        }
      ],
      "name": "BusinessEvent",
      "type": "event"
    },
    {
      "anonymous": false,
      "inputs": [
        {
          "indexed": false,
          "internalType": "string",
          "name": "label",
          "type": "string"
        },
        {
          "components": [
            {
              "internalType": "address",
              "name": "addr",
              "type": "address"
            },
            {
              "internalType": "string",
              "name": "name",
              "type": "string"
            },
            {
              "internalType": "string",
              "name": "symbol",
              "type": "string"
            },
            {
              "internalType": "uint256",
              "name": "decimals",
              "type": "uint256"
            },
            {
              "internalType": "uint256",
              "name": "price",
              "type": "uint256"
            },
            {
              "internalType": "uint256",
              "name": "bookValue",
              "type": "uint256"
            },
            {
              "internalType": "uint256",
              "name": "liquidationValue",
              "type": "uint256"
            }
          ],
          "indexed": false,
          "internalType": "struct IMark2Market.ActivesPrices",
          "name": "prices",
          "type": "tuple"
        }
      ],
      "name": "BusinessEventPrice",
      "type": "event"
    },
    {
      "anonymous": false,
      "inputs": [
        {
          "indexed": false,
          "internalType": "string",
          "name": "reason",
          "type": "string"
        }
      ],
      "name": "ErrorLogging",
      "type": "event"
    },
    {
      "anonymous": false,
      "inputs": [
        {
          "indexed": false,
          "internalType": "string",
          "name": "label",
          "type": "string"
        },
        {
          "indexed": false,
          "internalType": "uint256",
          "name": "amount",
          "type": "uint256"
        }
      ],
      "name": "EventExchange",
      "type": "event"
    },
    {
      "anonymous": false,
      "inputs": [
        {
          "indexed": false,
          "internalType": "uint256",
          "name": "totalOvn",
          "type": "uint256"
        },
        {
          "indexed": false,
          "internalType": "uint256",
          "name": "totalUsdc",
          "type": "uint256"
        },
        {
          "indexed": false,
          "internalType": "uint256",
          "name": "totallyAmountRewarded",
          "type": "uint256"
        },
        {
          "indexed": false,
          "internalType": "uint256",
          "name": "totallySaved",
          "type": "uint256"
        }
      ],
      "name": "RewardEvent",
      "type": "event"
    },
    {
      "anonymous": false,
      "inputs": [
        {
          "indexed": true,
          "internalType": "bytes32",
          "name": "role",
          "type": "bytes32"
        },
        {
          "indexed": true,
          "internalType": "bytes32",
          "name": "previousAdminRole",
          "type": "bytes32"
        },
        {
          "indexed": true,
          "internalType": "bytes32",
          "name": "newAdminRole",
          "type": "bytes32"
        }
      ],
      "name": "RoleAdminChanged",
      "type": "event"
    },
    {
      "anonymous": false,
      "inputs": [
        {
          "indexed": true,
          "internalType": "bytes32",
          "name": "role",
          "type": "bytes32"
        },
        {
          "indexed": true,
          "internalType": "address",
          "name": "account",
          "type": "address"
        },
        {
          "indexed": true,
          "internalType": "address",
          "name": "sender",
          "type": "address"
        }
      ],
      "name": "RoleGranted",
      "type": "event"
    },
    {
      "anonymous": false,
      "inputs": [
        {
          "indexed": true,
          "internalType": "bytes32",
          "name": "role",
          "type": "bytes32"
        },
        {
          "indexed": true,
          "internalType": "address",
          "name": "account",
          "type": "address"
        },
        {
          "indexed": true,
          "internalType": "address",
          "name": "sender",
          "type": "address"
        }
      ],
      "name": "RoleRevoked",
      "type": "event"
    },
    {
      "inputs": [],
      "name": "DEFAULT_ADMIN_ROLE",
      "outputs": [
        {
          "internalType": "bytes32",
          "name": "",
          "type": "bytes32"
        }
      ],
      "stateMutability": "view",
      "type": "function",
      "constant": true
    },
    {
      "inputs": [
        {
          "internalType": "bytes32",
          "name": "role",
          "type": "bytes32"
        }
      ],
      "name": "getRoleAdmin",
      "outputs": [
        {
          "internalType": "bytes32",
          "name": "",
          "type": "bytes32"
        }
      ],
      "stateMutability": "view",
      "type": "function",
      "constant": true
    },
    {
      "inputs": [
        {
          "internalType": "bytes32",
          "name": "role",
          "type": "bytes32"
        },
        {
          "internalType": "address",
          "name": "account",
          "type": "address"
        }
      ],
      "name": "grantRole",
      "outputs": [],
      "stateMutability": "nonpayable",
      "type": "function"
    },
    {
      "inputs": [
        {
          "internalType": "bytes32",
          "name": "role",
          "type": "bytes32"
        },
        {
          "internalType": "address",
          "name": "account",
          "type": "address"
        }
      ],
      "name": "hasRole",
      "outputs": [
        {
          "internalType": "bool",
          "name": "",
          "type": "bool"
        }
      ],
      "stateMutability": "view",
      "type": "function",
      "constant": true
    },
    {
      "inputs": [
        {
          "internalType": "bytes32",
          "name": "role",
          "type": "bytes32"
        },
        {
          "internalType": "address",
          "name": "account",
          "type": "address"
        }
      ],
      "name": "renounceRole",
      "outputs": [],
      "stateMutability": "nonpayable",
      "type": "function"
    },
    {
      "inputs": [
        {
          "internalType": "bytes32",
          "name": "role",
          "type": "bytes32"
        },
        {
          "internalType": "address",
          "name": "account",
          "type": "address"
        }
      ],
      "name": "revokeRole",
      "outputs": [],
      "stateMutability": "nonpayable",
      "type": "function"
    },
    {
      "inputs": [
        {
          "internalType": "bytes4",
          "name": "interfaceId",
          "type": "bytes4"
        }
      ],
      "name": "supportsInterface",
      "outputs": [
        {
          "internalType": "bool",
          "name": "",
          "type": "bool"
        }
      ],
      "stateMutability": "view",
      "type": "function",
      "constant": true
    },
    {
      "inputs": [
        {
          "internalType": "address",
          "name": "_ovn",
          "type": "address"
        },
        {
          "internalType": "address",
          "name": "_usdc",
          "type": "address"
        }
      ],
      "name": "setTokens",
      "outputs": [],
      "stateMutability": "nonpayable",
      "type": "function"
    },
    {
      "inputs": [
        {
          "internalType": "address",
          "name": "_addrPM",
          "type": "address"
        },
        {
          "internalType": "address",
          "name": "_addrM2M",
          "type": "address"
        }
      ],
      "name": "setAddr",
      "outputs": [],
      "stateMutability": "nonpayable",
      "type": "function"
    },
    {
      "inputs": [],
      "name": "balance",
      "outputs": [
        {
          "internalType": "uint256",
          "name": "",
          "type": "uint256"
        }
      ],
      "stateMutability": "view",
      "type": "function",
      "constant": true
    },
    {
      "inputs": [
        {
          "internalType": "address",
          "name": "_addrTok",
          "type": "address"
        },
        {
          "internalType": "uint256",
          "name": "_amount",
          "type": "uint256"
        }
      ],
      "name": "buy",
      "outputs": [],
      "stateMutability": "nonpayable",
      "type": "function"
    },
    {
      "inputs": [
        {
          "internalType": "address",
          "name": "_addrTok",
          "type": "address"
        },
        {
          "internalType": "uint256",
          "name": "_amount",
          "type": "uint256"
        }
      ],
      "name": "redeem",
      "outputs": [],
      "stateMutability": "nonpayable",
      "type": "function"
    },
    {
      "inputs": [],
      "name": "reward",
      "outputs": [],
      "stateMutability": "nonpayable",
      "type": "function"
    }
  ],
  "bytecode": "0x60806040523480156200001157600080fd5b50620000276000801b336200002d60201b60201c565b620001a6565b6200003f82826200004360201b60201c565b5050565b6200005582826200013460201b60201c565b6200013057600160008084815260200190815260200160002060000160008373ffffffffffffffffffffffffffffffffffffffff1673ffffffffffffffffffffffffffffffffffffffff16815260200190815260200160002060006101000a81548160ff021916908315150217905550620000d56200019e60201b60201c565b73ffffffffffffffffffffffffffffffffffffffff168173ffffffffffffffffffffffffffffffffffffffff16837f2f8788117e7eff1d82e926ec794901d17c78024a50270940304540a733656f0d60405160405180910390a45b5050565b600080600084815260200190815260200160002060000160008373ffffffffffffffffffffffffffffffffffffffff1673ffffffffffffffffffffffffffffffffffffffff16815260200190815260200160002060009054906101000a900460ff16905092915050565b600033905090565b612b9b80620001b66000396000f3fe608060405234801561001057600080fd5b50600436106100cf5760003560e01c806391d148541161008c578063cbc7854e11610066578063cbc7854e146101fe578063cce7ec131461021a578063d547741f14610236578063ebcb00e014610252576100cf565b806391d1485414610192578063a217fddf146101c2578063b69ef8a8146101e0576100cf565b806301ffc9a7146100d45780631e9a695014610104578063228cb73314610120578063248a9ca31461012a5780632f2ff15d1461015a57806336568abe14610176575b600080fd5b6100ee60048036038101906100e99190611e75565b61026e565b6040516100fb919061224c565b60405180910390f35b61011e60048036038101906101199190611d9b565b6102e8565b005b6101286104f4565b005b610144600480360381019061013f9190611e08565b610a52565b6040516101519190612267565b60405180910390f35b610174600480360381019061016f9190611e35565b610a71565b005b610190600480360381019061018b9190611e35565b610a9a565b005b6101ac60048036038101906101a79190611e35565b610b1d565b6040516101b9919061224c565b60405180910390f35b6101ca610b87565b6040516101d79190612267565b60405180910390f35b6101e8610b8e565b6040516101f591906123c9565b60405180910390f35b61021860048036038101906102139190611d5b565b610c40565b005b610234600480360381019061022f9190611d9b565b610df2565b005b610250600480360381019061024b9190611e35565b61115c565b005b61026c60048036038101906102679190611d5b565b611185565b005b60007f7965db0b000000000000000000000000000000000000000000000000000000007bffffffffffffffffffffffffffffffffffffffffffffffffffffffff1916827bffffffffffffffffffffffffffffffffffffffffffffffffffffffff191614806102e157506102e082611337565b5b9050919050565b7fe05220aa7f4f94eba183e0264ab8fc510924fb7b592d6a6d4a51dc3a34c79adf81604051610317919061230d565b60405180910390a16000600360009054906101000a900473ffffffffffffffffffffffffffffffffffffffff1673ffffffffffffffffffffffffffffffffffffffff1663f3fef3a384846040518363ffffffff1660e01b815260040161037e929190612282565b602060405180830381600087803b15801561039857600080fd5b505af11580156103ac573d6000803e3d6000fd5b505050506040513d601f19601f820116820180604052508101906103d09190611eeb565b9050600160009054906101000a900473ffffffffffffffffffffffffffffffffffffffff1673ffffffffffffffffffffffffffffffffffffffff16639dc29fac33846040518363ffffffff1660e01b815260040161042f929190612223565b600060405180830381600087803b15801561044957600080fd5b505af115801561045d573d6000803e3d6000fd5b505050508273ffffffffffffffffffffffffffffffffffffffff1663a9059cbb33836040518363ffffffff1660e01b815260040161049c929190612223565b602060405180830381600087803b1580156104b657600080fd5b505af11580156104ca573d6000803e3d6000fd5b505050506040513d601f19601f820116820180604052508101906104ee9190611ddb565b50505050565b6105016000801b33610b1d565b610540576040517f08c379a000000000000000000000000000000000000000000000000000000000815260040161053790612369565b60405180910390fd5b6000600160009054906101000a900473ffffffffffffffffffffffffffffffffffffffff1673ffffffffffffffffffffffffffffffffffffffff166318160ddd6040518163ffffffff1660e01b815260040160206040518083038186803b1580156105aa57600080fd5b505afa1580156105be573d6000803e3d6000fd5b505050506040513d601f19601f820116820180604052508101906105e29190611eeb565b90506000600460009054906101000a900473ffffffffffffffffffffffffffffffffffffffff1673ffffffffffffffffffffffffffffffffffffffff166358a8316c6040518163ffffffff1660e01b8152600401600060405180830381600087803b15801561065057600080fd5b505af1158015610664573d6000803e3d6000fd5b505050506040513d6000823e3d601f19601f8201168201806040525081019061068d9190611ea2565b90506000816020015190508281116106a4826113a1565b6106ad856113a1565b6040516020016106be92919061215d565b6040516020818303038152906040529061070e576040517f08c379a000000000000000000000000000000000000000000000000000000000815260040161070591906122ab565b60405180910390fd5b506000838261071d91906125ce565b90506000805b600160009054906101000a900473ffffffffffffffffffffffffffffffffffffffff1673ffffffffffffffffffffffffffffffffffffffff16623660886040518163ffffffff1660e01b815260040160206040518083038186803b15801561078a57600080fd5b505afa15801561079e573d6000803e3d6000fd5b505050506040513d601f19601f820116820180604052508101906107c29190611eeb565b8160ff161015610a02576000600160009054906101000a900473ffffffffffffffffffffffffffffffffffffffff1673ffffffffffffffffffffffffffffffffffffffff166324359879836040518263ffffffff1660e01b81526004016108299190612429565b60206040518083038186803b15801561084157600080fd5b505afa158015610855573d6000803e3d6000fd5b505050506040513d601f19601f820116820180604052508101906108799190611d2e565b90506000600160009054906101000a900473ffffffffffffffffffffffffffffffffffffffff1673ffffffffffffffffffffffffffffffffffffffff166370a08231836040518263ffffffff1660e01b81526004016108d891906121d1565b60206040518083038186803b1580156108f057600080fd5b505afa158015610904573d6000803e3d6000fd5b505050506040513d601f19601f820116820180604052508101906109289190611eeb565b905060008886836109399190612574565b6109439190612543565b905060008111156109ec57600160009054906101000a900473ffffffffffffffffffffffffffffffffffffffff1673ffffffffffffffffffffffffffffffffffffffff166340c10f1984836040518363ffffffff1660e01b81526004016109ab929190612223565b600060405180830381600087803b1580156109c557600080fd5b505af11580156109d9573d6000803e3d6000fd5b5050505080856109e991906124ed565b94505b50505080806109fa906127a7565b915050610723565b507f6997cdab3aebbbb5a28dbdf7c61a3c7e9ee2c38784bbe66b9c4e58078e3b587f8584838486610a3391906125ce565b604051610a4394939291906123e4565b60405180910390a15050505050565b6000806000838152602001908152602001600020600101549050919050565b610a7a82610a52565b610a8b81610a86611508565b611510565b610a9583836115ad565b505050565b610aa2611508565b73ffffffffffffffffffffffffffffffffffffffff168173ffffffffffffffffffffffffffffffffffffffff1614610b0f576040517f08c379a0000000000000000000000000000000000000000000000000000000008152600401610b06906123a9565b60405180910390fd5b610b19828261168d565b5050565b600080600084815260200190815260200160002060000160008373ffffffffffffffffffffffffffffffffffffffff1673ffffffffffffffffffffffffffffffffffffffff16815260200190815260200160002060009054906101000a900460ff16905092915050565b6000801b81565b6000600160009054906101000a900473ffffffffffffffffffffffffffffffffffffffff1673ffffffffffffffffffffffffffffffffffffffff166370a08231336040518263ffffffff1660e01b8152600401610beb91906121d1565b60206040518083038186803b158015610c0357600080fd5b505afa158015610c17573d6000803e3d6000fd5b505050506040513d601f19601f82011682018060405250810190610c3b9190611eeb565b905090565b610c4d6000801b33610b1d565b610c8c576040517f08c379a0000000000000000000000000000000000000000000000000000000008152600401610c8390612369565b60405180910390fd5b600073ffffffffffffffffffffffffffffffffffffffff168273ffffffffffffffffffffffffffffffffffffffff161415610cfc576040517f08c379a0000000000000000000000000000000000000000000000000000000008152600401610cf390612389565b60405180910390fd5b600073ffffffffffffffffffffffffffffffffffffffff168173ffffffffffffffffffffffffffffffffffffffff161415610d6c576040517f08c379a0000000000000000000000000000000000000000000000000000000008152600401610d6390612389565b60405180910390fd5b81600160006101000a81548173ffffffffffffffffffffffffffffffffffffffff021916908373ffffffffffffffffffffffffffffffffffffffff16021790555080600260006101000a81548173ffffffffffffffffffffffffffffffffffffffff021916908373ffffffffffffffffffffffffffffffffffffffff1602179055505050565b7fe05220aa7f4f94eba183e0264ab8fc510924fb7b592d6a6d4a51dc3a34c79adf81604051610e21919061233b565b60405180910390a160008273ffffffffffffffffffffffffffffffffffffffff166370a08231336040518263ffffffff1660e01b8152600401610e6491906121d1565b60206040518083038186803b158015610e7c57600080fd5b505afa158015610e90573d6000803e3d6000fd5b505050506040513d601f19601f82011682018060405250810190610eb49190611eeb565b905081811015610ef9576040517f08c379a0000000000000000000000000000000000000000000000000000000008152600401610ef0906122ed565b60405180910390fd5b8273ffffffffffffffffffffffffffffffffffffffff166323b872dd3330856040518463ffffffff1660e01b8152600401610f36939291906121ec565b602060405180830381600087803b158015610f5057600080fd5b505af1158015610f64573d6000803e3d6000fd5b505050506040513d601f19601f82011682018060405250810190610f889190611ddb565b50600160009054906101000a900473ffffffffffffffffffffffffffffffffffffffff1673ffffffffffffffffffffffffffffffffffffffff166340c10f1933846040518363ffffffff1660e01b8152600401610fe6929190612223565b600060405180830381600087803b15801561100057600080fd5b505af1158015611014573d6000803e3d6000fd5b505050508273ffffffffffffffffffffffffffffffffffffffff1663a9059cbb600360009054906101000a900473ffffffffffffffffffffffffffffffffffffffff16846040518363ffffffff1660e01b8152600401611075929190612223565b602060405180830381600087803b15801561108f57600080fd5b505af11580156110a3573d6000803e3d6000fd5b505050506040513d601f19601f820116820180604052508101906110c79190611ddb565b50600360009054906101000a900473ffffffffffffffffffffffffffffffffffffffff1673ffffffffffffffffffffffffffffffffffffffff1663b9b8c24684846040518363ffffffff1660e01b8152600401611125929190612282565b600060405180830381600087803b15801561113f57600080fd5b505af1158015611153573d6000803e3d6000fd5b50505050505050565b61116582610a52565b61117681611171611508565b611510565b611180838361168d565b505050565b6111926000801b33610b1d565b6111d1576040517f08c379a00000000000000000000000000000000000000000000000000000000081526004016111c890612369565b60405180910390fd5b600073ffffffffffffffffffffffffffffffffffffffff168273ffffffffffffffffffffffffffffffffffffffff161415611241576040517f08c379a000000000000000000000000000000000000000000000000000000000815260040161123890612389565b60405180910390fd5b600073ffffffffffffffffffffffffffffffffffffffff168173ffffffffffffffffffffffffffffffffffffffff1614156112b1576040517f08c379a00000000000000000000000000000000000000000000000000000000081526004016112a890612389565b60405180910390fd5b81600360006101000a81548173ffffffffffffffffffffffffffffffffffffffff021916908373ffffffffffffffffffffffffffffffffffffffff16021790555080600460006101000a81548173ffffffffffffffffffffffffffffffffffffffff021916908373ffffffffffffffffffffffffffffffffffffffff1602179055505050565b60007f01ffc9a7000000000000000000000000000000000000000000000000000000007bffffffffffffffffffffffffffffffffffffffffffffffffffffffff1916827bffffffffffffffffffffffffffffffffffffffffffffffffffffffff1916149050919050565b606060008214156113e9576040518060400160405280600181526020017f30000000000000000000000000000000000000000000000000000000000000008152509050611503565b600082905060005b6000821461141b5780806114049061275e565b915050600a826114149190612543565b91506113f1565b60008167ffffffffffffffff8111156114375761143661288f565b5b6040519080825280601f01601f1916602001820160405280156114695781602001600182028036833780820191505090505b50905060008290505b600086146114fb5760018161148791906125ce565b9050600a8661149691906127d1565b60306114a291906124ed565b60f81b8282815181106114b8576114b7612860565b5b60200101907effffffffffffffffffffffffffffffffffffffffffffffffffffffffffffff1916908160001a905350600a866114f49190612543565b9550611472565b819450505050505b919050565b600033905090565b61151a8282610b1d565b6115a95761153f8173ffffffffffffffffffffffffffffffffffffffff16601461176e565b61154d8360001c602061176e565b60405160200161155e929190612197565b6040516020818303038152906040526040517f08c379a00000000000000000000000000000000000000000000000000000000081526004016115a091906122ab565b60405180910390fd5b5050565b6115b78282610b1d565b61168957600160008084815260200190815260200160002060000160008373ffffffffffffffffffffffffffffffffffffffff1673ffffffffffffffffffffffffffffffffffffffff16815260200190815260200160002060006101000a81548160ff02191690831515021790555061162e611508565b73ffffffffffffffffffffffffffffffffffffffff168173ffffffffffffffffffffffffffffffffffffffff16837f2f8788117e7eff1d82e926ec794901d17c78024a50270940304540a733656f0d60405160405180910390a45b5050565b6116978282610b1d565b1561176a57600080600084815260200190815260200160002060000160008373ffffffffffffffffffffffffffffffffffffffff1673ffffffffffffffffffffffffffffffffffffffff16815260200190815260200160002060006101000a81548160ff02191690831515021790555061170f611508565b73ffffffffffffffffffffffffffffffffffffffff168173ffffffffffffffffffffffffffffffffffffffff16837ff6391f5c32d9c69d2a47ea670b442974b53935d1edc7fd64eb21e047a839171b60405160405180910390a45b5050565b6060600060028360026117819190612574565b61178b91906124ed565b67ffffffffffffffff8111156117a4576117a361288f565b5b6040519080825280601f01601f1916602001820160405280156117d65781602001600182028036833780820191505090505b5090507f30000000000000000000000000000000000000000000000000000000000000008160008151811061180e5761180d612860565b5b60200101907effffffffffffffffffffffffffffffffffffffffffffffffffffffffffffff1916908160001a9053507f78000000000000000000000000000000000000000000000000000000000000008160018151811061187257611871612860565b5b60200101907effffffffffffffffffffffffffffffffffffffffffffffffffffffffffffff1916908160001a905350600060018460026118b29190612574565b6118bc91906124ed565b90505b600181111561195c577f3031323334353637383961626364656600000000000000000000000000000000600f8616601081106118fe576118fd612860565b5b1a60f81b82828151811061191557611914612860565b5b60200101907effffffffffffffffffffffffffffffffffffffffffffffffffffffffffffff1916908160001a905350600485901c94508061195590612703565b90506118bf565b50600084146119a0576040517f08c379a0000000000000000000000000000000000000000000000000000000008152600401611997906122cd565b60405180910390fd5b8091505092915050565b60006119bd6119b884612469565b612444565b905080838252602082019050828560208602820111156119e0576119df6128cd565b5b60005b85811015611a2e57815167ffffffffffffffff811115611a0657611a056128be565b5b808601611a138982611b54565b855260208501945060208401935050506001810190506119e3565b5050509392505050565b6000611a4b611a4684612495565b612444565b905082815260208101848484011115611a6757611a666128d2565b5b611a728482856126d0565b509392505050565b600081359050611a8981612adb565b92915050565b600081519050611a9e81612adb565b92915050565b600082601f830112611ab957611ab86128be565b5b8151611ac98482602086016119aa565b91505092915050565b600081519050611ae181612af2565b92915050565b600081359050611af681612b09565b92915050565b600081359050611b0b81612b20565b92915050565b600081519050611b2081612b37565b92915050565b600082601f830112611b3b57611b3a6128be565b5b8151611b4b848260208601611a38565b91505092915050565b60006101608284031215611b6b57611b6a6128c3565b5b611b76610160612444565b90506000611b8684828501611a8f565b6000830152506020611b9a84828501611d19565b6020830152506040611bae84828501611d19565b6040830152506060611bc284828501611d19565b6060830152506080611bd684828501611b11565b60808301525060a0611bea84828501611d19565b60a08301525060c0611bfe84828501611d19565b60c08301525060e0611c1284828501611d19565b60e083015250610100611c2784828501611d19565b6101008301525061012082015167ffffffffffffffff811115611c4d57611c4c6128c8565b5b611c5984828501611b26565b6101208301525061014082015167ffffffffffffffff811115611c7f57611c7e6128c8565b5b611c8b84828501611b26565b6101408301525092915050565b600060408284031215611cae57611cad6128c3565b5b611cb86040612444565b9050600082015167ffffffffffffffff811115611cd857611cd76128c8565b5b611ce484828501611aa4565b6000830152506020611cf884828501611d19565b60208301525092915050565b600081359050611d1381612b4e565b92915050565b600081519050611d2881612b4e565b92915050565b600060208284031215611d4457611d436128dc565b5b6000611d5284828501611a8f565b91505092915050565b60008060408385031215611d7257611d716128dc565b5b6000611d8085828601611a7a565b9250506020611d9185828601611a7a565b9150509250929050565b60008060408385031215611db257611db16128dc565b5b6000611dc085828601611a7a565b9250506020611dd185828601611d04565b9150509250929050565b600060208284031215611df157611df06128dc565b5b6000611dff84828501611ad2565b91505092915050565b600060208284031215611e1e57611e1d6128dc565b5b6000611e2c84828501611ae7565b91505092915050565b60008060408385031215611e4c57611e4b6128dc565b5b6000611e5a85828601611ae7565b9250506020611e6b85828601611a7a565b9150509250929050565b600060208284031215611e8b57611e8a6128dc565b5b6000611e9984828501611afc565b91505092915050565b600060208284031215611eb857611eb76128dc565b5b600082015167ffffffffffffffff811115611ed657611ed56128d7565b5b611ee284828501611c98565b91505092915050565b600060208284031215611f0157611f006128dc565b5b6000611f0f84828501611d19565b91505092915050565b611f2181612602565b82525050565b611f3081612614565b82525050565b611f3f81612620565b82525050565b611f4e8161269a565b82525050565b6000611f5f826124c6565b611f6981856124d1565b9350611f798185602086016126d0565b611f82816128e1565b840191505092915050565b6000611f98826124c6565b611fa281856124e2565b9350611fb28185602086016126d0565b80840191505092915050565b6000611fcb6020836124d1565b9150611fd6826128f2565b602082019050919050565b6000611fee6018836124d1565b9150611ff98261291b565b602082019050919050565b60006120116013836124e2565b915061201c82612944565b601382019050919050565b60006120346006836124d1565b915061203f8261296d565b602082019050919050565b60006120576003836124d1565b915061206282612996565b602082019050919050565b600061207a6004836124e2565b9150612085826129bf565b600482019050919050565b600061209d6014836124d1565b91506120a8826129e8565b602082019050919050565b60006120c06018836124d1565b91506120cb82612a11565b602082019050919050565b60006120e36017836124e2565b91506120ee82612a3a565b601782019050919050565b60006121066011836124e2565b915061211182612a63565b601182019050919050565b6000612129602f836124d1565b915061213482612a8c565b604082019050919050565b61214881612683565b82525050565b612157816126be565b82525050565b600061216882612004565b91506121748285611f8d565b915061217f8261206d565b915061218b8284611f8d565b91508190509392505050565b60006121a2826120d6565b91506121ae8285611f8d565b91506121b9826120f9565b91506121c58284611f8d565b91508190509392505050565b60006020820190506121e66000830184611f18565b92915050565b60006060820190506122016000830186611f18565b61220e6020830185611f18565b61221b604083018461213f565b949350505050565b60006040820190506122386000830185611f18565b612245602083018461213f565b9392505050565b60006020820190506122616000830184611f27565b92915050565b600060208201905061227c6000830184611f36565b92915050565b60006040820190506122976000830185611f45565b6122a4602083018461213f565b9392505050565b600060208201905081810360008301526122c58184611f54565b905092915050565b600060208201905081810360008301526122e681611fbe565b9050919050565b6000602082019050818103600083015261230681611fe1565b9050919050565b6000604082019050818103600083015261232681612027565b9050612335602083018461213f565b92915050565b600060408201905081810360008301526123548161204a565b9050612363602083018461213f565b92915050565b6000602082019050818103600083015261238281612090565b9050919050565b600060208201905081810360008301526123a2816120b3565b9050919050565b600060208201905081810360008301526123c28161211c565b9050919050565b60006020820190506123de600083018461213f565b92915050565b60006080820190506123f9600083018761213f565b612406602083018661213f565b612413604083018561213f565b612420606083018461213f565b95945050505050565b600060208201905061243e600083018461214e565b92915050565b600061244e61245f565b905061245a828261272d565b919050565b6000604051905090565b600067ffffffffffffffff8211156124845761248361288f565b5b602082029050602081019050919050565b600067ffffffffffffffff8211156124b0576124af61288f565b5b6124b9826128e1565b9050602081019050919050565b600081519050919050565b600082825260208201905092915050565b600081905092915050565b60006124f882612683565b915061250383612683565b9250827fffffffffffffffffffffffffffffffffffffffffffffffffffffffffffffffff0382111561253857612537612802565b5b828201905092915050565b600061254e82612683565b915061255983612683565b92508261256957612568612831565b5b828204905092915050565b600061257f82612683565b915061258a83612683565b9250817fffffffffffffffffffffffffffffffffffffffffffffffffffffffffffffffff04831182151516156125c3576125c2612802565b5b828202905092915050565b60006125d982612683565b91506125e483612683565b9250828210156125f7576125f6612802565b5b828203905092915050565b600061260d82612663565b9050919050565b60008115159050919050565b6000819050919050565b60007fffffffff0000000000000000000000000000000000000000000000000000000082169050919050565b60008160000b9050919050565b600073ffffffffffffffffffffffffffffffffffffffff82169050919050565b6000819050919050565b600060ff82169050919050565b60006126a5826126ac565b9050919050565b60006126b782612663565b9050919050565b60006126c98261268d565b9050919050565b60005b838110156126ee5780820151818401526020810190506126d3565b838111156126fd576000848401525b50505050565b600061270e82612683565b9150600082141561272257612721612802565b5b600182039050919050565b612736826128e1565b810181811067ffffffffffffffff821117156127555761275461288f565b5b80604052505050565b600061276982612683565b91507fffffffffffffffffffffffffffffffffffffffffffffffffffffffffffffffff82141561279c5761279b612802565b5b600182019050919050565b60006127b28261268d565b915060ff8214156127c6576127c5612802565b5b600182019050919050565b60006127dc82612683565b91506127e783612683565b9250826127f7576127f6612831565b5b828206905092915050565b7f4e487b7100000000000000000000000000000000000000000000000000000000600052601160045260246000fd5b7f4e487b7100000000000000000000000000000000000000000000000000000000600052601260045260246000fd5b7f4e487b7100000000000000000000000000000000000000000000000000000000600052603260045260246000fd5b7f4e487b7100000000000000000000000000000000000000000000000000000000600052604160045260246000fd5b600080fd5b600080fd5b600080fd5b600080fd5b600080fd5b600080fd5b600080fd5b6000601f19601f8301169050919050565b7f537472696e67733a20686578206c656e67746820696e73756666696369656e74600082015250565b7f4e6f7420656e6f75676820746f6b656e7320746f206275790000000000000000600082015250565b7f4e6f7468696e6720746f207265776172643a2000000000000000000000000000600082015250565b7f72656465656d0000000000000000000000000000000000000000000000000000600082015250565b7f6275790000000000000000000000000000000000000000000000000000000000600082015250565b7f203c3d2000000000000000000000000000000000000000000000000000000000600082015250565b7f5265737472696374656420746f2061646d696e73000000000000000000000000600082015250565b7f5a65726f2061646472657373206e6f7420616c6c6f7765640000000000000000600082015250565b7f416363657373436f6e74726f6c3a206163636f756e7420000000000000000000600082015250565b7f206973206d697373696e6720726f6c6520000000000000000000000000000000600082015250565b7f416363657373436f6e74726f6c3a2063616e206f6e6c792072656e6f756e636560008201527f20726f6c657320666f722073656c660000000000000000000000000000000000602082015250565b612ae481612602565b8114612aef57600080fd5b50565b612afb81612614565b8114612b0657600080fd5b50565b612b1281612620565b8114612b1d57600080fd5b50565b612b298161262a565b8114612b3457600080fd5b50565b612b4081612656565b8114612b4b57600080fd5b50565b612b5781612683565b8114612b6257600080fd5b5056fea26469706673582212202a69a713107d587c60d933c648dfbd54c762826a0f5e322865bc6b12f7b283c964736f6c63430008060033",
  "immutableReferences": {},
  "source": "// SPDX-License-Identifier: MIT\npragma solidity >=0.8 <0.9.0;\n\nimport \"@openzeppelin/contracts/token/ERC20/IERC20.sol\";\nimport \"@openzeppelin/contracts/access/AccessControl.sol\";\nimport \"./interfaces/IERC20MintableBurnable.sol\";\nimport \"./interfaces/IConnector.sol\";\nimport \"./OvernightToken.sol\";\nimport \"./interfaces/IPortfolioManager.sol\";\nimport \"./PortfolioManager.sol\";\nimport \"./interfaces/IMark2Market.sol\";\n\ncontract Exchange is AccessControl {\n\n    OvernightToken ovn;\n    IERC20 usdc;\n    PortfolioManager PM; //portfolio manager contract\n    IMark2Market m2m;\n\n    event EventExchange(string label, uint256 amount);\n    event BusinessEvent(string label, uint256 beforeAmount, uint256 afterAmount);\n    event BusinessEventPrice(string label, IMark2Market.ActivesPrices prices);\n    event RewardEvent(uint256 totalOvn, uint256 totalUsdc, uint256 totallyAmountRewarded, uint256 totallySaved);\n\n    modifier onlyAdmin()\n    {\n        require(hasRole(DEFAULT_ADMIN_ROLE, msg.sender), \"Restricted to admins\");\n        _;\n    }\n\n    constructor() {\n        _setupRole(DEFAULT_ADMIN_ROLE, msg.sender);\n    }\n\n    function setTokens(address _ovn, address _usdc) external onlyAdmin{\n        require(_ovn != address(0), \"Zero address not allowed\");\n        require(_usdc != address(0), \"Zero address not allowed\");\n        ovn = OvernightToken(_ovn);\n        usdc = IERC20(_usdc);\n    }\n\n    function setAddr(address _addrPM, address _addrM2M) external onlyAdmin {\n        require(_addrPM != address(0), \"Zero address not allowed\");\n        require(_addrM2M != address(0), \"Zero address not allowed\");\n        PM = PortfolioManager(_addrPM);\n        m2m = IMark2Market(_addrM2M);\n    }\n\n    function balance() public view returns (uint256) {\n        return ovn.balanceOf(msg.sender);\n    }\n\n    function buy(address _addrTok, uint256 _amount) external {\n        emit EventExchange(\"buy\", _amount);\n\n        uint256 balance = IERC20(_addrTok).balanceOf(msg.sender);\n        require(balance >= _amount, \"Not enough tokens to buy\");\n\n        IERC20(_addrTok).transferFrom(msg.sender, address(this), _amount);\n        ovn.mint(msg.sender, _amount);\n\n        IERC20(_addrTok).transfer(address(PM), _amount);\n        PM.invest( IERC20(_addrTok), _amount);\n    }\n\n    event ErrorLogging(string reason);\n\n    function redeem(address _addrTok, uint256 _amount) external {\n        emit EventExchange(\"redeem\", _amount);\n\n        //TODO: Real unstacke amount may be different to _amount\n\n        // try PM.withdraw(IERC20(_addrTok), _amount) returns (uint256 unstakedAmount) {\n\n        //     // Or just burn from sender\n        //     ovn.burn(msg.sender, _amount);\n\n        //     // TODO: correct amount by rates or oracles\n        //     // TODO: check threshhold limits to withdraw deposite\n        //     IERC20(_addrTok).transfer(msg.sender, unstakedAmount);\n\n        // } catch Error(string memory reason) {\n        //     // This may occur if there is an overflow with the two numbers and the `AddNumbers` contract explicitly fails with a `revert()`\n        //     emit ErrorLogging(reason);\n        // } catch {\n        //     emit ErrorLogging(\"No reason\");\n        //     // revert (string(buf.buf));\n        // }\n\n\n        uint256 unstakedAmount = PM.withdraw(IERC20(_addrTok), _amount);\n\n        // Or just burn from sender\n        ovn.burn(msg.sender, _amount);\n\n        // TODO: correct amount by rates or oracles\n        // TODO: check threshhold limits to withdraw deposite\n        IERC20(_addrTok).transfer(msg.sender, unstakedAmount);\n    }\n\n\n    function reward() external onlyAdmin {\n        // 1. get current amount of OVN\n        // 2. get total sum of USDC we can get from any source\n        // 3. calc difference between total count of OVN and USDC\n        // 4. go through all OVN owners and mint to their addresses proportionally OVN\n\n        uint totalOvnSupply = ovn.totalSupply();\n        IMark2Market.TotalAssetPrices memory assetPrices = m2m.assetPricesForBalance();\n        uint256 totalUsdc = assetPrices.totalUsdcPrice;\n        require(totalUsdc > totalOvnSupply, string(abi.encodePacked(\"Nothing to reward: \", uint2str(totalUsdc), \" <= \", uint2str(totalOvnSupply))));\n        uint difference  = totalUsdc - totalOvnSupply;\n\n        uint totallyAmountRewarded = 0;\n        for (uint8 i = 0; i < ovn.ownerLength(); i++) {\n            address ovnOwnerAddress = ovn.ownerAt(i);\n            uint ovnBalance = ovn.balanceOf(ovnOwnerAddress);\n            uint additionalMintAmount = ovnBalance * difference / totalOvnSupply;\n            if (additionalMintAmount > 0) {\n                ovn.mint(ovnOwnerAddress, additionalMintAmount);\n                totallyAmountRewarded += additionalMintAmount;\n            }\n        }\n        //TODO: what to do with saved usdc? Do we need to mint it to PM\n\n        emit RewardEvent(\n            totalOvnSupply,\n            totalUsdc,\n            totallyAmountRewarded,\n            difference - totallyAmountRewarded\n        );\n\n    }\n\n    function uint2str(uint _i) internal pure returns (string memory _uintAsString) {\n        if (_i == 0) {\n            return \"0\";\n        }\n        uint j = _i;\n        uint len;\n        while (j != 0) {\n            len++;\n            j /= 10;\n        }\n        bytes memory bstr = new bytes(len);\n        uint k = len;\n        while (_i != 0) {\n            k=k-1;\n            bstr[k] = bytes1(uint8(48 + _i % 10));\n            _i /= 10;\n        }\n        return string(bstr);\n    }\n}\n",
  "sourcePath": "/home/vorh/IdeaProjects/Projects-Work/overnight/ovngt-mvp/contracts/Exchange.sol",
  "compiler": {
    "name": "solc",
    "version": "0.8.6+commit.11564f7e.Emscripten.clang"
  },
  "schemaVersion": "3.4.1",
  "updatedAt": "2021-10-05T16:30:51.464Z",
  "networkType": "ethereum",
  "devdoc": {
    "kind": "dev",
    "methods": {
      "getRoleAdmin(bytes32)": {
        "details": "Returns the admin role that controls `role`. See {grantRole} and {revokeRole}. To change a role's admin, use {_setRoleAdmin}."
      },
      "grantRole(bytes32,address)": {
        "details": "Grants `role` to `account`. If `account` had not been already granted `role`, emits a {RoleGranted} event. Requirements: - the caller must have ``role``'s admin role."
      },
      "hasRole(bytes32,address)": {
        "details": "Returns `true` if `account` has been granted `role`."
      },
      "renounceRole(bytes32,address)": {
        "details": "Revokes `role` from the calling account. Roles are often managed via {grantRole} and {revokeRole}: this function's purpose is to provide a mechanism for accounts to lose their privileges if they are compromised (such as when a trusted device is misplaced). If the calling account had been granted `role`, emits a {RoleRevoked} event. Requirements: - the caller must be `account`."
      },
      "revokeRole(bytes32,address)": {
        "details": "Revokes `role` from `account`. If `account` had been granted `role`, emits a {RoleRevoked} event. Requirements: - the caller must have ``role``'s admin role."
      },
      "supportsInterface(bytes4)": {
        "details": "See {IERC165-supportsInterface}."
      }
    },
    "version": 1
  },
  "userdoc": {
    "kind": "user",
    "methods": {},
    "version": 1
  }
}