{
  "contractName": "Mark2Market",
  "abi": [
    {
      "anonymous": false,
      "inputs": [
        {
          "indexed": false,
          "internalType": "string",
          "name": "str",
          "type": "string"
        }
      ],
      "name": "ConsoleLog",
      "type": "event"
    },
    {
      "anonymous": false,
      "inputs": [
        {
          "indexed": true,
          "internalType": "address",
          "name": "previousOwner",
          "type": "address"
        },
        {
          "indexed": true,
          "internalType": "address",
          "name": "newOwner",
          "type": "address"
        }
      ],
      "name": "OwnershipTransferred",
      "type": "event"
    },
    {
      "inputs": [],
      "name": "owner",
      "outputs": [
        {
          "internalType": "address",
          "name": "",
          "type": "address"
        }
      ],
      "stateMutability": "view",
      "type": "function",
      "constant": true
    },
    {
      "inputs": [],
      "name": "renounceOwnership",
      "outputs": [],
      "stateMutability": "nonpayable",
      "type": "function"
    },
    {
      "inputs": [
        {
          "internalType": "bytes32",
          "name": "",
          "type": "bytes32"
        }
      ],
      "name": "rolemap",
      "outputs": [
        {
          "internalType": "address",
          "name": "",
          "type": "address"
        }
      ],
      "stateMutability": "view",
      "type": "function",
      "constant": true
    },
    {
      "inputs": [
        {
          "internalType": "bytes32",
          "name": "_role",
          "type": "bytes32"
        },
        {
          "internalType": "address",
          "name": "_actor",
          "type": "address"
        }
      ],
      "name": "setRole",
      "outputs": [],
      "stateMutability": "nonpayable",
      "type": "function"
    },
    {
      "inputs": [
        {
          "internalType": "address",
          "name": "newOwner",
          "type": "address"
        }
      ],
      "name": "transferOwnership",
      "outputs": [],
      "stateMutability": "nonpayable",
      "type": "function"
    },
    {
      "inputs": [
        {
          "internalType": "address",
          "name": "_addrAL",
          "type": "address"
        },
        {
          "internalType": "address",
          "name": "_addrWault",
          "type": "address"
        }
      ],
      "name": "setAddr",
      "outputs": [],
      "stateMutability": "nonpayable",
      "type": "function"
    },
    {
      "inputs": [
        {
          "internalType": "address",
          "name": "_vault",
          "type": "address"
        },
        {
          "internalType": "address",
          "name": "_investmentPortfolio",
          "type": "address"
        }
      ],
      "name": "init",
      "outputs": [],
      "stateMutability": "nonpayable",
      "type": "function"
    },
    {
      "inputs": [],
      "name": "activesPrices",
      "outputs": [
        {
          "components": [
            {
              "internalType": "address",
              "name": "addr",
              "type": "address"
            },
            {
              "internalType": "string",
              "name": "name",
              "type": "string"
            },
            {
              "internalType": "string",
              "name": "symbol",
              "type": "string"
            },
            {
              "internalType": "uint256",
              "name": "decimals",
              "type": "uint256"
            },
            {
              "internalType": "uint256",
              "name": "price",
              "type": "uint256"
            },
            {
              "internalType": "uint256",
              "name": "bookValue",
              "type": "uint256"
            },
            {
              "internalType": "uint256",
              "name": "liquidationValue",
              "type": "uint256"
            }
          ],
          "internalType": "struct IMark2Market.ActivesPrices[]",
          "name": "",
          "type": "tuple[]"
        }
      ],
      "stateMutability": "view",
      "type": "function",
      "constant": true
    },
    {
      "inputs": [
        {
          "internalType": "uint256",
          "name": "_tst",
          "type": "uint256"
        }
      ],
      "name": "tstPrice",
      "outputs": [],
      "stateMutability": "nonpayable",
      "type": "function"
    },
    {
      "inputs": [],
      "name": "assetPricesForBalance",
      "outputs": [
        {
          "components": [
            {
              "components": [
                {
                  "internalType": "address",
                  "name": "asset",
                  "type": "address"
                },
                {
                  "internalType": "uint256",
                  "name": "amountInVault",
                  "type": "uint256"
                },
                {
                  "internalType": "uint256",
                  "name": "usdcPriceInVault",
                  "type": "uint256"
                },
                {
                  "internalType": "uint256",
                  "name": "diffToTarget",
                  "type": "uint256"
                },
                {
                  "internalType": "int8",
                  "name": "diffToTargetSign",
                  "type": "int8"
                },
                {
                  "internalType": "uint256",
                  "name": "usdcPriceDenominator",
                  "type": "uint256"
                },
                {
                  "internalType": "uint256",
                  "name": "usdcSellPrice",
                  "type": "uint256"
                },
                {
                  "internalType": "uint256",
                  "name": "usdcBuyPrice",
                  "type": "uint256"
                },
                {
                  "internalType": "uint256",
                  "name": "decimals",
                  "type": "uint256"
                },
                {
                  "internalType": "string",
                  "name": "name",
                  "type": "string"
                },
                {
                  "internalType": "string",
                  "name": "symbol",
                  "type": "string"
                }
              ],
              "internalType": "struct IMark2Market.AssetPrices[]",
              "name": "assetPrices",
              "type": "tuple[]"
            },
            {
              "internalType": "uint256",
              "name": "totalUsdcPrice",
              "type": "uint256"
            }
          ],
          "internalType": "struct IMark2Market.TotalAssetPrices",
          "name": "",
          "type": "tuple"
        }
      ],
      "stateMutability": "nonpayable",
      "type": "function"
    },
    {
      "inputs": [
        {
          "internalType": "address",
          "name": "withdrawToken",
          "type": "address"
        },
        {
          "internalType": "uint256",
          "name": "withdrawAmount",
          "type": "uint256"
        }
      ],
      "name": "assetPricesForBalance",
      "outputs": [
        {
          "components": [
            {
              "components": [
                {
                  "internalType": "address",
                  "name": "asset",
                  "type": "address"
                },
                {
                  "internalType": "uint256",
                  "name": "amountInVault",
                  "type": "uint256"
                },
                {
                  "internalType": "uint256",
                  "name": "usdcPriceInVault",
                  "type": "uint256"
                },
                {
                  "internalType": "uint256",
                  "name": "diffToTarget",
                  "type": "uint256"
                },
                {
                  "internalType": "int8",
                  "name": "diffToTargetSign",
                  "type": "int8"
                },
                {
                  "internalType": "uint256",
                  "name": "usdcPriceDenominator",
                  "type": "uint256"
                },
                {
                  "internalType": "uint256",
                  "name": "usdcSellPrice",
                  "type": "uint256"
                },
                {
                  "internalType": "uint256",
                  "name": "usdcBuyPrice",
                  "type": "uint256"
                },
                {
                  "internalType": "uint256",
                  "name": "decimals",
                  "type": "uint256"
                },
                {
                  "internalType": "string",
                  "name": "name",
                  "type": "string"
                },
                {
                  "internalType": "string",
                  "name": "symbol",
                  "type": "string"
                }
              ],
              "internalType": "struct IMark2Market.AssetPrices[]",
              "name": "assetPrices",
              "type": "tuple[]"
            },
            {
              "internalType": "uint256",
              "name": "totalUsdcPrice",
              "type": "uint256"
            }
          ],
          "internalType": "struct IMark2Market.TotalAssetPrices",
          "name": "",
          "type": "tuple"
        }
      ],
      "stateMutability": "nonpayable",
      "type": "function"
    }
  ],
  "bytecode": "0x60806040523480156200001157600080fd5b5062000032620000266200003860201b60201c565b6200004060201b60201c565b620001fa565b600033905090565b600073ffffffffffffffffffffffffffffffffffffffff168173ffffffffffffffffffffffffffffffffffffffff161415620000b3576040517f08c379a0000000000000000000000000000000000000000000000000000000008152600401620000aa906200019e565b60405180910390fd5b60008060009054906101000a900473ffffffffffffffffffffffffffffffffffffffff169050816000806101000a81548173ffffffffffffffffffffffffffffffffffffffff021916908373ffffffffffffffffffffffffffffffffffffffff1602179055508173ffffffffffffffffffffffffffffffffffffffff168173ffffffffffffffffffffffffffffffffffffffff167f8be0079c531659141344cd1fd0a4f28419497f9722a3daafe3b4186f6b6457e060405160405180910390a35050565b600062000186601883620001c0565b91506200019382620001d1565b602082019050919050565b60006020820190508181036000830152620001b98162000177565b9050919050565b600082825260208201905092915050565b7f5a65726f2061646472657373206e6f7420616c6c6f7765640000000000000000600082015250565b613645806200020a6000396000f3fe608060405234801561001057600080fd5b50600436106100a95760003560e01c80638f5e842c116100715780638f5e842c14610154578063dff8720314610170578063ebcb00e01461018c578063f09a4016146101a8578063f2fde38b146101c4578063f4a93710146101e0576100a9565b80632dc10a54146100ae57806358a8316c146100de578063715018a6146100fc578063734bd75d146101065780638da5cb5b14610136575b600080fd5b6100c860048036038101906100c391906126b8565b6101fe565b6040516100d59190612d00565b60405180910390f35b6100e6610231565b6040516100f39190612dff565b60405180910390f35b610104610249565b005b610120600480360381019061011b91906125e6565b6102d1565b60405161012d9190612dff565b60405180910390f35b61013e610ca1565b60405161014b9190612d00565b60405180910390f35b61016e600480360381019061016991906127c8565b610cca565b005b61018a600480360381019061018591906126e5565b610d5d565b005b6101a660048036038101906101a191906125a6565b610e9f565b005b6101c260048036038101906101bd91906125a6565b611081565b005b6101de60048036038101906101d99190612579565b611263565b005b6101e86112eb565b6040516101f59190612d7b565b60405180910390f35b60016020528060005260406000206000915054906101000a900473ffffffffffffffffffffffffffffffffffffffff1681565b610239611fdb565b6102446000806102d1565b905090565b6102516119ae565b73ffffffffffffffffffffffffffffffffffffffff1661026f610ca1565b73ffffffffffffffffffffffffffffffffffffffff16146102c5576040517f08c379a00000000000000000000000000000000000000000000000000000000081526004016102bc90612dbf565b60405180910390fd5b6102cf60006119b6565b565b6102d9611fdb565b6000600660009054906101000a900473ffffffffffffffffffffffffffffffffffffffff1673ffffffffffffffffffffffffffffffffffffffff16633ff94f046040518163ffffffff1660e01b8152600401600060405180830381600087803b15801561034557600080fd5b505af1158015610359573d6000803e3d6000fd5b505050506040513d6000823e3d601f19601f82011682018060405250810190610382919061266f565b90506103c46040518060400160405280601581526020017f6173736574576569676874732e6c656e6774683a2000000000000000000000008152508251611aea565b6000808251905060648111156103d957606490505b60008167ffffffffffffffff8111156103f5576103f4613462565b5b60405190808252806020026020018201604052801561042e57816020015b61041b611ff5565b8152602001906001900390816104135790505b50905060005b828160ff161015610abd576000858260ff168151811061045757610456613433565b5b602002602001015190506000816000015173ffffffffffffffffffffffffffffffffffffffff166370a08231600560009054906101000a900473ffffffffffffffffffffffffffffffffffffffff166040518263ffffffff1660e01b81526004016104c29190612d00565b60206040518083038186803b1580156104da57600080fd5b505afa1580156104ee573d6000803e3d6000fd5b505050506040513d601f19601f8201168201806040525081019061051291906127f5565b90506000600190506000600660009054906101000a900473ffffffffffffffffffffffffffffffffffffffff1673ffffffffffffffffffffffffffffffffffffffff1663afad2e1685600001516040518263ffffffff1660e01b815260040161057b9190612d00565b604080518083038186803b15801561059257600080fd5b505afa1580156105a6573d6000803e3d6000fd5b505050506040513d601f19601f820116820180604052508101906105ca919061276e565b90506000816020015190506000670de0b6b3a7640000846105eb919061319d565b905060008273ffffffffffffffffffffffffffffffffffffffff166396ce07956040518163ffffffff1660e01b815260040160206040518083038186803b15801561063557600080fd5b505afa158015610649573d6000803e3d6000fd5b505050506040513d601f19601f8201168201806040525081019061066d91906127f5565b905060008373ffffffffffffffffffffffffffffffffffffffff16632b8455f16040518163ffffffff1660e01b815260040160206040518083038186803b1580156106b757600080fd5b505afa1580156106cb573d6000803e3d6000fd5b505050506040513d601f19601f820116820180604052508101906106ef91906127f5565b905060008473ffffffffffffffffffffffffffffffffffffffff1663ea2497846040518163ffffffff1660e01b815260040160206040518083038186803b15801561073957600080fd5b505afa15801561074d573d6000803e3d6000fd5b505050506040513d601f19601f8201168201806040525081019061077191906127f5565b9050600060068a6000015173ffffffffffffffffffffffffffffffffffffffff1663313ce5676040518163ffffffff1660e01b815260040160206040518083038186803b1580156107c157600080fd5b505afa1580156107d5573d6000803e3d6000fd5b505050506040513d601f19601f820116820180604052508101906107f99190612822565b610803919061322b565b600a61080f919061307f565b905060008184868c610821919061319d565b61082b9190612ffb565b6108359190612ffb565b90506108766040518060400160405280600f81526020017f616d6f756e74496e5661756c743a2000000000000000000000000000000000008152508b611aea565b808f6108829190612fa5565b9e506040518061016001604052808c6000015173ffffffffffffffffffffffffffffffffffffffff1681526020018b8152602001828152602001600081526020016000800b81526020018681526020018581526020018481526020018c6000015173ffffffffffffffffffffffffffffffffffffffff1663313ce5676040518163ffffffff1660e01b815260040160206040518083038186803b15801561092857600080fd5b505afa15801561093c573d6000803e3d6000fd5b505050506040513d601f19601f820116820180604052508101906109609190612822565b60ff1681526020018c6000015173ffffffffffffffffffffffffffffffffffffffff166306fdde036040518163ffffffff1660e01b815260040160006040518083038186803b1580156109b257600080fd5b505afa1580156109c6573d6000803e3d6000fd5b505050506040513d6000823e3d601f19601f820116820180604052508101906109ef9190612725565b81526020018c6000015173ffffffffffffffffffffffffffffffffffffffff166395d89b416040518163ffffffff1660e01b815260040160006040518083038186803b158015610a3e57600080fd5b505afa158015610a52573d6000803e3d6000fd5b505050506040513d6000823e3d601f19601f82011682018060405250810190610a7b9190612725565b8152508d8d60ff1681518110610a9457610a93613433565b5b602002602001018190525050505050505050505050508080610ab59061337a565b915050610434565b5085831015610acb87611b4e565b610ad485611b4e565b604051602001610ae5929190612cc6565b60405160208183030381529060405290610b35576040517f08c379a0000000000000000000000000000000000000000000000000000000008152600401610b2c9190612d9d565b60405180910390fd5b508583610b4291906131f7565b925060005b828160ff161015610c79576000828260ff1681518110610b6a57610b69613433565b5b60200260200101519050610b82858260000151611cb5565b82606001836080018260000b60000b815250828152505050600088118015610bd957508873ffffffffffffffffffffffffffffffffffffffff16816000015173ffffffffffffffffffffffffffffffffffffffff16145b15610c65576000816080015160000b1215610c4a578781606001511115610c1857878160600151610c0a91906131f7565b816060018181525050610c45565b806060015188610c2891906131f7565b8160600181815250506001816080019060000b908160000b815250505b610c64565b878160600151610c5a9190612fa5565b8160600181815250505b5b508080610c719061337a565b915050610b47565b5060006040518060400160405280838152602001858152509050809550505050505092915050565b60008060009054906101000a900473ffffffffffffffffffffffffffffffffffffffff16905090565b610cd26119ae565b73ffffffffffffffffffffffffffffffffffffffff16610cf0610ca1565b73ffffffffffffffffffffffffffffffffffffffff1614610d46576040517f08c379a0000000000000000000000000000000000000000000000000000000008152600401610d3d90612dbf565b60405180910390fd5b6000610d506112eb565b9050816003819055505050565b610d656119ae565b73ffffffffffffffffffffffffffffffffffffffff16610d83610ca1565b73ffffffffffffffffffffffffffffffffffffffff1614610dd9576040517f08c379a0000000000000000000000000000000000000000000000000000000008152600401610dd090612dbf565b60405180910390fd5b600073ffffffffffffffffffffffffffffffffffffffff168173ffffffffffffffffffffffffffffffffffffffff161415610e49576040517f08c379a0000000000000000000000000000000000000000000000000000000008152600401610e4090612ddf565b60405180910390fd5b806001600084815260200190815260200160002060006101000a81548173ffffffffffffffffffffffffffffffffffffffff021916908373ffffffffffffffffffffffffffffffffffffffff1602179055505050565b610ea76119ae565b73ffffffffffffffffffffffffffffffffffffffff16610ec5610ca1565b73ffffffffffffffffffffffffffffffffffffffff1614610f1b576040517f08c379a0000000000000000000000000000000000000000000000000000000008152600401610f1290612dbf565b60405180910390fd5b600073ffffffffffffffffffffffffffffffffffffffff168273ffffffffffffffffffffffffffffffffffffffff161415610f8b576040517f08c379a0000000000000000000000000000000000000000000000000000000008152600401610f8290612ddf565b60405180910390fd5b600073ffffffffffffffffffffffffffffffffffffffff168173ffffffffffffffffffffffffffffffffffffffff161415610ffb576040517f08c379a0000000000000000000000000000000000000000000000000000000008152600401610ff290612ddf565b60405180910390fd5b81600260006101000a81548173ffffffffffffffffffffffffffffffffffffffff021916908373ffffffffffffffffffffffffffffffffffffffff16021790555080600460006101000a81548173ffffffffffffffffffffffffffffffffffffffff021916908373ffffffffffffffffffffffffffffffffffffffff1602179055505050565b6110896119ae565b73ffffffffffffffffffffffffffffffffffffffff166110a7610ca1565b73ffffffffffffffffffffffffffffffffffffffff16146110fd576040517f08c379a00000000000000000000000000000000000000000000000000000000081526004016110f490612dbf565b60405180910390fd5b600073ffffffffffffffffffffffffffffffffffffffff168273ffffffffffffffffffffffffffffffffffffffff16141561116d576040517f08c379a000000000000000000000000000000000000000000000000000000000815260040161116490612ddf565b60405180910390fd5b600073ffffffffffffffffffffffffffffffffffffffff168173ffffffffffffffffffffffffffffffffffffffff1614156111dd576040517f08c379a00000000000000000000000000000000000000000000000000000000081526004016111d490612ddf565b60405180910390fd5b81600560006101000a81548173ffffffffffffffffffffffffffffffffffffffff021916908373ffffffffffffffffffffffffffffffffffffffff16021790555080600660006101000a81548173ffffffffffffffffffffffffffffffffffffffff021916908373ffffffffffffffffffffffffffffffffffffffff1602179055505050565b61126b6119ae565b73ffffffffffffffffffffffffffffffffffffffff16611289610ca1565b73ffffffffffffffffffffffffffffffffffffffff16146112df576040517f08c379a00000000000000000000000000000000000000000000000000000000081526004016112d690612dbf565b60405180910390fd5b6112e8816119b6565b50565b60606000600260009054906101000a900473ffffffffffffffffffffffffffffffffffffffff1673ffffffffffffffffffffffffffffffffffffffff1663e9843b126040518163ffffffff1660e01b815260040160006040518083038186803b15801561135757600080fd5b505afa15801561136b573d6000803e3d6000fd5b505050506040513d6000823e3d601f19601f820116820180604052508101906113949190612626565b90506000815167ffffffffffffffff8111156113b3576113b2613462565b5b6040519080825280602002602001820160405280156113ec57816020015b6113d9612067565b8152602001906001900390816113d15790505b50905060005b82518160ff16108015611408575060648160ff16105b156119a5576000838260ff168151811061142557611424613433565b5b602002602001015160e0015160ff161115611992576000838260ff168151811061145257611451613433565b5b60200260200101516000015190506000848360ff168151811061147857611477613433565b5b60200260200101516020015173ffffffffffffffffffffffffffffffffffffffff16637113c908868560ff16815181106114b5576114b4613433565b5b602002602001015160000151878660ff16815181106114d7576114d6613433565b5b6020026020010151604001516040518363ffffffff1660e01b8152600401611500929190612d1b565b60206040518083038186803b15801561151857600080fd5b505afa15801561152c573d6000803e3d6000fd5b505050506040513d601f19601f8201168201806040525081019061155091906127f5565b90506000858460ff168151811061156a57611569613433565b5b60200260200101516020015173ffffffffffffffffffffffffffffffffffffffff1663ed633e83878660ff16815181106115a7576115a6613433565b5b602002602001015160000151600460009054906101000a900473ffffffffffffffffffffffffffffffffffffffff16898860ff16815181106115ec576115eb613433565b5b6020026020010151604001516040518463ffffffff1660e01b815260040161161693929190612d44565b60206040518083038186803b15801561162e57600080fd5b505afa158015611642573d6000803e3d6000fd5b505050506040513d601f19601f8201168201806040525081019061166691906127f5565b90506000868560ff16815181106116805761167f613433565b5b60200260200101516020015173ffffffffffffffffffffffffffffffffffffffff16638b0493f1888760ff16815181106116bd576116bc613433565b5b602002602001015160000151600460009054906101000a900473ffffffffffffffffffffffffffffffffffffffff168a8960ff168151811061170257611701613433565b5b6020026020010151604001516040518463ffffffff1660e01b815260040161172c93929190612d44565b60206040518083038186803b15801561174457600080fd5b505afa158015611758573d6000803e3d6000fd5b505050506040513d601f19601f8201168201806040525081019061177c91906127f5565b90506040518060e00160405280888760ff168151811061179f5761179e613433565b5b60200260200101516000015173ffffffffffffffffffffffffffffffffffffffff1681526020018573ffffffffffffffffffffffffffffffffffffffff166306fdde036040518163ffffffff1660e01b815260040160006040518083038186803b15801561180c57600080fd5b505afa158015611820573d6000803e3d6000fd5b505050506040513d6000823e3d601f19601f820116820180604052508101906118499190612725565b81526020018573ffffffffffffffffffffffffffffffffffffffff166395d89b416040518163ffffffff1660e01b815260040160006040518083038186803b15801561189457600080fd5b505afa1580156118a8573d6000803e3d6000fd5b505050506040513d6000823e3d601f19601f820116820180604052508101906118d19190612725565b81526020018573ffffffffffffffffffffffffffffffffffffffff1663313ce5676040518163ffffffff1660e01b815260040160206040518083038186803b15801561191c57600080fd5b505afa158015611930573d6000803e3d6000fd5b505050506040513d601f19601f820116820180604052508101906119549190612822565b60ff16815260200184815260200183815260200182815250868660ff168151811061198257611981613433565b5b6020026020010181905250505050505b808061199d9061337a565b9150506113f2565b50809250505090565b600033905090565b600073ffffffffffffffffffffffffffffffffffffffff168173ffffffffffffffffffffffffffffffffffffffff161415611a26576040517f08c379a0000000000000000000000000000000000000000000000000000000008152600401611a1d90612ddf565b60405180910390fd5b60008060009054906101000a900473ffffffffffffffffffffffffffffffffffffffff169050816000806101000a81548173ffffffffffffffffffffffffffffffffffffffff021916908373ffffffffffffffffffffffffffffffffffffffff1602179055508173ffffffffffffffffffffffffffffffffffffffff168173ffffffffffffffffffffffffffffffffffffffff167f8be0079c531659141344cd1fd0a4f28419497f9722a3daafe3b4186f6b6457e060405160405180910390a35050565b7f0f8db0708c4e6b233e2c285fe1ed66015dee71bd374ac8e835534be5f592d6a282611b1583611b4e565b604051602001611b26929190612ca2565b604051602081830303815290604052604051611b429190612d9d565b60405180910390a15050565b60606000821415611b96576040518060400160405280600181526020017f30000000000000000000000000000000000000000000000000000000000000008152509050611cb0565b600082905060005b60008214611bc8578080611bb190613331565b915050600a82611bc19190612ffb565b9150611b9e565b60008167ffffffffffffffff811115611be457611be3613462565b5b6040519080825280601f01601f191660200182016040528015611c165781602001600182028036833780820191505090505b50905060008290505b60008614611ca857600181611c3491906131f7565b9050600a86611c4391906133a4565b6030611c4f9190612fa5565b60f81b828281518110611c6557611c64613433565b5b60200101907effffffffffffffffffffffffffffffffffffffffffffffffffffffffffffff1916908160001a905350600a86611ca19190612ffb565b9550611c1f565b819450505050505b919050565b6000806000600660009054906101000a900473ffffffffffffffffffffffffffffffffffffffff1673ffffffffffffffffffffffffffffffffffffffff16633a7e9db0856040518263ffffffff1660e01b8152600401611d159190612d00565b60806040518083038186803b158015611d2d57600080fd5b505afa158015611d41573d6000803e3d6000fd5b505050506040513d601f19601f82011682018060405250810190611d65919061279b565b90506000600660009054906101000a900473ffffffffffffffffffffffffffffffffffffffff1673ffffffffffffffffffffffffffffffffffffffff1663ed2a2f9d6040518163ffffffff1660e01b815260040160206040518083038186803b158015611dd157600080fd5b505afa158015611de5573d6000803e3d6000fd5b505050506040513d601f19601f82011682018060405250810190611e0991906127f5565b826040015187611e19919061319d565b611e239190612ffb565b905060008573ffffffffffffffffffffffffffffffffffffffff166370a08231600560009054906101000a900473ffffffffffffffffffffffffffffffffffffffff166040518263ffffffff1660e01b8152600401611e829190612d00565b60206040518083038186803b158015611e9a57600080fd5b505afa158015611eae573d6000803e3d6000fd5b505050506040513d601f19601f82011682018060405250810190611ed291906127f5565b9050600060068773ffffffffffffffffffffffffffffffffffffffff1663313ce5676040518163ffffffff1660e01b815260040160206040518083038186803b158015611f1e57600080fd5b505afa158015611f32573d6000803e3d6000fd5b505050506040513d601f19601f82011682018060405250810190611f569190612822565b611f60919061322b565b600a611f6c919061307f565b90508082611f7a9190612ffb565b9150818310611f9e578183611f8f91906131f7565b60019550955050505050611fd4565b8282611faa91906131f7565b7fffffffffffffffffffffffffffffffffffffffffffffffffffffffffffffffff95509550505050505b9250929050565b604051806040016040528060608152602001600081525090565b604051806101600160405280600073ffffffffffffffffffffffffffffffffffffffff1681526020016000815260200160008152602001600081526020016000800b81526020016000815260200160008152602001600081526020016000815260200160608152602001606081525090565b6040518060e00160405280600073ffffffffffffffffffffffffffffffffffffffff1681526020016060815260200160608152602001600081526020016000815260200160008152602001600081525090565b60006120cd6120c884612e46565b612e21565b905080838252602082019050828560208602820111156120f0576120ef6134a0565b5b60005b858110156121205781612106888261227f565b8452602084019350602083019250506001810190506120f3565b5050509392505050565b600061213d61213884612e72565b612e21565b905080838252602082019050828560208602820111156121605761215f6134a0565b5b60005b858110156121ae57815167ffffffffffffffff81111561218657612185613491565b5b8086016121938982612361565b85526020850194506020840193505050600181019050612163565b5050509392505050565b60006121cb6121c684612e9e565b612e21565b905080838252602082019050828560808602820111156121ee576121ed6134a0565b5b60005b8581101561221e578161220488826124ad565b8452602084019350608083019250506001810190506121f1565b5050509392505050565b600061223b61223684612eca565b612e21565b905082815260208101848484011115612257576122566134a5565b5b6122628482856132cd565b509392505050565b6000813590506122798161359c565b92915050565b60008151905061228e8161359c565b92915050565b600082601f8301126122a9576122a8613491565b5b81516122b98482602086016120ba565b91505092915050565b600082601f8301126122d7576122d6613491565b5b81516122e784826020860161212a565b91505092915050565b600082601f83011261230557612304613491565b5b81516123158482602086016121b8565b91505092915050565b60008135905061232d816135b3565b92915050565b600082601f83011261234857612347613491565b5b8151612358848260208601612228565b91505092915050565b6000610120828403121561237857612377613496565b5b612383610120612e21565b905060006123938482850161227f565b60008301525060206123a78482850161227f565b60208301525060406123bb8482850161227f565b60408301525060606123cf8482850161227f565b60608301525060806123e38482850161254f565b60808301525060a06123f784828501612525565b60a08301525060c061240b84828501612525565b60c08301525060e061241f84828501612564565b60e08301525061010082015167ffffffffffffffff8111156124445761244361349b565b5b61245084828501612294565b6101008301525092915050565b60006040828403121561247357612472613496565b5b61247d6040612e21565b9050600061248d8482850161227f565b60008301525060206124a18482850161227f565b60208301525092915050565b6000608082840312156124c3576124c2613496565b5b6124cd6080612e21565b905060006124dd8482850161227f565b60008301525060206124f18482850161254f565b60208301525060406125058482850161254f565b60408301525060606125198482850161254f565b60608301525092915050565b600081519050612534816135ca565b92915050565b600081359050612549816135e1565b92915050565b60008151905061255e816135e1565b92915050565b600081519050612573816135f8565b92915050565b60006020828403121561258f5761258e6134af565b5b600061259d8482850161226a565b91505092915050565b600080604083850312156125bd576125bc6134af565b5b60006125cb8582860161226a565b92505060206125dc8582860161226a565b9150509250929050565b600080604083850312156125fd576125fc6134af565b5b600061260b8582860161226a565b925050602061261c8582860161253a565b9150509250929050565b60006020828403121561263c5761263b6134af565b5b600082015167ffffffffffffffff81111561265a576126596134aa565b5b612666848285016122c2565b91505092915050565b600060208284031215612685576126846134af565b5b600082015167ffffffffffffffff8111156126a3576126a26134aa565b5b6126af848285016122f0565b91505092915050565b6000602082840312156126ce576126cd6134af565b5b60006126dc8482850161231e565b91505092915050565b600080604083850312156126fc576126fb6134af565b5b600061270a8582860161231e565b925050602061271b8582860161226a565b9150509250929050565b60006020828403121561273b5761273a6134af565b5b600082015167ffffffffffffffff811115612759576127586134aa565b5b61276584828501612333565b91505092915050565b600060408284031215612784576127836134af565b5b60006127928482850161245d565b91505092915050565b6000608082840312156127b1576127b06134af565b5b60006127bf848285016124ad565b91505092915050565b6000602082840312156127de576127dd6134af565b5b60006127ec8482850161253a565b91505092915050565b60006020828403121561280b5761280a6134af565b5b60006128198482850161254f565b91505092915050565b600060208284031215612838576128376134af565b5b600061284684828501612564565b91505092915050565b600061285b8383612abd565b905092915050565b600061286f8383612b60565b905092915050565b6128808161325f565b82525050565b61288f8161325f565b82525050565b60006128a082612f1b565b6128aa8185612f56565b9350836020820285016128bc85612efb565b8060005b858110156128f857848403895281516128d9858261284f565b94506128e483612f3c565b925060208a019950506001810190506128c0565b50829750879550505050505092915050565b600061291582612f26565b61291f8185612f67565b93508360208202850161293185612f0b565b8060005b8581101561296d578484038952815161294e8582612863565b945061295983612f49565b925060208a01995050600181019050612935565b50829750879550505050505092915050565b6129888161327b565b82525050565b600061299982612f31565b6129a38185612f78565b93506129b38185602086016132cd565b6129bc816134b4565b840191505092915050565b60006129d282612f31565b6129dc8185612f89565b93506129ec8185602086016132cd565b6129f5816134b4565b840191505092915050565b6000612a0b82612f31565b612a158185612f9a565b9350612a258185602086016132cd565b80840191505092915050565b6000612a3e600383612f9a565b9150612a49826134d2565b600382019050919050565b6000612a61602383612f89565b9150612a6c826134fb565b604082019050919050565b6000612a84601a83612f9a565b9150612a8f8261354a565b601a82019050919050565b6000612aa7601883612f89565b9150612ab282613573565b602082019050919050565b600060e083016000830151612ad56000860182612877565b5060208301518482036020860152612aed828261298e565b91505060408301518482036040860152612b07828261298e565b9150506060830151612b1c6060860182612c93565b506080830151612b2f6080860182612c93565b5060a0830151612b4260a0860182612c93565b5060c0830151612b5560c0860182612c93565b508091505092915050565b600061016083016000830151612b796000860182612877565b506020830151612b8c6020860182612c93565b506040830151612b9f6040860182612c93565b506060830151612bb26060860182612c93565b506080830151612bc5608086018261297f565b5060a0830151612bd860a0860182612c93565b5060c0830151612beb60c0860182612c93565b5060e0830151612bfe60e0860182612c93565b50610100830151612c13610100860182612c93565b50610120830151848203610120860152612c2d828261298e565b915050610140830151848203610140860152612c49828261298e565b9150508091505092915050565b60006040830160008301518482036000860152612c73828261290a565b9150506020830151612c886020860182612c93565b508091505092915050565b612c9c816132b6565b82525050565b6000612cae8285612a00565b9150612cba8284612a00565b91508190509392505050565b6000612cd182612a77565b9150612cdd8285612a00565b9150612ce882612a31565b9150612cf48284612a00565b91508190509392505050565b6000602082019050612d156000830184612886565b92915050565b6000604082019050612d306000830185612886565b612d3d6020830184612886565b9392505050565b6000606082019050612d596000830186612886565b612d666020830185612886565b612d736040830184612886565b949350505050565b60006020820190508181036000830152612d958184612895565b905092915050565b60006020820190508181036000830152612db781846129c7565b905092915050565b60006020820190508181036000830152612dd881612a54565b9050919050565b60006020820190508181036000830152612df881612a9a565b9050919050565b60006020820190508181036000830152612e198184612c56565b905092915050565b6000612e2b612e3c565b9050612e378282613300565b919050565b6000604051905090565b600067ffffffffffffffff821115612e6157612e60613462565b5b602082029050602081019050919050565b600067ffffffffffffffff821115612e8d57612e8c613462565b5b602082029050602081019050919050565b600067ffffffffffffffff821115612eb957612eb8613462565b5b602082029050602081019050919050565b600067ffffffffffffffff821115612ee557612ee4613462565b5b612eee826134b4565b9050602081019050919050565b6000819050602082019050919050565b6000819050602082019050919050565b600081519050919050565b600081519050919050565b600081519050919050565b6000602082019050919050565b6000602082019050919050565b600082825260208201905092915050565b600082825260208201905092915050565b600082825260208201905092915050565b600082825260208201905092915050565b600081905092915050565b6000612fb0826132b6565b9150612fbb836132b6565b9250827fffffffffffffffffffffffffffffffffffffffffffffffffffffffffffffffff03821115612ff057612fef6133d5565b5b828201905092915050565b6000613006826132b6565b9150613011836132b6565b92508261302157613020613404565b5b828204905092915050565b6000808291508390505b600185111561307657808604811115613052576130516133d5565b5b60018516156130615780820291505b808102905061306f856134c5565b9450613036565b94509492505050565b600061308a826132b6565b9150613095836132c0565b92506130c27fffffffffffffffffffffffffffffffffffffffffffffffffffffffffffffffff84846130ca565b905092915050565b6000826130da5760019050613196565b816130e85760009050613196565b81600181146130fe576002811461310857613137565b6001915050613196565b60ff84111561311a576131196133d5565b5b8360020a915084821115613131576131306133d5565b5b50613196565b5060208310610133831016604e8410600b841016171561316c5782820a905083811115613167576131666133d5565b5b613196565b613179848484600161302c565b925090508184048111156131905761318f6133d5565b5b81810290505b9392505050565b60006131a8826132b6565b91506131b3836132b6565b9250817fffffffffffffffffffffffffffffffffffffffffffffffffffffffffffffffff04831182151516156131ec576131eb6133d5565b5b828202905092915050565b6000613202826132b6565b915061320d836132b6565b9250828210156132205761321f6133d5565b5b828203905092915050565b6000613236826132c0565b9150613241836132c0565b925082821015613254576132536133d5565b5b828203905092915050565b600061326a82613296565b9050919050565b6000819050919050565b60008160000b9050919050565b600061ffff82169050919050565b600073ffffffffffffffffffffffffffffffffffffffff82169050919050565b6000819050919050565b600060ff82169050919050565b60005b838110156132eb5780820151818401526020810190506132d0565b838111156132fa576000848401525b50505050565b613309826134b4565b810181811067ffffffffffffffff8211171561332857613327613462565b5b80604052505050565b600061333c826132b6565b91507fffffffffffffffffffffffffffffffffffffffffffffffffffffffffffffffff82141561336f5761336e6133d5565b5b600182019050919050565b6000613385826132c0565b915060ff821415613399576133986133d5565b5b600182019050919050565b60006133af826132b6565b91506133ba836132b6565b9250826133ca576133c9613404565b5b828206905092915050565b7f4e487b7100000000000000000000000000000000000000000000000000000000600052601160045260246000fd5b7f4e487b7100000000000000000000000000000000000000000000000000000000600052601260045260246000fd5b7f4e487b7100000000000000000000000000000000000000000000000000000000600052603260045260246000fd5b7f4e487b7100000000000000000000000000000000000000000000000000000000600052604160045260246000fd5b600080fd5b600080fd5b600080fd5b600080fd5b600080fd5b600080fd5b600080fd5b6000601f19601f8301169050919050565b60008160011c9050919050565b7f203e200000000000000000000000000000000000000000000000000000000000600082015250565b7f4f776e61626c654578743a2063616c6c6572206973206e6f7420746865206f7760008201527f6e65720000000000000000000000000000000000000000000000000000000000602082015250565b7f5769746864726177206d6f7265207468616e20746f74616c3a20000000000000600082015250565b7f5a65726f2061646472657373206e6f7420616c6c6f7765640000000000000000600082015250565b6135a58161325f565b81146135b057600080fd5b50565b6135bc81613271565b81146135c757600080fd5b50565b6135d381613288565b81146135de57600080fd5b50565b6135ea816132b6565b81146135f557600080fd5b50565b613601816132c0565b811461360c57600080fd5b5056fea264697066735822122084867bd0021e6babf47e15fa2abbc38bc1769b59ce15cd10fff646710051c7d364736f6c63430008060033",
  "immutableReferences": {},
  "source": "// SPDX-License-Identifier: GPL-3.0\n\npragma solidity >=0.8.0 <0.9.0;\nimport \"./interfaces/IActivesList.sol\";\nimport \"@openzeppelin/contracts/token/ERC20/extensions/IERC20Metadata.sol\";\nimport \"./interfaces/IMark2Market.sol\";\nimport \"./interfaces/IConnector.sol\";\nimport \"./interfaces/IPriceGetter.sol\";\nimport \"./OwnableExt.sol\";\nimport \"./registries/InvestmentPortfolio.sol\";\nimport \"./Vault.sol\";\n\n//TODO: use AccessControl or Ownable from zeppelin\ncontract Mark2Market is IMark2Market, OwnableExt {\n    IActivesList private actListContr;\n\n    uint256 private testprice;\n    address private addrWault;\n\n    Vault private vault;\n    InvestmentPortfolio private investmentPortfolio;\n\n    //TODO: remove\n    event ConsoleLog(string str);\n\n    function setAddr(address _addrAL, address _addrWault) public onlyOwner {\n        require(_addrAL != address(0), \"Zero address not allowed\");\n        require(_addrWault != address(0), \"Zero address not allowed\");\n        actListContr = IActivesList(_addrAL);\n        addrWault = _addrWault;\n    }\n\n    function init(address _vault, address _investmentPortfolio) public onlyOwner {\n        require(_vault != address(0), \"Zero address not allowed\");\n        require(_investmentPortfolio != address(0), \"Zero address not allowed\");\n        vault = Vault(_vault);\n        investmentPortfolio = InvestmentPortfolio(_investmentPortfolio);\n    }\n\n    function activesPrices() public view override returns (ActivesPrices[] memory) {\n        IActivesList.Active[] memory actives = actListContr.getAllActives();\n        //calculate total activites sum\n        //USDC price]\n        ActivesPrices[] memory ap = new ActivesPrices[](actives.length);\n        for (uint8 a = 0; a < actives.length && a < 100; a++) {\n            if (actives[a].isWork > 0) {\n                IERC20Metadata tokAct = IERC20Metadata(actives[a].actAddress);\n                uint256 price = IConnector(actives[a].connector).getPriceOffer(\n                    actives[a].actAddress,\n                    actives[a].poolPrice\n                );\n                // position\n                uint256 bookValue = IConnector(actives[a].connector).getBookValue(\n                    actives[a].actAddress,\n                    addrWault,\n                    actives[a].poolPrice\n                );\n                uint256 liqValue = IConnector(actives[a].connector).getLiqValue(\n                    actives[a].actAddress,\n                    addrWault,\n                    actives[a].poolPrice\n                );\n\n                ap[a] = ActivesPrices(\n                    actives[a].actAddress,\n                    tokAct.name(),\n                    tokAct.symbol(),\n                    tokAct.decimals(),\n                    price,\n                    bookValue,\n                    liqValue\n                );\n            }\n        }\n\n        return ap;\n    }\n\n    function tstPrice(uint256 _tst) public onlyOwner {\n        ActivesPrices[] memory ap = activesPrices();\n\n        testprice = _tst;\n    }\n\n    function assetPricesForBalance() external override returns (TotalAssetPrices memory) {\n        return assetPricesForBalance(address(0), 0);\n    }\n\n    function assetPricesForBalance(address withdrawToken, uint256 withdrawAmount)\n        public\n        override\n        returns (TotalAssetPrices memory)\n    {\n        InvestmentPortfolio.AssetWeight[] memory assetWeights = investmentPortfolio\n            .getAllAssetWeights();\n\n        //TODO: remove\n        log(\"assetWeights.length: \", assetWeights.length);\n\n        uint256 totalUsdcPrice = 0;\n        uint256 count = assetWeights.length;\n        // limit iteration count. TODO: recheck\n        if (count > 100) {\n            count = 100;\n        }\n        AssetPrices[] memory assetPrices = new AssetPrices[](count);\n        for (uint8 i = 0; i < count; i++) {\n            InvestmentPortfolio.AssetWeight memory assetWeight = assetWeights[i];\n            uint256 amountInVault = IERC20(assetWeight.asset).balanceOf(address(vault));\n            uint256 usdcPriceOne = 1; //TODO: use real price\n\n            InvestmentPortfolio.AssetInfo memory assetInfo = investmentPortfolio.getAssetInfo(\n                assetWeight.asset\n            );\n            IPriceGetter priceGetter = IPriceGetter(assetInfo.priceGetter);\n\n            uint256 usdcPrice = usdcPriceOne * 10**18;\n\n            uint256 usdcPriceDenominator = priceGetter.denominator();\n            uint256 usdcSellPrice = priceGetter.getUsdcSellPrice();\n            uint256 usdcBuyPrice = priceGetter.getUsdcBuyPrice();\n\n            //TODO: denominator usage\n            uint256 denominator = 10**(IERC20Metadata(assetWeight.asset).decimals() - 6);\n            // uint256 usdcPriceInVault = (amountInVault * usdcPriceOne) / denominator;\n            uint256 usdcPriceInVault = (amountInVault * usdcPriceDenominator) /\n                usdcSellPrice /\n                denominator;\n\n            // amountInVault = 19500_000000\n            // usdcSellPrice = 0.975 * 10^18\n            // usdcPriceDenominator = 10^18\n\n            // uint256 amounbtDenominator = 10**(IERC20Metadata(assetWeight.asset).decimals() - 6);\n            // uint256 usdcPriceInVault2 = ;\n\n            //TODO: remove\n            log(\"amountInVault: \", amountInVault);\n\n            totalUsdcPrice += usdcPriceInVault;\n\n            assetPrices[i] = AssetPrices(\n                assetWeight.asset,\n                amountInVault,\n                // usdcPriceOne,\n                usdcPriceInVault,\n                0,\n                int8(0),\n                usdcPriceDenominator,\n                usdcSellPrice,\n                usdcBuyPrice,\n                // (amountInVault * usdcPriceDenominator) / usdcSellPrice / denominator\n                // ,\n                IERC20Metadata(assetWeight.asset).decimals(),\n                IERC20Metadata(assetWeight.asset).name(),\n                IERC20Metadata(assetWeight.asset).symbol()\n            );\n\n            // log(\"usdcPriceInVault2: \", assetPrices[i].usdcPriceInVault2);\n        }\n\n        // 3. validate withdrawAmount\n        require(\n            totalUsdcPrice >= withdrawAmount,\n            string(\n                abi.encodePacked(\n                    \"Withdraw more than total: \",\n                    uint2str(withdrawAmount),\n                    \" > \",\n                    uint2str(totalUsdcPrice)\n                )\n            )\n        );\n\n        // 4. correct total with withdrawAmount\n        totalUsdcPrice = totalUsdcPrice - withdrawAmount;\n\n        for (uint8 i = 0; i < count; i++) {\n            AssetPrices memory assetPrice = assetPrices[i];\n            (assetPrice.diffToTarget, assetPrice.diffToTargetSign) = diffToTarget(\n                totalUsdcPrice,\n                assetPrice.asset\n            );\n            // update diff for withdrawn token\n            if (withdrawAmount > 0 && assetPrice.asset == withdrawToken) {\n                if (assetPrice.diffToTargetSign < 0) {\n                    if (assetPrice.diffToTarget > withdrawAmount) {\n                        assetPrice.diffToTarget = assetPrice.diffToTarget - withdrawAmount;\n                    } else {\n                        assetPrice.diffToTarget = withdrawAmount - assetPrice.diffToTarget;\n                        assetPrice.diffToTargetSign = int8(1);\n                    }\n                } else {\n                    assetPrice.diffToTarget = assetPrice.diffToTarget + withdrawAmount;\n                }\n            }\n        }\n\n        TotalAssetPrices memory totalPrices = TotalAssetPrices(assetPrices, totalUsdcPrice);\n\n        return totalPrices;\n    }\n\n    function diffToTarget(uint256 totalUsdcPrice, address asset)\n        internal\n        view\n        returns (uint256, int8)\n    {\n        InvestmentPortfolio.AssetWeight memory assetWeight = investmentPortfolio.getAssetWeight(\n            asset\n        );\n        uint256 targetAmount = (totalUsdcPrice * assetWeight.targetWeight) /\n            investmentPortfolio.TOTAL_WEIGHT();\n        uint256 currentAmount = IERC20(asset).balanceOf(address(vault));\n        //TODO: denominator usage\n        uint256 denominator = 10**(IERC20Metadata(asset).decimals() - 6);\n        currentAmount = currentAmount / denominator;\n\n        if (targetAmount >= currentAmount) {\n            return (targetAmount - currentAmount, int8(1));\n        } else {\n            return (currentAmount - targetAmount, int8(-1));\n        }\n    }\n\n    //TODO: remove\n    function uint2str(uint _i) internal pure returns (string memory _uintAsString) {\n        if (_i == 0) {\n            return \"0\";\n        }\n        uint j = _i;\n        uint len;\n        while (j != 0) {\n            len++;\n            j /= 10;\n        }\n        bytes memory bstr = new bytes(len);\n        uint k = len;\n        while (_i != 0) {\n            k = k - 1;\n            bstr[k] = bytes1(uint8(48 + (_i % 10)));\n            _i /= 10;\n        }\n        return string(bstr);\n    }\n\n    //TODO: remove\n    function log(string memory message, uint value) internal {\n        emit ConsoleLog(string(abi.encodePacked(message, uint2str(value))));\n    }\n}\n\n/* // function m2m () {\n\n    // calculate proportions and changes value\n        for (uint8 a = 0; a<actives.length; a++) {\n                totalSum +=  (uint128 (actives[a].balance)) * priceAct;\n\n\n        }\n\n    }\n */\n",
  "sourcePath": "/home/vorh/IdeaProjects/Projects-Work/overnight/ovngt-mvp/contracts/Mark2Market.sol",
  "compiler": {
    "name": "solc",
    "version": "0.8.6+commit.11564f7e.Emscripten.clang"
  },
  "schemaVersion": "3.4.1",
  "updatedAt": "2021-10-05T16:30:50.478Z",
  "networkType": "ethereum",
  "devdoc": {
    "kind": "dev",
    "methods": {
      "owner()": {
        "details": "Returns the address of the current owner."
      },
      "renounceOwnership()": {
        "details": "Leaves the contract without owner. It will not be possible to call `onlyOwner` functions anymore. Can only be called by the current owner. NOTE: Renouncing ownership will leave the contract without an owner, thereby removing any functionality that is only available to the owner."
      },
      "transferOwnership(address)": {
        "details": "Transfers ownership of the contract to a new account (`newOwner`). Can only be called by the current owner."
      }
    },
    "version": 1
  },
  "userdoc": {
    "kind": "user",
    "methods": {},
    "version": 1
  }
}