{
  "contractName": "OvernightToken",
  "abi": [
    {
      "inputs": [],
      "stateMutability": "nonpayable",
      "type": "constructor"
    },
    {
      "anonymous": false,
      "inputs": [
        {
          "indexed": true,
          "internalType": "address",
          "name": "owner",
          "type": "address"
        },
        {
          "indexed": true,
          "internalType": "address",
          "name": "spender",
          "type": "address"
        },
        {
          "indexed": false,
          "internalType": "uint256",
          "name": "value",
          "type": "uint256"
        }
      ],
      "name": "Approval",
      "type": "event"
    },
    {
      "anonymous": false,
      "inputs": [
        {
          "indexed": true,
          "internalType": "bytes32",
          "name": "role",
          "type": "bytes32"
        },
        {
          "indexed": true,
          "internalType": "bytes32",
          "name": "previousAdminRole",
          "type": "bytes32"
        },
        {
          "indexed": true,
          "internalType": "bytes32",
          "name": "newAdminRole",
          "type": "bytes32"
        }
      ],
      "name": "RoleAdminChanged",
      "type": "event"
    },
    {
      "anonymous": false,
      "inputs": [
        {
          "indexed": true,
          "internalType": "bytes32",
          "name": "role",
          "type": "bytes32"
        },
        {
          "indexed": true,
          "internalType": "address",
          "name": "account",
          "type": "address"
        },
        {
          "indexed": true,
          "internalType": "address",
          "name": "sender",
          "type": "address"
        }
      ],
      "name": "RoleGranted",
      "type": "event"
    },
    {
      "anonymous": false,
      "inputs": [
        {
          "indexed": true,
          "internalType": "bytes32",
          "name": "role",
          "type": "bytes32"
        },
        {
          "indexed": true,
          "internalType": "address",
          "name": "account",
          "type": "address"
        },
        {
          "indexed": true,
          "internalType": "address",
          "name": "sender",
          "type": "address"
        }
      ],
      "name": "RoleRevoked",
      "type": "event"
    },
    {
      "anonymous": false,
      "inputs": [
        {
          "indexed": true,
          "internalType": "address",
          "name": "from",
          "type": "address"
        },
        {
          "indexed": true,
          "internalType": "address",
          "name": "to",
          "type": "address"
        },
        {
          "indexed": false,
          "internalType": "uint256",
          "name": "value",
          "type": "uint256"
        }
      ],
      "name": "Transfer",
      "type": "event"
    },
    {
      "inputs": [],
      "name": "DEFAULT_ADMIN_ROLE",
      "outputs": [
        {
          "internalType": "bytes32",
          "name": "",
          "type": "bytes32"
        }
      ],
      "stateMutability": "view",
      "type": "function",
      "constant": true
    },
    {
      "inputs": [],
      "name": "EXCHANGER",
      "outputs": [
        {
          "internalType": "bytes32",
          "name": "",
          "type": "bytes32"
        }
      ],
      "stateMutability": "view",
      "type": "function",
      "constant": true
    },
    {
      "inputs": [
        {
          "internalType": "address",
          "name": "owner",
          "type": "address"
        },
        {
          "internalType": "address",
          "name": "spender",
          "type": "address"
        }
      ],
      "name": "allowance",
      "outputs": [
        {
          "internalType": "uint256",
          "name": "",
          "type": "uint256"
        }
      ],
      "stateMutability": "view",
      "type": "function",
      "constant": true
    },
    {
      "inputs": [
        {
          "internalType": "address",
          "name": "spender",
          "type": "address"
        },
        {
          "internalType": "uint256",
          "name": "amount",
          "type": "uint256"
        }
      ],
      "name": "approve",
      "outputs": [
        {
          "internalType": "bool",
          "name": "",
          "type": "bool"
        }
      ],
      "stateMutability": "nonpayable",
      "type": "function"
    },
    {
      "inputs": [
        {
          "internalType": "address",
          "name": "account",
          "type": "address"
        }
      ],
      "name": "balanceOf",
      "outputs": [
        {
          "internalType": "uint256",
          "name": "",
          "type": "uint256"
        }
      ],
      "stateMutability": "view",
      "type": "function",
      "constant": true
    },
    {
      "inputs": [
        {
          "internalType": "address",
          "name": "spender",
          "type": "address"
        },
        {
          "internalType": "uint256",
          "name": "subtractedValue",
          "type": "uint256"
        }
      ],
      "name": "decreaseAllowance",
      "outputs": [
        {
          "internalType": "bool",
          "name": "",
          "type": "bool"
        }
      ],
      "stateMutability": "nonpayable",
      "type": "function"
    },
    {
      "inputs": [
        {
          "internalType": "bytes32",
          "name": "role",
          "type": "bytes32"
        }
      ],
      "name": "getRoleAdmin",
      "outputs": [
        {
          "internalType": "bytes32",
          "name": "",
          "type": "bytes32"
        }
      ],
      "stateMutability": "view",
      "type": "function",
      "constant": true
    },
    {
      "inputs": [
        {
          "internalType": "bytes32",
          "name": "role",
          "type": "bytes32"
        },
        {
          "internalType": "address",
          "name": "account",
          "type": "address"
        }
      ],
      "name": "grantRole",
      "outputs": [],
      "stateMutability": "nonpayable",
      "type": "function"
    },
    {
      "inputs": [
        {
          "internalType": "bytes32",
          "name": "role",
          "type": "bytes32"
        },
        {
          "internalType": "address",
          "name": "account",
          "type": "address"
        }
      ],
      "name": "hasRole",
      "outputs": [
        {
          "internalType": "bool",
          "name": "",
          "type": "bool"
        }
      ],
      "stateMutability": "view",
      "type": "function",
      "constant": true
    },
    {
      "inputs": [
        {
          "internalType": "address",
          "name": "spender",
          "type": "address"
        },
        {
          "internalType": "uint256",
          "name": "addedValue",
          "type": "uint256"
        }
      ],
      "name": "increaseAllowance",
      "outputs": [
        {
          "internalType": "bool",
          "name": "",
          "type": "bool"
        }
      ],
      "stateMutability": "nonpayable",
      "type": "function"
    },
    {
      "inputs": [],
      "name": "name",
      "outputs": [
        {
          "internalType": "string",
          "name": "",
          "type": "string"
        }
      ],
      "stateMutability": "view",
      "type": "function",
      "constant": true
    },
    {
      "inputs": [
        {
          "internalType": "bytes32",
          "name": "role",
          "type": "bytes32"
        },
        {
          "internalType": "address",
          "name": "account",
          "type": "address"
        }
      ],
      "name": "renounceRole",
      "outputs": [],
      "stateMutability": "nonpayable",
      "type": "function"
    },
    {
      "inputs": [
        {
          "internalType": "bytes32",
          "name": "role",
          "type": "bytes32"
        },
        {
          "internalType": "address",
          "name": "account",
          "type": "address"
        }
      ],
      "name": "revokeRole",
      "outputs": [],
      "stateMutability": "nonpayable",
      "type": "function"
    },
    {
      "inputs": [
        {
          "internalType": "bytes4",
          "name": "interfaceId",
          "type": "bytes4"
        }
      ],
      "name": "supportsInterface",
      "outputs": [
        {
          "internalType": "bool",
          "name": "",
          "type": "bool"
        }
      ],
      "stateMutability": "view",
      "type": "function",
      "constant": true
    },
    {
      "inputs": [],
      "name": "symbol",
      "outputs": [
        {
          "internalType": "string",
          "name": "",
          "type": "string"
        }
      ],
      "stateMutability": "view",
      "type": "function",
      "constant": true
    },
    {
      "inputs": [],
      "name": "totalSupply",
      "outputs": [
        {
          "internalType": "uint256",
          "name": "",
          "type": "uint256"
        }
      ],
      "stateMutability": "view",
      "type": "function",
      "constant": true
    },
    {
      "inputs": [
        {
          "internalType": "address",
          "name": "recipient",
          "type": "address"
        },
        {
          "internalType": "uint256",
          "name": "amount",
          "type": "uint256"
        }
      ],
      "name": "transfer",
      "outputs": [
        {
          "internalType": "bool",
          "name": "",
          "type": "bool"
        }
      ],
      "stateMutability": "nonpayable",
      "type": "function"
    },
    {
      "inputs": [
        {
          "internalType": "address",
          "name": "sender",
          "type": "address"
        },
        {
          "internalType": "address",
          "name": "recipient",
          "type": "address"
        },
        {
          "internalType": "uint256",
          "name": "amount",
          "type": "uint256"
        }
      ],
      "name": "transferFrom",
      "outputs": [
        {
          "internalType": "bool",
          "name": "",
          "type": "bool"
        }
      ],
      "stateMutability": "nonpayable",
      "type": "function"
    },
    {
      "inputs": [
        {
          "internalType": "address",
          "name": "_sender",
          "type": "address"
        },
        {
          "internalType": "uint256",
          "name": "_amount",
          "type": "uint256"
        }
      ],
      "name": "mint",
      "outputs": [],
      "stateMutability": "nonpayable",
      "type": "function"
    },
    {
      "inputs": [],
      "name": "decimals",
      "outputs": [
        {
          "internalType": "uint8",
          "name": "",
          "type": "uint8"
        }
      ],
      "stateMutability": "view",
      "type": "function",
      "constant": true
    },
    {
      "inputs": [
        {
          "internalType": "address",
          "name": "_sender",
          "type": "address"
        },
        {
          "internalType": "uint256",
          "name": "_amount",
          "type": "uint256"
        }
      ],
      "name": "burn",
      "outputs": [],
      "stateMutability": "nonpayable",
      "type": "function"
    },
    {
      "inputs": [],
      "name": "totalMint",
      "outputs": [
        {
          "internalType": "uint256",
          "name": "",
          "type": "uint256"
        }
      ],
      "stateMutability": "view",
      "type": "function",
      "constant": true
    },
    {
      "inputs": [],
      "name": "totalBurn",
      "outputs": [
        {
          "internalType": "uint256",
          "name": "",
          "type": "uint256"
        }
      ],
      "stateMutability": "view",
      "type": "function",
      "constant": true
    },
    {
      "inputs": [],
      "name": "ownerLength",
      "outputs": [
        {
          "internalType": "uint256",
          "name": "",
          "type": "uint256"
        }
      ],
      "stateMutability": "view",
      "type": "function",
      "constant": true
    },
    {
      "inputs": [
        {
          "internalType": "uint256",
          "name": "index",
          "type": "uint256"
        }
      ],
      "name": "ownerAt",
      "outputs": [
        {
          "internalType": "address",
          "name": "",
          "type": "address"
        }
      ],
      "stateMutability": "view",
      "type": "function",
      "constant": true
    },
    {
      "inputs": [
        {
          "internalType": "uint256",
          "name": "index",
          "type": "uint256"
        }
      ],
      "name": "ownerBalanceAt",
      "outputs": [
        {
          "internalType": "uint256",
          "name": "",
          "type": "uint256"
        }
      ],
      "stateMutability": "view",
      "type": "function",
      "constant": true
    },
    {
      "inputs": [
        {
          "internalType": "address",
          "name": "account",
          "type": "address"
        }
      ],
      "name": "setExchanger",
      "outputs": [],
      "stateMutability": "nonpayable",
      "type": "function"
    },
    {
      "inputs": [
        {
          "internalType": "address",
          "name": "account",
          "type": "address"
        }
      ],
      "name": "removeExchanger",
      "outputs": [],
      "stateMutability": "nonpayable",
      "type": "function"
    }
  ],
  "bytecode": "0x60806040523480156200001157600080fd5b506040518060400160405280600e81526020017f4f7665726e69676874546f6b656e0000000000000000000000000000000000008152506040518060400160405280600381526020017f4f564e000000000000000000000000000000000000000000000000000000000081525081600390805190602001906200009692919062000248565b508060049080519060200190620000af92919062000248565b505050620000c76000801b33620000cd60201b60201c565b6200035d565b620000df8282620000e360201b60201c565b5050565b620000f58282620001d560201b60201c565b620001d15760016005600084815260200190815260200160002060000160008373ffffffffffffffffffffffffffffffffffffffff1673ffffffffffffffffffffffffffffffffffffffff16815260200190815260200160002060006101000a81548160ff021916908315150217905550620001766200024060201b60201c565b73ffffffffffffffffffffffffffffffffffffffff168173ffffffffffffffffffffffffffffffffffffffff16837f2f8788117e7eff1d82e926ec794901d17c78024a50270940304540a733656f0d60405160405180910390a45b5050565b60006005600084815260200190815260200160002060000160008373ffffffffffffffffffffffffffffffffffffffff1673ffffffffffffffffffffffffffffffffffffffff16815260200190815260200160002060009054906101000a900460ff16905092915050565b600033905090565b8280546200025690620002f8565b90600052602060002090601f0160209004810192826200027a5760008555620002c6565b82601f106200029557805160ff1916838001178555620002c6565b82800160010185558215620002c6579182015b82811115620002c5578251825591602001919060010190620002a8565b5b509050620002d59190620002d9565b5090565b5b80821115620002f4576000816000905550600101620002da565b5090565b600060028204905060018216806200031157607f821691505b602082108114156200032857620003276200032e565b5b50919050565b7f4e487b7100000000000000000000000000000000000000000000000000000000600052602260045260246000fd5b612e9b806200036d6000396000f3fe608060405234801561001057600080fd5b50600436106101c35760003560e01c8063506bd3a6116100f9578063a457c2d711610097578063ce6df7be11610071578063ce6df7be14610542578063d547741f14610572578063da909b091461058e578063dd62ed3e146105aa576101c3565b8063a457c2d7146104c4578063a9059cbb146104f4578063bd0f105314610524576101c3565b806391d14854116100d357806391d148541461043c57806395d89b411461046c5780639dc29fac1461048a578063a217fddf146104a6576101c3565b8063506bd3a6146103d257806359a7715a146103ee57806370a082311461040c576101c3565b8063248a9ca31161016657806336568abe1161014057806336568abe1461034c57806339509351146103685780633c9f861d1461039857806340c10f19146103b6576101c3565b8063248a9ca3146102e25780632f2ff15d14610312578063313ce5671461032e576101c3565b8063095ea7b3116101a2578063095ea7b31461023457806318160ddd1461026457806323b872dd1461028257806324359879146102b2576101c3565b8062366088146101c857806301ffc9a7146101e657806306fdde0314610216575b600080fd5b6101d06105da565b6040516101dd91906126a1565b60405180910390f35b61020060048036038101906101fb91906120f5565b6105eb565b60405161020d9190612489565b60405180910390f35b61021e610665565b60405161022b91906124bf565b60405180910390f35b61024e60048036038101906102499190612048565b6106f7565b60405161025b9190612489565b60405180910390f35b61026c610715565b60405161027991906126a1565b60405180910390f35b61029c60048036038101906102979190611ff5565b61071f565b6040516102a99190612489565b60405180910390f35b6102cc60048036038101906102c79190612122565b610817565b6040516102d9919061246e565b60405180910390f35b6102fc60048036038101906102f79190612088565b610834565b60405161030991906124a4565b60405180910390f35b61032c600480360381019061032791906120b5565b610854565b005b61033661087d565b60405161034391906126bc565b60405180910390f35b610366600480360381019061036191906120b5565b610886565b005b610382600480360381019061037d9190612048565b610909565b60405161038f9190612489565b60405180910390f35b6103a06109b5565b6040516103ad91906126a1565b60405180910390f35b6103d060048036038101906103cb9190612048565b6109bf565b005b6103ec60048036038101906103e79190611f88565b610a4f565b005b6103f6610ac8565b60405161040391906126a1565b60405180910390f35b61042660048036038101906104219190611f88565b610ad2565b60405161043391906126a1565b60405180910390f35b610456600480360381019061045191906120b5565b610b1a565b6040516104639190612489565b60405180910390f35b610474610b85565b60405161048191906124bf565b60405180910390f35b6104a4600480360381019061049f9190612048565b610c17565b005b6104ae610ca7565b6040516104bb91906124a4565b60405180910390f35b6104de60048036038101906104d99190612048565b610cae565b6040516104eb9190612489565b60405180910390f35b61050e60048036038101906105099190612048565b610d99565b60405161051b9190612489565b60405180910390f35b61052c610db7565b60405161053991906124a4565b60405180910390f35b61055c60048036038101906105579190612122565b610ddb565b60405161056991906126a1565b60405180910390f35b61058c600480360381019061058791906120b5565b610e00565b005b6105a860048036038101906105a39190611f88565b610e29565b005b6105c460048036038101906105bf9190611fb5565b610ea2565b6040516105d191906126a1565b60405180910390f35b60006105e66008610f29565b905090565b60007f7965db0b000000000000000000000000000000000000000000000000000000007bffffffffffffffffffffffffffffffffffffffffffffffffffffffff1916827bffffffffffffffffffffffffffffffffffffffffffffffffffffffff1916148061065e575061065d82610f3e565b5b9050919050565b606060038054610674906128ca565b80601f01602080910402602001604051908101604052809291908181526020018280546106a0906128ca565b80156106ed5780601f106106c2576101008083540402835291602001916106ed565b820191906000526020600020905b8154815290600101906020018083116106d057829003601f168201915b5050505050905090565b600061070b610704610fa8565b8484610fb0565b6001905092915050565b6000600254905090565b600061072c84848461117b565b6000600160008673ffffffffffffffffffffffffffffffffffffffff1673ffffffffffffffffffffffffffffffffffffffff1681526020019081526020016000206000610777610fa8565b73ffffffffffffffffffffffffffffffffffffffff1673ffffffffffffffffffffffffffffffffffffffff168152602001908152602001600020549050828110156107f7576040517f08c379a00000000000000000000000000000000000000000000000000000000081526004016107ee906125a1565b60405180910390fd5b61080b85610803610fa8565b858403610fb0565b60019150509392505050565b600061082d8260086113fc90919063ffffffff16565b9050919050565b600060056000838152602001908152602001600020600101549050919050565b61085d82610834565b61086e81610869610fa8565b611416565b61087883836114b3565b505050565b60006006905090565b61088e610fa8565b73ffffffffffffffffffffffffffffffffffffffff168173ffffffffffffffffffffffffffffffffffffffff16146108fb576040517f08c379a00000000000000000000000000000000000000000000000000000000081526004016108f290612661565b60405180910390fd5b6109058282611594565b5050565b60006109ab610916610fa8565b848460016000610924610fa8565b73ffffffffffffffffffffffffffffffffffffffff1673ffffffffffffffffffffffffffffffffffffffff16815260200190815260200160002060008873ffffffffffffffffffffffffffffffffffffffff1673ffffffffffffffffffffffffffffffffffffffff168152602001908152602001600020546109a691906126fe565b610fb0565b6001905092915050565b6000600754905090565b6109e97f3eb675f159e6ca6cf5de6bfbbc8c4521cfd428f5e9166e51094d5898504caf2d33610b1a565b610a28576040517f08c379a0000000000000000000000000000000000000000000000000000000008152600401610a1f90612541565b60405180910390fd5b610a328282611676565b8060066000828254610a4491906126fe565b925050819055505050565b610a5c6000801b33610b1a565b610a9b576040517f08c379a0000000000000000000000000000000000000000000000000000000008152600401610a92906125c1565b60405180910390fd5b610ac57f3eb675f159e6ca6cf5de6bfbbc8c4521cfd428f5e9166e51094d5898504caf2d82610e00565b50565b6000600654905090565b60008060008373ffffffffffffffffffffffffffffffffffffffff1673ffffffffffffffffffffffffffffffffffffffff168152602001908152602001600020549050919050565b60006005600084815260200190815260200160002060000160008373ffffffffffffffffffffffffffffffffffffffff1673ffffffffffffffffffffffffffffffffffffffff16815260200190815260200160002060009054906101000a900460ff16905092915050565b606060048054610b94906128ca565b80601f0160208091040260200160405190810160405280929190818152602001828054610bc0906128ca565b8015610c0d5780601f10610be257610100808354040283529160200191610c0d565b820191906000526020600020905b815481529060010190602001808311610bf057829003601f168201915b5050505050905090565b610c417f3eb675f159e6ca6cf5de6bfbbc8c4521cfd428f5e9166e51094d5898504caf2d33610b1a565b610c80576040517f08c379a0000000000000000000000000000000000000000000000000000000008152600401610c7790612541565b60405180910390fd5b610c8a82826117d6565b8060076000828254610c9c91906126fe565b925050819055505050565b6000801b81565b60008060016000610cbd610fa8565b73ffffffffffffffffffffffffffffffffffffffff1673ffffffffffffffffffffffffffffffffffffffff16815260200190815260200160002060008573ffffffffffffffffffffffffffffffffffffffff1673ffffffffffffffffffffffffffffffffffffffff16815260200190815260200160002054905082811015610d7a576040517f08c379a0000000000000000000000000000000000000000000000000000000008152600401610d7190612641565b60405180910390fd5b610d8e610d85610fa8565b85858403610fb0565b600191505092915050565b6000610dad610da6610fa8565b848461117b565b6001905092915050565b7f3eb675f159e6ca6cf5de6bfbbc8c4521cfd428f5e9166e51094d5898504caf2d81565b6000610df9610df48360086113fc90919063ffffffff16565b610ad2565b9050919050565b610e0982610834565b610e1a81610e15610fa8565b611416565b610e248383611594565b505050565b610e366000801b33610b1a565b610e75576040517f08c379a0000000000000000000000000000000000000000000000000000000008152600401610e6c906125c1565b60405180910390fd5b610e9f7f3eb675f159e6ca6cf5de6bfbbc8c4521cfd428f5e9166e51094d5898504caf2d82610854565b50565b6000600160008473ffffffffffffffffffffffffffffffffffffffff1673ffffffffffffffffffffffffffffffffffffffff16815260200190815260200160002060008373ffffffffffffffffffffffffffffffffffffffff1673ffffffffffffffffffffffffffffffffffffffff16815260200190815260200160002054905092915050565b6000610f37826000016119ad565b9050919050565b60007f01ffc9a7000000000000000000000000000000000000000000000000000000007bffffffffffffffffffffffffffffffffffffffffffffffffffffffff1916827bffffffffffffffffffffffffffffffffffffffffffffffffffffffff1916149050919050565b600033905090565b600073ffffffffffffffffffffffffffffffffffffffff168373ffffffffffffffffffffffffffffffffffffffff161415611020576040517f08c379a000000000000000000000000000000000000000000000000000000000815260040161101790612621565b60405180910390fd5b600073ffffffffffffffffffffffffffffffffffffffff168273ffffffffffffffffffffffffffffffffffffffff161415611090576040517f08c379a000000000000000000000000000000000000000000000000000000000815260040161108790612561565b60405180910390fd5b80600160008573ffffffffffffffffffffffffffffffffffffffff1673ffffffffffffffffffffffffffffffffffffffff16815260200190815260200160002060008473ffffffffffffffffffffffffffffffffffffffff1673ffffffffffffffffffffffffffffffffffffffff168152602001908152602001600020819055508173ffffffffffffffffffffffffffffffffffffffff168373ffffffffffffffffffffffffffffffffffffffff167f8c5be1e5ebec7d5bd14f71427d1e84f3dd0314c0f7b2291e5b200ac8c7c3b9258360405161116e91906126a1565b60405180910390a3505050565b600073ffffffffffffffffffffffffffffffffffffffff168373ffffffffffffffffffffffffffffffffffffffff1614156111eb576040517f08c379a00000000000000000000000000000000000000000000000000000000081526004016111e290612601565b60405180910390fd5b600073ffffffffffffffffffffffffffffffffffffffff168273ffffffffffffffffffffffffffffffffffffffff16141561125b576040517f08c379a000000000000000000000000000000000000000000000000000000000815260040161125290612501565b60405180910390fd5b6112668383836119be565b60008060008573ffffffffffffffffffffffffffffffffffffffff1673ffffffffffffffffffffffffffffffffffffffff168152602001908152602001600020549050818110156112ec576040517f08c379a00000000000000000000000000000000000000000000000000000000081526004016112e390612581565b60405180910390fd5b8181036000808673ffffffffffffffffffffffffffffffffffffffff1673ffffffffffffffffffffffffffffffffffffffff16815260200190815260200160002081905550816000808573ffffffffffffffffffffffffffffffffffffffff1673ffffffffffffffffffffffffffffffffffffffff168152602001908152602001600020600082825461137f91906126fe565b925050819055508273ffffffffffffffffffffffffffffffffffffffff168473ffffffffffffffffffffffffffffffffffffffff167fddf252ad1be2c89b69c2b068fc378daa952ba7f163c4a11628f55a4df523b3ef846040516113e391906126a1565b60405180910390a36113f6848484611abc565b50505050565b600061140b8360000183611ac1565b60001c905092915050565b6114208282610b1a565b6114af576114458173ffffffffffffffffffffffffffffffffffffffff166014611aec565b6114538360001c6020611aec565b604051602001611464929190612434565b6040516020818303038152906040526040517f08c379a00000000000000000000000000000000000000000000000000000000081526004016114a691906124bf565b60405180910390fd5b5050565b6114bd8282610b1a565b6115905760016005600084815260200190815260200160002060000160008373ffffffffffffffffffffffffffffffffffffffff1673ffffffffffffffffffffffffffffffffffffffff16815260200190815260200160002060006101000a81548160ff021916908315150217905550611535610fa8565b73ffffffffffffffffffffffffffffffffffffffff168173ffffffffffffffffffffffffffffffffffffffff16837f2f8788117e7eff1d82e926ec794901d17c78024a50270940304540a733656f0d60405160405180910390a45b5050565b61159e8282610b1a565b156116725760006005600084815260200190815260200160002060000160008373ffffffffffffffffffffffffffffffffffffffff1673ffffffffffffffffffffffffffffffffffffffff16815260200190815260200160002060006101000a81548160ff021916908315150217905550611617610fa8565b73ffffffffffffffffffffffffffffffffffffffff168173ffffffffffffffffffffffffffffffffffffffff16837ff6391f5c32d9c69d2a47ea670b442974b53935d1edc7fd64eb21e047a839171b60405160405180910390a45b5050565b600073ffffffffffffffffffffffffffffffffffffffff168273ffffffffffffffffffffffffffffffffffffffff1614156116e6576040517f08c379a00000000000000000000000000000000000000000000000000000000081526004016116dd90612681565b60405180910390fd5b6116f2600083836119be565b806002600082825461170491906126fe565b92505081905550806000808473ffffffffffffffffffffffffffffffffffffffff1673ffffffffffffffffffffffffffffffffffffffff168152602001908152602001600020600082825461175991906126fe565b925050819055508173ffffffffffffffffffffffffffffffffffffffff16600073ffffffffffffffffffffffffffffffffffffffff167fddf252ad1be2c89b69c2b068fc378daa952ba7f163c4a11628f55a4df523b3ef836040516117be91906126a1565b60405180910390a36117d260008383611abc565b5050565b600073ffffffffffffffffffffffffffffffffffffffff168273ffffffffffffffffffffffffffffffffffffffff161415611846576040517f08c379a000000000000000000000000000000000000000000000000000000000815260040161183d906125e1565b60405180910390fd5b611852826000836119be565b60008060008473ffffffffffffffffffffffffffffffffffffffff1673ffffffffffffffffffffffffffffffffffffffff168152602001908152602001600020549050818110156118d8576040517f08c379a00000000000000000000000000000000000000000000000000000000081526004016118cf90612521565b60405180910390fd5b8181036000808573ffffffffffffffffffffffffffffffffffffffff1673ffffffffffffffffffffffffffffffffffffffff16815260200190815260200160002081905550816002600082825461192f91906127ae565b92505081905550600073ffffffffffffffffffffffffffffffffffffffff168373ffffffffffffffffffffffffffffffffffffffff167fddf252ad1be2c89b69c2b068fc378daa952ba7f163c4a11628f55a4df523b3ef8460405161199491906126a1565b60405180910390a36119a883600084611abc565b505050565b600081600001805490509050919050565b6119c9838383611d28565b600073ffffffffffffffffffffffffffffffffffffffff168373ffffffffffffffffffffffffffffffffffffffff161415611a1857611a12826008611d2d90919063ffffffff16565b50611ab7565b600073ffffffffffffffffffffffffffffffffffffffff168273ffffffffffffffffffffffffffffffffffffffff161415611a79576000611a5884610ad2565b1415611a7457611a72836008611d5d90919063ffffffff16565b505b611ab6565b6000611a8484610ad2565b1415611aa057611a9e836008611d5d90919063ffffffff16565b505b611ab4826008611d2d90919063ffffffff16565b505b5b505050565b505050565b6000826000018281548110611ad957611ad8612989565b5b9060005260206000200154905092915050565b606060006002836002611aff9190612754565b611b0991906126fe565b67ffffffffffffffff811115611b2257611b216129b8565b5b6040519080825280601f01601f191660200182016040528015611b545781602001600182028036833780820191505090505b5090507f300000000000000000000000000000000000000000000000000000000000000081600081518110611b8c57611b8b612989565b5b60200101907effffffffffffffffffffffffffffffffffffffffffffffffffffffffffffff1916908160001a9053507f780000000000000000000000000000000000000000000000000000000000000081600181518110611bf057611bef612989565b5b60200101907effffffffffffffffffffffffffffffffffffffffffffffffffffffffffffff1916908160001a90535060006001846002611c309190612754565b611c3a91906126fe565b90505b6001811115611cda577f3031323334353637383961626364656600000000000000000000000000000000600f861660108110611c7c57611c7b612989565b5b1a60f81b828281518110611c9357611c92612989565b5b60200101907effffffffffffffffffffffffffffffffffffffffffffffffffffffffffffff1916908160001a905350600485901c945080611cd3906128a0565b9050611c3d565b5060008414611d1e576040517f08c379a0000000000000000000000000000000000000000000000000000000008152600401611d15906124e1565b60405180910390fd5b8091505092915050565b505050565b6000611d55836000018373ffffffffffffffffffffffffffffffffffffffff1660001b611d8d565b905092915050565b6000611d85836000018373ffffffffffffffffffffffffffffffffffffffff1660001b611dfd565b905092915050565b6000611d998383611f11565b611df2578260000182908060018154018082558091505060019003906000526020600020016000909190919091505582600001805490508360010160008481526020019081526020016000208190555060019050611df7565b600090505b92915050565b60008083600101600084815260200190815260200160002054905060008114611f05576000600182611e2f91906127ae565b9050600060018660000180549050611e4791906127ae565b9050818114611eb6576000866000018281548110611e6857611e67612989565b5b9060005260206000200154905080876000018481548110611e8c57611e8b612989565b5b90600052602060002001819055508387600101600083815260200190815260200160002081905550505b85600001805480611eca57611ec961295a565b5b600190038181906000526020600020016000905590558560010160008681526020019081526020016000206000905560019350505050611f0b565b60009150505b92915050565b600080836001016000848152602001908152602001600020541415905092915050565b600081359050611f4381612e09565b92915050565b600081359050611f5881612e20565b92915050565b600081359050611f6d81612e37565b92915050565b600081359050611f8281612e4e565b92915050565b600060208284031215611f9e57611f9d6129e7565b5b6000611fac84828501611f34565b91505092915050565b60008060408385031215611fcc57611fcb6129e7565b5b6000611fda85828601611f34565b9250506020611feb85828601611f34565b9150509250929050565b60008060006060848603121561200e5761200d6129e7565b5b600061201c86828701611f34565b935050602061202d86828701611f34565b925050604061203e86828701611f73565b9150509250925092565b6000806040838503121561205f5761205e6129e7565b5b600061206d85828601611f34565b925050602061207e85828601611f73565b9150509250929050565b60006020828403121561209e5761209d6129e7565b5b60006120ac84828501611f49565b91505092915050565b600080604083850312156120cc576120cb6129e7565b5b60006120da85828601611f49565b92505060206120eb85828601611f34565b9150509250929050565b60006020828403121561210b5761210a6129e7565b5b600061211984828501611f5e565b91505092915050565b600060208284031215612138576121376129e7565b5b600061214684828501611f73565b91505092915050565b612158816127e2565b82525050565b612167816127f4565b82525050565b61217681612800565b82525050565b6000612187826126d7565b61219181856126e2565b93506121a181856020860161286d565b6121aa816129ec565b840191505092915050565b60006121c0826126d7565b6121ca81856126f3565b93506121da81856020860161286d565b80840191505092915050565b60006121f36020836126e2565b91506121fe826129fd565b602082019050919050565b60006122166023836126e2565b915061222182612a26565b604082019050919050565b60006122396022836126e2565b915061224482612a75565b604082019050919050565b600061225c601b836126e2565b915061226782612ac4565b602082019050919050565b600061227f6022836126e2565b915061228a82612aed565b604082019050919050565b60006122a26026836126e2565b91506122ad82612b3c565b604082019050919050565b60006122c56028836126e2565b91506122d082612b8b565b604082019050919050565b60006122e86014836126e2565b91506122f382612bda565b602082019050919050565b600061230b6021836126e2565b915061231682612c03565b604082019050919050565b600061232e6025836126e2565b915061233982612c52565b604082019050919050565b60006123516024836126e2565b915061235c82612ca1565b604082019050919050565b60006123746017836126f3565b915061237f82612cf0565b601782019050919050565b60006123976025836126e2565b91506123a282612d19565b604082019050919050565b60006123ba6011836126f3565b91506123c582612d68565b601182019050919050565b60006123dd602f836126e2565b91506123e882612d91565b604082019050919050565b6000612400601f836126e2565b915061240b82612de0565b602082019050919050565b61241f81612856565b82525050565b61242e81612860565b82525050565b600061243f82612367565b915061244b82856121b5565b9150612456826123ad565b915061246282846121b5565b91508190509392505050565b6000602082019050612483600083018461214f565b92915050565b600060208201905061249e600083018461215e565b92915050565b60006020820190506124b9600083018461216d565b92915050565b600060208201905081810360008301526124d9818461217c565b905092915050565b600060208201905081810360008301526124fa816121e6565b9050919050565b6000602082019050818103600083015261251a81612209565b9050919050565b6000602082019050818103600083015261253a8161222c565b9050919050565b6000602082019050818103600083015261255a8161224f565b9050919050565b6000602082019050818103600083015261257a81612272565b9050919050565b6000602082019050818103600083015261259a81612295565b9050919050565b600060208201905081810360008301526125ba816122b8565b9050919050565b600060208201905081810360008301526125da816122db565b9050919050565b600060208201905081810360008301526125fa816122fe565b9050919050565b6000602082019050818103600083015261261a81612321565b9050919050565b6000602082019050818103600083015261263a81612344565b9050919050565b6000602082019050818103600083015261265a8161238a565b9050919050565b6000602082019050818103600083015261267a816123d0565b9050919050565b6000602082019050818103600083015261269a816123f3565b9050919050565b60006020820190506126b66000830184612416565b92915050565b60006020820190506126d16000830184612425565b92915050565b600081519050919050565b600082825260208201905092915050565b600081905092915050565b600061270982612856565b915061271483612856565b9250827fffffffffffffffffffffffffffffffffffffffffffffffffffffffffffffffff03821115612749576127486128fc565b5b828201905092915050565b600061275f82612856565b915061276a83612856565b9250817fffffffffffffffffffffffffffffffffffffffffffffffffffffffffffffffff04831182151516156127a3576127a26128fc565b5b828202905092915050565b60006127b982612856565b91506127c483612856565b9250828210156127d7576127d66128fc565b5b828203905092915050565b60006127ed82612836565b9050919050565b60008115159050919050565b6000819050919050565b60007fffffffff0000000000000000000000000000000000000000000000000000000082169050919050565b600073ffffffffffffffffffffffffffffffffffffffff82169050919050565b6000819050919050565b600060ff82169050919050565b60005b8381101561288b578082015181840152602081019050612870565b8381111561289a576000848401525b50505050565b60006128ab82612856565b915060008214156128bf576128be6128fc565b5b600182039050919050565b600060028204905060018216806128e257607f821691505b602082108114156128f6576128f561292b565b5b50919050565b7f4e487b7100000000000000000000000000000000000000000000000000000000600052601160045260246000fd5b7f4e487b7100000000000000000000000000000000000000000000000000000000600052602260045260246000fd5b7f4e487b7100000000000000000000000000000000000000000000000000000000600052603160045260246000fd5b7f4e487b7100000000000000000000000000000000000000000000000000000000600052603260045260246000fd5b7f4e487b7100000000000000000000000000000000000000000000000000000000600052604160045260246000fd5b600080fd5b6000601f19601f8301169050919050565b7f537472696e67733a20686578206c656e67746820696e73756666696369656e74600082015250565b7f45524332303a207472616e7366657220746f20746865207a65726f206164647260008201527f6573730000000000000000000000000000000000000000000000000000000000602082015250565b7f45524332303a206275726e20616d6f756e7420657863656564732062616c616e60008201527f6365000000000000000000000000000000000000000000000000000000000000602082015250565b7f43616c6c6572206973206e6f74207468652045584348414e4745520000000000600082015250565b7f45524332303a20617070726f766520746f20746865207a65726f20616464726560008201527f7373000000000000000000000000000000000000000000000000000000000000602082015250565b7f45524332303a207472616e7366657220616d6f756e742065786365656473206260008201527f616c616e63650000000000000000000000000000000000000000000000000000602082015250565b7f45524332303a207472616e7366657220616d6f756e742065786365656473206160008201527f6c6c6f77616e6365000000000000000000000000000000000000000000000000602082015250565b7f5265737472696374656420746f2061646d696e73000000000000000000000000600082015250565b7f45524332303a206275726e2066726f6d20746865207a65726f2061646472657360008201527f7300000000000000000000000000000000000000000000000000000000000000602082015250565b7f45524332303a207472616e736665722066726f6d20746865207a65726f20616460008201527f6472657373000000000000000000000000000000000000000000000000000000602082015250565b7f45524332303a20617070726f76652066726f6d20746865207a65726f2061646460008201527f7265737300000000000000000000000000000000000000000000000000000000602082015250565b7f416363657373436f6e74726f6c3a206163636f756e7420000000000000000000600082015250565b7f45524332303a2064656372656173656420616c6c6f77616e63652062656c6f7760008201527f207a65726f000000000000000000000000000000000000000000000000000000602082015250565b7f206973206d697373696e6720726f6c6520000000000000000000000000000000600082015250565b7f416363657373436f6e74726f6c3a2063616e206f6e6c792072656e6f756e636560008201527f20726f6c657320666f722073656c660000000000000000000000000000000000602082015250565b7f45524332303a206d696e7420746f20746865207a65726f206164647265737300600082015250565b612e12816127e2565b8114612e1d57600080fd5b50565b612e2981612800565b8114612e3457600080fd5b50565b612e408161280a565b8114612e4b57600080fd5b50565b612e5781612856565b8114612e6257600080fd5b5056fea2646970667358221220834593a0049c2d056a36e2f7e5154f6a3781cb9245439188b392ac5047985f6464736f6c63430008060033",
  "immutableReferences": {},
  "source": "// SPDX-License-Identifier: MIT\npragma solidity >=0.5.0 <0.9.0;\n\nimport \"./interfaces/IERC20MintableBurnable.sol\";\nimport \"@openzeppelin/contracts/token/ERC20/ERC20.sol\";\nimport \"@openzeppelin/contracts/access/Ownable.sol\";\nimport \"@openzeppelin/contracts/access/AccessControl.sol\";\nimport \"@openzeppelin/contracts/utils/structs/EnumerableSet.sol\";\n\ncontract OvernightToken is IERC20MintableBurnable, ERC20, AccessControl {\n    using EnumerableSet for EnumerableSet.AddressSet;\n\n    uint256 _totalMint;\n    uint256 _totalBurn;\n\n    bytes32 public constant EXCHANGER = keccak256(\"EXCHANGER\");\n\n    EnumerableSet.AddressSet _owners;\n\n    modifier onlyAdmin() {\n        require(hasRole(DEFAULT_ADMIN_ROLE, msg.sender), \"Restricted to admins\");\n        _;\n    }\n\n    modifier onlyExchanger() {\n        require(hasRole(EXCHANGER, msg.sender), \"Caller is not the EXCHANGER\");\n        _;\n    }\n\n    constructor() ERC20(\"OvernightToken\", \"OVN\") {\n        _setupRole(DEFAULT_ADMIN_ROLE, msg.sender);\n    }\n\n    function mint(address _sender, uint256 _amount) external override onlyExchanger {\n        _mint(_sender, _amount);\n        _totalMint += _amount;\n    }\n\n    //TODO: check `virtual` usage\n    function decimals() public view virtual override returns (uint8) {\n        return 6;\n    }\n\n    function burn(address _sender, uint256 _amount) external override onlyExchanger {\n        _burn(_sender, _amount);\n        _totalBurn += _amount;\n    }\n\n    function totalMint() external view returns (uint256) {\n        return _totalMint;\n    }\n\n    function totalBurn() external view returns (uint256) {\n        return _totalBurn;\n    }\n\n    function ownerLength() external view returns (uint256) {\n        return _owners.length();\n    }\n\n    function ownerAt(uint256 index) external view returns (address) {\n        return _owners.at(index);\n    }\n\n    function ownerBalanceAt(uint256 index) external view returns (uint256) {\n        return balanceOf(_owners.at(index));\n    }\n\n    function _beforeTokenTransfer(\n        address from,\n        address to,\n        uint256 amount\n    ) internal virtual override {\n        super._beforeTokenTransfer(from, to, amount);\n\n        if (from == address(0)) {\n            // mint\n            _owners.add(to);\n        } else if (to == address(0)) {\n            // burn\n            if (balanceOf(from) == 0) {\n                _owners.remove(from);\n            }\n        } else {\n            // transfer\n            if (balanceOf(from) == 0) {\n                _owners.remove(from);\n            }\n            _owners.add(to);\n        }\n    }\n\n    //TODO: check `virtual` usage\n    function setExchanger(address account) external virtual onlyAdmin {\n        grantRole(EXCHANGER, account);\n    }\n\n    //TODO: check `virtual` usage and do we really need remove*\n    function removeExchanger(address account) external virtual onlyAdmin {\n        revokeRole(EXCHANGER, account);\n    }\n}\n",
  "sourcePath": "/home/vorh/IdeaProjects/Projects-Work/overnight/ovngt-mvp/contracts/OvernightToken.sol",
  "compiler": {
    "name": "solc",
    "version": "0.8.6+commit.11564f7e.Emscripten.clang"
  },
  "schemaVersion": "3.4.1",
  "updatedAt": "2021-10-05T16:30:51.450Z",
  "networkType": "ethereum",
  "devdoc": {
    "kind": "dev",
    "methods": {
      "allowance(address,address)": {
        "details": "See {IERC20-allowance}."
      },
      "approve(address,uint256)": {
        "details": "See {IERC20-approve}. Requirements: - `spender` cannot be the zero address."
      },
      "balanceOf(address)": {
        "details": "See {IERC20-balanceOf}."
      },
      "decimals()": {
        "details": "Returns the number of decimals used to get its user representation. For example, if `decimals` equals `2`, a balance of `505` tokens should be displayed to a user as `5,05` (`505 / 10 ** 2`). Tokens usually opt for a value of 18, imitating the relationship between Ether and Wei. This is the value {ERC20} uses, unless this function is overridden; NOTE: This information is only used for _display_ purposes: it in no way affects any of the arithmetic of the contract, including {IERC20-balanceOf} and {IERC20-transfer}."
      },
      "decreaseAllowance(address,uint256)": {
        "details": "Atomically decreases the allowance granted to `spender` by the caller. This is an alternative to {approve} that can be used as a mitigation for problems described in {IERC20-approve}. Emits an {Approval} event indicating the updated allowance. Requirements: - `spender` cannot be the zero address. - `spender` must have allowance for the caller of at least `subtractedValue`."
      },
      "getRoleAdmin(bytes32)": {
        "details": "Returns the admin role that controls `role`. See {grantRole} and {revokeRole}. To change a role's admin, use {_setRoleAdmin}."
      },
      "grantRole(bytes32,address)": {
        "details": "Grants `role` to `account`. If `account` had not been already granted `role`, emits a {RoleGranted} event. Requirements: - the caller must have ``role``'s admin role."
      },
      "hasRole(bytes32,address)": {
        "details": "Returns `true` if `account` has been granted `role`."
      },
      "increaseAllowance(address,uint256)": {
        "details": "Atomically increases the allowance granted to `spender` by the caller. This is an alternative to {approve} that can be used as a mitigation for problems described in {IERC20-approve}. Emits an {Approval} event indicating the updated allowance. Requirements: - `spender` cannot be the zero address."
      },
      "name()": {
        "details": "Returns the name of the token."
      },
      "renounceRole(bytes32,address)": {
        "details": "Revokes `role` from the calling account. Roles are often managed via {grantRole} and {revokeRole}: this function's purpose is to provide a mechanism for accounts to lose their privileges if they are compromised (such as when a trusted device is misplaced). If the calling account had been granted `role`, emits a {RoleRevoked} event. Requirements: - the caller must be `account`."
      },
      "revokeRole(bytes32,address)": {
        "details": "Revokes `role` from `account`. If `account` had been granted `role`, emits a {RoleRevoked} event. Requirements: - the caller must have ``role``'s admin role."
      },
      "supportsInterface(bytes4)": {
        "details": "See {IERC165-supportsInterface}."
      },
      "symbol()": {
        "details": "Returns the symbol of the token, usually a shorter version of the name."
      },
      "totalSupply()": {
        "details": "See {IERC20-totalSupply}."
      },
      "transfer(address,uint256)": {
        "details": "See {IERC20-transfer}. Requirements: - `recipient` cannot be the zero address. - the caller must have a balance of at least `amount`."
      },
      "transferFrom(address,address,uint256)": {
        "details": "See {IERC20-transferFrom}. Emits an {Approval} event indicating the updated allowance. This is not required by the EIP. See the note at the beginning of {ERC20}. Requirements: - `sender` and `recipient` cannot be the zero address. - `sender` must have a balance of at least `amount`. - the caller must have allowance for ``sender``'s tokens of at least `amount`."
      }
    },
    "version": 1
  },
  "userdoc": {
    "kind": "user",
    "methods": {},
    "version": 1
  }
}