{
  "address": "0x70e754531418461eF2366b72cd396337d2AD6D5d",
  "abi": [
    {
      "inputs": [
        {
          "internalType": "address",
          "name": "_addrActive2",
          "type": "address"
        },
        {
          "internalType": "address",
          "name": "_router",
          "type": "address"
        }
      ],
      "name": "buy",
      "outputs": [],
      "stateMutability": "payable",
      "type": "function"
    }
  ],
  "transactionHash": "0x80d3eb604bfab4e360a09527d1f7e76a826ad8f796b2c2a2c91f768bfae6b0f0",
  "args": [],
  "solcInputHash": "4b2c02ad00a20f5dc92f2cdd9d4eb77f",
  "bytecode": "0x608060405234801561001057600080fd5b5061051f806100206000396000f3fe60806040526004361061001e5760003560e01c8063ad7fadc514610023575b600080fd5b61003661003136600461029e565b610038565b005b6040805160028082526060828101909352839291600091816020016020820280368337019050509050826001600160a01b031663ad5c46486040518163ffffffff1660e01b815260040160206040518083038186803b15801561009a57600080fd5b505afa1580156100ae573d6000803e3d6000fd5b505050506040513d601f19601f820116820180604052508101906100d2919061027a565b816000815181106100e5576100e56104a5565b60200260200101906001600160a01b031690816001600160a01b0316815250508481600181518110610119576101196104a5565b6001600160a01b03928316602091820292909201015260405163d06ca61f60e01b81529084169063d06ca61f9061015690349085906004016103e0565b60006040518083038186803b15801561016e57600080fd5b505afa158015610182573d6000803e3d6000fd5b505050506040513d6000823e601f3d908101601f191682016040526101aa91908101906102d7565b9150826001600160a01b0316637ff36ab534600a856001815181106101d1576101d16104a5565b602002602001015160096101e59190610470565b6101ef919061044e565b84336101fd42610258610436565b6040518663ffffffff1660e01b815260040161021c9493929190610401565b6000604051808303818588803b15801561023557600080fd5b505af1158015610249573d6000803e3d6000fd5b50505050506040513d6000823e601f3d908101601f1916820160405261027291908101906102d7565b505050505050565b60006020828403121561028c57600080fd5b8151610297816104d1565b9392505050565b600080604083850312156102b157600080fd5b82356102bc816104d1565b915060208301356102cc816104d1565b809150509250929050565b600060208083850312156102ea57600080fd5b825167ffffffffffffffff8082111561030257600080fd5b818501915085601f83011261031657600080fd5b815181811115610328576103286104bb565b8060051b604051601f19603f8301168101818110858211171561034d5761034d6104bb565b604052828152858101935084860182860187018a101561036c57600080fd5b600095505b8386101561038f578051855260019590950194938601938601610371565b5098975050505050505050565b600081518084526020808501945080840160005b838110156103d55781516001600160a01b0316875295820195908201906001016103b0565b509495945050505050565b8281526040602082015260006103f9604083018461039c565b949350505050565b84815260806020820152600061041a608083018661039c565b6001600160a01b03949094166040830152506060015292915050565b600082198211156104495761044961048f565b500190565b60008261046b57634e487b7160e01b600052601260045260246000fd5b500490565b600081600019048311821515161561048a5761048a61048f565b500290565b634e487b7160e01b600052601160045260246000fd5b634e487b7160e01b600052603260045260246000fd5b634e487b7160e01b600052604160045260246000fd5b6001600160a01b03811681146104e657600080fd5b5056fea26469706673582212209ed1aad908fd39044fb6cd0180cbd7e534473a8985ec8d095ab94c46d536aff164736f6c63430008060033",
  "devdoc": {
    "kind": "dev",
    "methods": {},
    "version": 1
  },
  "userdoc": {
    "kind": "user",
    "methods": {},
    "version": 1
  },
  "storageLayout": {
    "storage": [],
    "types": null
  }
}