{
  "contractName": "Exchange",
  "abi": [
    {
      "inputs": [],
      "stateMutability": "nonpayable",
      "type": "constructor"
    },
    {
      "anonymous": false,
      "inputs": [
        {
          "indexed": false,
          "internalType": "string",
          "name": "reason",
          "type": "string"
        }
      ],
      "name": "ErrorLogging",
      "type": "event"
    },
    {
      "anonymous": false,
      "inputs": [
        {
          "indexed": false,
          "internalType": "string",
          "name": "label",
          "type": "string"
        },
        {
          "indexed": false,
          "internalType": "uint256",
          "name": "amount",
          "type": "uint256"
        }
      ],
      "name": "EventExchange",
      "type": "event"
    },
    {
      "anonymous": false,
      "inputs": [
        {
          "indexed": false,
          "internalType": "uint256",
          "name": "totalOvn",
          "type": "uint256"
        },
        {
          "indexed": false,
          "internalType": "uint256",
          "name": "totalUsdc",
          "type": "uint256"
        }
      ],
      "name": "NoEnoughForRewardEvent",
      "type": "event"
    },
    {
      "anonymous": false,
      "inputs": [
        {
          "indexed": false,
          "internalType": "uint256",
          "name": "amount",
          "type": "uint256"
        },
        {
          "indexed": false,
          "internalType": "uint256",
          "name": "feeAmount",
          "type": "uint256"
        }
      ],
      "name": "PaidBuyFee",
      "type": "event"
    },
    {
      "anonymous": false,
      "inputs": [
        {
          "indexed": false,
          "internalType": "uint256",
          "name": "amount",
          "type": "uint256"
        },
        {
          "indexed": false,
          "internalType": "uint256",
          "name": "feeAmount",
          "type": "uint256"
        }
      ],
      "name": "PaidRedeemFee",
      "type": "event"
    },
    {
      "anonymous": false,
      "inputs": [
        {
          "indexed": false,
          "internalType": "uint256",
          "name": "totalOvn",
          "type": "uint256"
        },
        {
          "indexed": false,
          "internalType": "uint256",
          "name": "totalUsdc",
          "type": "uint256"
        },
        {
          "indexed": false,
          "internalType": "uint256",
          "name": "totallyAmountRewarded",
          "type": "uint256"
        },
        {
          "indexed": false,
          "internalType": "uint256",
          "name": "totallySaved",
          "type": "uint256"
        }
      ],
      "name": "RewardEvent",
      "type": "event"
    },
    {
      "anonymous": false,
      "inputs": [
        {
          "indexed": true,
          "internalType": "bytes32",
          "name": "role",
          "type": "bytes32"
        },
        {
          "indexed": true,
          "internalType": "bytes32",
          "name": "previousAdminRole",
          "type": "bytes32"
        },
        {
          "indexed": true,
          "internalType": "bytes32",
          "name": "newAdminRole",
          "type": "bytes32"
        }
      ],
      "name": "RoleAdminChanged",
      "type": "event"
    },
    {
      "anonymous": false,
      "inputs": [
        {
          "indexed": true,
          "internalType": "bytes32",
          "name": "role",
          "type": "bytes32"
        },
        {
          "indexed": true,
          "internalType": "address",
          "name": "account",
          "type": "address"
        },
        {
          "indexed": true,
          "internalType": "address",
          "name": "sender",
          "type": "address"
        }
      ],
      "name": "RoleGranted",
      "type": "event"
    },
    {
      "anonymous": false,
      "inputs": [
        {
          "indexed": true,
          "internalType": "bytes32",
          "name": "role",
          "type": "bytes32"
        },
        {
          "indexed": true,
          "internalType": "address",
          "name": "account",
          "type": "address"
        },
        {
          "indexed": true,
          "internalType": "address",
          "name": "sender",
          "type": "address"
        }
      ],
      "name": "RoleRevoked",
      "type": "event"
    },
    {
      "anonymous": false,
      "inputs": [
        {
          "indexed": false,
          "internalType": "uint256",
          "name": "fee",
          "type": "uint256"
        },
        {
          "indexed": false,
          "internalType": "uint256",
          "name": "feeDenominator",
          "type": "uint256"
        }
      ],
      "name": "UpdatedBuyFee",
      "type": "event"
    },
    {
      "anonymous": false,
      "inputs": [
        {
          "indexed": false,
          "internalType": "uint256",
          "name": "fee",
          "type": "uint256"
        },
        {
          "indexed": false,
          "internalType": "uint256",
          "name": "feeDenominator",
          "type": "uint256"
        }
      ],
      "name": "UpdatedRedeemFee",
      "type": "event"
    },
    {
      "inputs": [],
      "name": "DEFAULT_ADMIN_ROLE",
      "outputs": [
        {
          "internalType": "bytes32",
          "name": "",
          "type": "bytes32"
        }
      ],
      "stateMutability": "view",
      "type": "function",
      "constant": true
    },
    {
      "inputs": [],
      "name": "buyFee",
      "outputs": [
        {
          "internalType": "uint256",
          "name": "",
          "type": "uint256"
        }
      ],
      "stateMutability": "view",
      "type": "function",
      "constant": true
    },
    {
      "inputs": [],
      "name": "buyFeeDenominator",
      "outputs": [
        {
          "internalType": "uint256",
          "name": "",
          "type": "uint256"
        }
      ],
      "stateMutability": "view",
      "type": "function",
      "constant": true
    },
    {
      "inputs": [
        {
          "internalType": "bytes32",
          "name": "role",
          "type": "bytes32"
        }
      ],
      "name": "getRoleAdmin",
      "outputs": [
        {
          "internalType": "bytes32",
          "name": "",
          "type": "bytes32"
        }
      ],
      "stateMutability": "view",
      "type": "function",
      "constant": true
    },
    {
      "inputs": [
        {
          "internalType": "bytes32",
          "name": "role",
          "type": "bytes32"
        },
        {
          "internalType": "address",
          "name": "account",
          "type": "address"
        }
      ],
      "name": "grantRole",
      "outputs": [],
      "stateMutability": "nonpayable",
      "type": "function"
    },
    {
      "inputs": [
        {
          "internalType": "bytes32",
          "name": "role",
          "type": "bytes32"
        },
        {
          "internalType": "address",
          "name": "account",
          "type": "address"
        }
      ],
      "name": "hasRole",
      "outputs": [
        {
          "internalType": "bool",
          "name": "",
          "type": "bool"
        }
      ],
      "stateMutability": "view",
      "type": "function",
      "constant": true
    },
    {
      "inputs": [],
      "name": "m2m",
      "outputs": [
        {
          "internalType": "contract IMark2Market",
          "name": "",
          "type": "address"
        }
      ],
      "stateMutability": "view",
      "type": "function",
      "constant": true
    },
    {
      "inputs": [],
      "name": "ovn",
      "outputs": [
        {
          "internalType": "contract OvernightToken",
          "name": "",
          "type": "address"
        }
      ],
      "stateMutability": "view",
      "type": "function",
      "constant": true
    },
    {
      "inputs": [],
      "name": "pm",
      "outputs": [
        {
          "internalType": "contract PortfolioManager",
          "name": "",
          "type": "address"
        }
      ],
      "stateMutability": "view",
      "type": "function",
      "constant": true
    },
    {
      "inputs": [],
      "name": "redeemFee",
      "outputs": [
        {
          "internalType": "uint256",
          "name": "",
          "type": "uint256"
        }
      ],
      "stateMutability": "view",
      "type": "function",
      "constant": true
    },
    {
      "inputs": [],
      "name": "redeemFeeDenominator",
      "outputs": [
        {
          "internalType": "uint256",
          "name": "",
          "type": "uint256"
        }
      ],
      "stateMutability": "view",
      "type": "function",
      "constant": true
    },
    {
      "inputs": [
        {
          "internalType": "bytes32",
          "name": "role",
          "type": "bytes32"
        },
        {
          "internalType": "address",
          "name": "account",
          "type": "address"
        }
      ],
      "name": "renounceRole",
      "outputs": [],
      "stateMutability": "nonpayable",
      "type": "function"
    },
    {
      "inputs": [
        {
          "internalType": "bytes32",
          "name": "role",
          "type": "bytes32"
        },
        {
          "internalType": "address",
          "name": "account",
          "type": "address"
        }
      ],
      "name": "revokeRole",
      "outputs": [],
      "stateMutability": "nonpayable",
      "type": "function"
    },
    {
      "inputs": [
        {
          "internalType": "bytes4",
          "name": "interfaceId",
          "type": "bytes4"
        }
      ],
      "name": "supportsInterface",
      "outputs": [
        {
          "internalType": "bool",
          "name": "",
          "type": "bool"
        }
      ],
      "stateMutability": "view",
      "type": "function",
      "constant": true
    },
    {
      "inputs": [],
      "name": "usdc",
      "outputs": [
        {
          "internalType": "contract IERC20",
          "name": "",
          "type": "address"
        }
      ],
      "stateMutability": "view",
      "type": "function",
      "constant": true
    },
    {
      "inputs": [
        {
          "internalType": "address",
          "name": "_ovn",
          "type": "address"
        },
        {
          "internalType": "address",
          "name": "_usdc",
          "type": "address"
        }
      ],
      "name": "setTokens",
      "outputs": [],
      "stateMutability": "nonpayable",
      "type": "function"
    },
    {
      "inputs": [
        {
          "internalType": "address",
          "name": "_addrPM",
          "type": "address"
        },
        {
          "internalType": "address",
          "name": "_addrM2M",
          "type": "address"
        }
      ],
      "name": "setAddr",
      "outputs": [],
      "stateMutability": "nonpayable",
      "type": "function"
    },
    {
      "inputs": [
        {
          "internalType": "uint256",
          "name": "_fee",
          "type": "uint256"
        },
        {
          "internalType": "uint256",
          "name": "_feeDenominator",
          "type": "uint256"
        }
      ],
      "name": "setBuyFee",
      "outputs": [],
      "stateMutability": "nonpayable",
      "type": "function"
    },
    {
      "inputs": [
        {
          "internalType": "uint256",
          "name": "_fee",
          "type": "uint256"
        },
        {
          "internalType": "uint256",
          "name": "_feeDenominator",
          "type": "uint256"
        }
      ],
      "name": "setRedeemFee",
      "outputs": [],
      "stateMutability": "nonpayable",
      "type": "function"
    },
    {
      "inputs": [],
      "name": "balance",
      "outputs": [
        {
          "internalType": "uint256",
          "name": "",
          "type": "uint256"
        }
      ],
      "stateMutability": "view",
      "type": "function",
      "constant": true
    },
    {
      "inputs": [
        {
          "internalType": "address",
          "name": "_addrTok",
          "type": "address"
        },
        {
          "internalType": "uint256",
          "name": "_amount",
          "type": "uint256"
        }
      ],
      "name": "buy",
      "outputs": [],
      "stateMutability": "nonpayable",
      "type": "function"
    },
    {
      "inputs": [
        {
          "internalType": "address",
          "name": "_addrTok",
          "type": "address"
        },
        {
          "internalType": "uint256",
          "name": "_amount",
          "type": "uint256"
        }
      ],
      "name": "redeem",
      "outputs": [],
      "stateMutability": "nonpayable",
      "type": "function"
    },
    {
      "inputs": [],
      "name": "reward",
      "outputs": [],
      "stateMutability": "nonpayable",
      "type": "function"
    }
  ],
  "bytecode": "0x60806040526028600555620186a06006556028600755620186a06008553480156200002957600080fd5b506200003f6000801b336200004560201b60201c565b620001be565b6200005782826200005b60201b60201c565b5050565b6200006d82826200014c60201b60201c565b6200014857600160008084815260200190815260200160002060000160008373ffffffffffffffffffffffffffffffffffffffff1673ffffffffffffffffffffffffffffffffffffffff16815260200190815260200160002060006101000a81548160ff021916908315150217905550620000ed620001b660201b60201c565b73ffffffffffffffffffffffffffffffffffffffff168173ffffffffffffffffffffffffffffffffffffffff16837f2f8788117e7eff1d82e926ec794901d17c78024a50270940304540a733656f0d60405160405180910390a45b5050565b600080600084815260200190815260200160002060000160008373ffffffffffffffffffffffffffffffffffffffff1673ffffffffffffffffffffffffffffffffffffffff16815260200190815260200160002060009054906101000a900460ff16905092915050565b600033905090565b61344a80620001ce6000396000f3fe608060405234801561001057600080fd5b506004361061014d5760003560e01c806391d14854116100c3578063cbc7854e1161007c578063cbc7854e1461036a578063cce7ec1314610386578063d0b78489146103a2578063d547741f146103c0578063ebcb00e0146103dc578063fb0ecfa4146103f85761014d565b806391d14854146102a6578063965fa21e146102d6578063a217fddf146102f4578063b69ef8a814610312578063bc56bebf14610330578063c12e90e91461034c5761014d565b806336568abe1161011557806336568abe146101f45780633d92c38b146102105780633e413bee1461022e578063470624021461024c57806362f098951461026a5780638970cdff146102885761014d565b806301ffc9a7146101525780631e9a695014610182578063228cb7331461019e578063248a9ca3146101a85780632f2ff15d146101d8575b600080fd5b61016c600480360381019061016791906124e0565b610414565b6040516101799190612930565b60405180910390f35b61019c60048036038101906101979190612406565b61048e565b005b6101a661085f565b005b6101c260048036038101906101bd9190612473565b610ea6565b6040516101cf919061294b565b60405180910390f35b6101f260048036038101906101ed91906124a0565b610ec5565b005b61020e600480360381019061020991906124a0565b610eee565b005b610218610f71565b60405161022591906129aa565b60405180910390f35b610236610f97565b6040516102439190612966565b60405180910390f35b610254610fbd565b6040516102619190612b99565b60405180910390f35b610272610fc3565b60405161027f9190612b99565b60405180910390f35b610290610fc9565b60405161029d91906129e0565b60405180910390f35b6102c060048036038101906102bb91906124a0565b610fef565b6040516102cd9190612930565b60405180910390f35b6102de611059565b6040516102eb9190612b99565b60405180910390f35b6102fc61105f565b604051610309919061294b565b60405180910390f35b61031a611066565b6040516103279190612b99565b60405180910390f35b61034a60048036038101906103459190612583565b611118565b005b6103546111f7565b6040516103619190612b99565b60405180910390f35b610384600480360381019061037f91906123c6565b6111fd565b005b6103a0600480360381019061039b9190612406565b6113af565b005b6103aa611813565b6040516103b791906129c5565b60405180910390f35b6103da60048036038101906103d591906124a0565b611839565b005b6103f660048036038101906103f191906123c6565b611862565b005b610412600480360381019061040d9190612583565b611a14565b005b60007f7965db0b000000000000000000000000000000000000000000000000000000007bffffffffffffffffffffffffffffffffffffffffffffffffffffffff1916827bffffffffffffffffffffffffffffffffffffffffffffffffffffffff19161480610487575061048682611af3565b5b9050919050565b600260009054906101000a900473ffffffffffffffffffffffffffffffffffffffff1673ffffffffffffffffffffffffffffffffffffffff168273ffffffffffffffffffffffffffffffffffffffff161461051e576040517f08c379a000000000000000000000000000000000000000000000000000000000815260040161051590612ab9565b60405180910390fd5b7fe05220aa7f4f94eba183e0264ab8fc510924fb7b592d6a6d4a51dc3a34c79adf8160405161054d9190612a5d565b60405180910390a16000600854600754836105689190612d6d565b6105729190612d3c565b9050600081836105829190612dc7565b90507fa95a790e5c54b3292db47a5f1a6ff76b459c701961dfc6c7c88448e7a2b7024d81836040516105b5929190612bb4565b60405180910390a16000600360009054906101000a900473ffffffffffffffffffffffffffffffffffffffff1673ffffffffffffffffffffffffffffffffffffffff1663f3fef3a386846040518363ffffffff1660e01b815260040161061c929190612981565b602060405180830381600087803b15801561063657600080fd5b505af115801561064a573d6000803e3d6000fd5b505050506040513d601f19601f8201168201806040525081019061066e9190612556565b9050600160009054906101000a900473ffffffffffffffffffffffffffffffffffffffff1673ffffffffffffffffffffffffffffffffffffffff16639dc29fac33866040518363ffffffff1660e01b81526004016106cd929190612907565b600060405180830381600087803b1580156106e757600080fd5b505af11580156106fb573d6000803e3d6000fd5b50505050808573ffffffffffffffffffffffffffffffffffffffff166370a08231306040518263ffffffff1660e01b815260040161073991906128b5565b60206040518083038186803b15801561075157600080fd5b505afa158015610765573d6000803e3d6000fd5b505050506040513d601f19601f820116820180604052508101906107899190612556565b10156107ca576040517f08c379a00000000000000000000000000000000000000000000000000000000081526004016107c190612af9565b60405180910390fd5b8473ffffffffffffffffffffffffffffffffffffffff1663a9059cbb33836040518363ffffffff1660e01b8152600401610805929190612907565b602060405180830381600087803b15801561081f57600080fd5b505af1158015610833573d6000803e3d6000fd5b505050506040513d601f19601f820116820180604052508101906108579190612446565b505050505050565b61086c6000801b33610fef565b6108ab576040517f08c379a00000000000000000000000000000000000000000000000000000000081526004016108a290612ad9565b60405180910390fd5b600360009054906101000a900473ffffffffffffffffffffffffffffffffffffffff1673ffffffffffffffffffffffffffffffffffffffff1663372500ab6040518163ffffffff1660e01b8152600401600060405180830381600087803b15801561091557600080fd5b505af1158015610929573d6000803e3d6000fd5b50505050600360009054906101000a900473ffffffffffffffffffffffffffffffffffffffff1673ffffffffffffffffffffffffffffffffffffffff1663b69f88c86040518163ffffffff1660e01b8152600401600060405180830381600087803b15801561099757600080fd5b505af11580156109ab573d6000803e3d6000fd5b505050506000600160009054906101000a900473ffffffffffffffffffffffffffffffffffffffff1673ffffffffffffffffffffffffffffffffffffffff166318160ddd6040518163ffffffff1660e01b815260040160206040518083038186803b158015610a1957600080fd5b505afa158015610a2d573d6000803e3d6000fd5b505050506040513d601f19601f82011682018060405250810190610a519190612556565b90506000600460009054906101000a900473ffffffffffffffffffffffffffffffffffffffff1673ffffffffffffffffffffffffffffffffffffffff166358a8316c6040518163ffffffff1660e01b8152600401600060405180830381600087803b158015610abf57600080fd5b505af1158015610ad3573d6000803e3d6000fd5b505050506040513d6000823e3d601f19601f82011682018060405250810190610afc919061250d565b905060008160200151905064e8d4a5100081610b189190612d3c565b9050828111610b62577fc9a5a6e7e78e6646dc3ae5bc0e1d80203bc1c34dccf547ee4af37f6d946c29e88382604051610b52929190612bb4565b60405180910390a1505050610ea4565b60008382610b709190612dc7565b90506000805b600160009054906101000a900473ffffffffffffffffffffffffffffffffffffffff1673ffffffffffffffffffffffffffffffffffffffff16623660886040518163ffffffff1660e01b815260040160206040518083038186803b158015610bdd57600080fd5b505afa158015610bf1573d6000803e3d6000fd5b505050506040513d601f19601f82011682018060405250810190610c159190612556565b8160ff161015610e55576000600160009054906101000a900473ffffffffffffffffffffffffffffffffffffffff1673ffffffffffffffffffffffffffffffffffffffff166324359879836040518263ffffffff1660e01b8152600401610c7c9190612c22565b60206040518083038186803b158015610c9457600080fd5b505afa158015610ca8573d6000803e3d6000fd5b505050506040513d601f19601f82011682018060405250810190610ccc9190612399565b90506000600160009054906101000a900473ffffffffffffffffffffffffffffffffffffffff1673ffffffffffffffffffffffffffffffffffffffff166370a08231836040518263ffffffff1660e01b8152600401610d2b91906128b5565b60206040518083038186803b158015610d4357600080fd5b505afa158015610d57573d6000803e3d6000fd5b505050506040513d601f19601f82011682018060405250810190610d7b9190612556565b90506000888683610d8c9190612d6d565b610d969190612d3c565b90506000811115610e3f57600160009054906101000a900473ffffffffffffffffffffffffffffffffffffffff1673ffffffffffffffffffffffffffffffffffffffff166340c10f1984836040518363ffffffff1660e01b8152600401610dfe929190612907565b600060405180830381600087803b158015610e1857600080fd5b505af1158015610e2c573d6000803e3d6000fd5b505050508085610e3c9190612ce6565b94505b5050508080610e4d90612fc3565b915050610b76565b507f6997cdab3aebbbb5a28dbdf7c61a3c7e9ee2c38784bbe66b9c4e58078e3b587f8584838486610e869190612dc7565b604051610e969493929190612bdd565b60405180910390a150505050505b565b6000806000838152602001908152602001600020600101549050919050565b610ece82610ea6565b610edf81610eda611b5d565b611b65565b610ee98383611c02565b505050565b610ef6611b5d565b73ffffffffffffffffffffffffffffffffffffffff168173ffffffffffffffffffffffffffffffffffffffff1614610f63576040517f08c379a0000000000000000000000000000000000000000000000000000000008152600401610f5a90612b79565b60405180910390fd5b610f6d8282611ce2565b5050565b600460009054906101000a900473ffffffffffffffffffffffffffffffffffffffff1681565b600260009054906101000a900473ffffffffffffffffffffffffffffffffffffffff1681565b60055481565b60065481565b600360009054906101000a900473ffffffffffffffffffffffffffffffffffffffff1681565b600080600084815260200190815260200160002060000160008373ffffffffffffffffffffffffffffffffffffffff1673ffffffffffffffffffffffffffffffffffffffff16815260200190815260200160002060009054906101000a900460ff16905092915050565b60075481565b6000801b81565b6000600160009054906101000a900473ffffffffffffffffffffffffffffffffffffffff1673ffffffffffffffffffffffffffffffffffffffff166370a08231336040518263ffffffff1660e01b81526004016110c391906128b5565b60206040518083038186803b1580156110db57600080fd5b505afa1580156110ef573d6000803e3d6000fd5b505050506040513d601f19601f820116820180604052508101906111139190612556565b905090565b6111256000801b33610fef565b611164576040517f08c379a000000000000000000000000000000000000000000000000000000000815260040161115b90612ad9565b60405180910390fd5b60008114156111a8576040517f08c379a000000000000000000000000000000000000000000000000000000000815260040161119f90612b59565b60405180910390fd5b81600781905550806008819055507f0851a60c5c9f333586efd6a17e635855c951deaa68c3dbb31b3263a26a98271e6007546008546040516111eb929190612bb4565b60405180910390a15050565b60085481565b61120a6000801b33610fef565b611249576040517f08c379a000000000000000000000000000000000000000000000000000000000815260040161124090612ad9565b60405180910390fd5b600073ffffffffffffffffffffffffffffffffffffffff168273ffffffffffffffffffffffffffffffffffffffff1614156112b9576040517f08c379a00000000000000000000000000000000000000000000000000000000081526004016112b090612b39565b60405180910390fd5b600073ffffffffffffffffffffffffffffffffffffffff168173ffffffffffffffffffffffffffffffffffffffff161415611329576040517f08c379a000000000000000000000000000000000000000000000000000000000815260040161132090612b39565b60405180910390fd5b81600160006101000a81548173ffffffffffffffffffffffffffffffffffffffff021916908373ffffffffffffffffffffffffffffffffffffffff16021790555080600260006101000a81548173ffffffffffffffffffffffffffffffffffffffff021916908373ffffffffffffffffffffffffffffffffffffffff1602179055505050565b600260009054906101000a900473ffffffffffffffffffffffffffffffffffffffff1673ffffffffffffffffffffffffffffffffffffffff168273ffffffffffffffffffffffffffffffffffffffff161461143f576040517f08c379a000000000000000000000000000000000000000000000000000000000815260040161143690612b19565b60405180910390fd5b7fe05220aa7f4f94eba183e0264ab8fc510924fb7b592d6a6d4a51dc3a34c79adf8160405161146e9190612a8b565b60405180910390a160008273ffffffffffffffffffffffffffffffffffffffff166370a08231336040518263ffffffff1660e01b81526004016114b191906128b5565b60206040518083038186803b1580156114c957600080fd5b505afa1580156114dd573d6000803e3d6000fd5b505050506040513d601f19601f820116820180604052508101906115019190612556565b905081811015611546576040517f08c379a000000000000000000000000000000000000000000000000000000000815260040161153d90612a3d565b60405180910390fd5b8273ffffffffffffffffffffffffffffffffffffffff166323b872dd3330856040518463ffffffff1660e01b8152600401611583939291906128d0565b602060405180830381600087803b15801561159d57600080fd5b505af11580156115b1573d6000803e3d6000fd5b505050506040513d601f19601f820116820180604052508101906115d59190612446565b506000600654600554846115e99190612d6d565b6115f39190612d3c565b9050600081846116039190612dc7565b90507fadcdce2403b31a56ae72c878c17b5cd8aaa8f5b92b7fe536355619df57a523878183604051611636929190612bb4565b60405180910390a1600160009054906101000a900473ffffffffffffffffffffffffffffffffffffffff1673ffffffffffffffffffffffffffffffffffffffff166340c10f1933836040518363ffffffff1660e01b815260040161169b929190612907565b600060405180830381600087803b1580156116b557600080fd5b505af11580156116c9573d6000803e3d6000fd5b505050508473ffffffffffffffffffffffffffffffffffffffff1663a9059cbb600360009054906101000a900473ffffffffffffffffffffffffffffffffffffffff16866040518363ffffffff1660e01b815260040161172a929190612907565b602060405180830381600087803b15801561174457600080fd5b505af1158015611758573d6000803e3d6000fd5b505050506040513d601f19601f8201168201806040525081019061177c9190612446565b50600360009054906101000a900473ffffffffffffffffffffffffffffffffffffffff1673ffffffffffffffffffffffffffffffffffffffff1663b9b8c24686866040518363ffffffff1660e01b81526004016117da929190612981565b600060405180830381600087803b1580156117f457600080fd5b505af1158015611808573d6000803e3d6000fd5b505050505050505050565b600160009054906101000a900473ffffffffffffffffffffffffffffffffffffffff1681565b61184282610ea6565b6118538161184e611b5d565b611b65565b61185d8383611ce2565b505050565b61186f6000801b33610fef565b6118ae576040517f08c379a00000000000000000000000000000000000000000000000000000000081526004016118a590612ad9565b60405180910390fd5b600073ffffffffffffffffffffffffffffffffffffffff168273ffffffffffffffffffffffffffffffffffffffff16141561191e576040517f08c379a000000000000000000000000000000000000000000000000000000000815260040161191590612b39565b60405180910390fd5b600073ffffffffffffffffffffffffffffffffffffffff168173ffffffffffffffffffffffffffffffffffffffff16141561198e576040517f08c379a000000000000000000000000000000000000000000000000000000000815260040161198590612b39565b60405180910390fd5b81600360006101000a81548173ffffffffffffffffffffffffffffffffffffffff021916908373ffffffffffffffffffffffffffffffffffffffff16021790555080600460006101000a81548173ffffffffffffffffffffffffffffffffffffffff021916908373ffffffffffffffffffffffffffffffffffffffff1602179055505050565b611a216000801b33610fef565b611a60576040517f08c379a0000000000000000000000000000000000000000000000000000000008152600401611a5790612ad9565b60405180910390fd5b6000811415611aa4576040517f08c379a0000000000000000000000000000000000000000000000000000000008152600401611a9b90612b59565b60405180910390fd5b81600581905550806006819055507f0851a60c5c9f333586efd6a17e635855c951deaa68c3dbb31b3263a26a98271e600554600654604051611ae7929190612bb4565b60405180910390a15050565b60007f01ffc9a7000000000000000000000000000000000000000000000000000000007bffffffffffffffffffffffffffffffffffffffffffffffffffffffff1916827bffffffffffffffffffffffffffffffffffffffffffffffffffffffff1916149050919050565b600033905090565b611b6f8282610fef565b611bfe57611b948173ffffffffffffffffffffffffffffffffffffffff166014611dc3565b611ba28360001c6020611dc3565b604051602001611bb392919061287b565b6040516020818303038152906040526040517f08c379a0000000000000000000000000000000000000000000000000000000008152600401611bf591906129fb565b60405180910390fd5b5050565b611c0c8282610fef565b611cde57600160008084815260200190815260200160002060000160008373ffffffffffffffffffffffffffffffffffffffff1673ffffffffffffffffffffffffffffffffffffffff16815260200190815260200160002060006101000a81548160ff021916908315150217905550611c83611b5d565b73ffffffffffffffffffffffffffffffffffffffff168173ffffffffffffffffffffffffffffffffffffffff16837f2f8788117e7eff1d82e926ec794901d17c78024a50270940304540a733656f0d60405160405180910390a45b5050565b611cec8282610fef565b15611dbf57600080600084815260200190815260200160002060000160008373ffffffffffffffffffffffffffffffffffffffff1673ffffffffffffffffffffffffffffffffffffffff16815260200190815260200160002060006101000a81548160ff021916908315150217905550611d64611b5d565b73ffffffffffffffffffffffffffffffffffffffff168173ffffffffffffffffffffffffffffffffffffffff16837ff6391f5c32d9c69d2a47ea670b442974b53935d1edc7fd64eb21e047a839171b60405160405180910390a45b5050565b606060006002836002611dd69190612d6d565b611de09190612ce6565b67ffffffffffffffff811115611df957611df861307a565b5b6040519080825280601f01601f191660200182016040528015611e2b5781602001600182028036833780820191505090505b5090507f300000000000000000000000000000000000000000000000000000000000000081600081518110611e6357611e6261304b565b5b60200101907effffffffffffffffffffffffffffffffffffffffffffffffffffffffffffff1916908160001a9053507f780000000000000000000000000000000000000000000000000000000000000081600181518110611ec757611ec661304b565b5b60200101907effffffffffffffffffffffffffffffffffffffffffffffffffffffffffffff1916908160001a90535060006001846002611f079190612d6d565b611f119190612ce6565b90505b6001811115611fb1577f3031323334353637383961626364656600000000000000000000000000000000600f861660108110611f5357611f5261304b565b5b1a60f81b828281518110611f6a57611f6961304b565b5b60200101907effffffffffffffffffffffffffffffffffffffffffffffffffffffffffffff1916908160001a905350600485901c945080611faa90612f68565b9050611f14565b5060008414611ff5576040517f08c379a0000000000000000000000000000000000000000000000000000000008152600401611fec90612a1d565b60405180910390fd5b8091505092915050565b600061201261200d84612c62565b612c3d565b90508083825260208201905082856020860282011115612035576120346130b8565b5b60005b8581101561208357815167ffffffffffffffff81111561205b5761205a6130a9565b5b80860161206889826121a9565b85526020850194506020840193505050600181019050612038565b5050509392505050565b60006120a061209b84612c8e565b612c3d565b9050828152602081018484840111156120bc576120bb6130bd565b5b6120c7848285612f35565b509392505050565b6000813590506120de8161338a565b92915050565b6000815190506120f38161338a565b92915050565b600082601f83011261210e5761210d6130a9565b5b815161211e848260208601611fff565b91505092915050565b600081519050612136816133a1565b92915050565b60008135905061214b816133b8565b92915050565b600081359050612160816133cf565b92915050565b600081519050612175816133e6565b92915050565b600082601f8301126121905761218f6130a9565b5b81516121a084826020860161208d565b91505092915050565b600061018082840312156121c0576121bf6130ae565b5b6121cb610180612c3d565b905060006121db848285016120e4565b60008301525060206121ef84828501612384565b602083015250604061220384828501612384565b604083015250606061221784828501612384565b606083015250608061222b84828501612166565b60808301525060a061223f84828501612127565b60a08301525060c061225384828501612384565b60c08301525060e061226784828501612384565b60e08301525061010061227c84828501612384565b6101008301525061012061229284828501612384565b6101208301525061014082015167ffffffffffffffff8111156122b8576122b76130b3565b5b6122c48482850161217b565b6101408301525061016082015167ffffffffffffffff8111156122ea576122e96130b3565b5b6122f68482850161217b565b6101608301525092915050565b600060408284031215612319576123186130ae565b5b6123236040612c3d565b9050600082015167ffffffffffffffff811115612343576123426130b3565b5b61234f848285016120f9565b600083015250602061236384828501612384565b60208301525092915050565b60008135905061237e816133fd565b92915050565b600081519050612393816133fd565b92915050565b6000602082840312156123af576123ae6130c7565b5b60006123bd848285016120e4565b91505092915050565b600080604083850312156123dd576123dc6130c7565b5b60006123eb858286016120cf565b92505060206123fc858286016120cf565b9150509250929050565b6000806040838503121561241d5761241c6130c7565b5b600061242b858286016120cf565b925050602061243c8582860161236f565b9150509250929050565b60006020828403121561245c5761245b6130c7565b5b600061246a84828501612127565b91505092915050565b600060208284031215612489576124886130c7565b5b60006124978482850161213c565b91505092915050565b600080604083850312156124b7576124b66130c7565b5b60006124c58582860161213c565b92505060206124d6858286016120cf565b9150509250929050565b6000602082840312156124f6576124f56130c7565b5b600061250484828501612151565b91505092915050565b600060208284031215612523576125226130c7565b5b600082015167ffffffffffffffff811115612541576125406130c2565b5b61254d84828501612303565b91505092915050565b60006020828403121561256c5761256b6130c7565b5b600061257a84828501612384565b91505092915050565b6000806040838503121561259a576125996130c7565b5b60006125a88582860161236f565b92505060206125b98582860161236f565b9150509250929050565b6125cc81612dfb565b82525050565b6125db81612e0d565b82525050565b6125ea81612e19565b82525050565b6125f981612e93565b82525050565b61260881612eb7565b82525050565b61261781612edb565b82525050565b61262681612eff565b82525050565b600061263782612cbf565b6126418185612cca565b9350612651818560208601612f35565b61265a816130cc565b840191505092915050565b600061267082612cbf565b61267a8185612cdb565b935061268a818560208601612f35565b80840191505092915050565b60006126a3602083612cca565b91506126ae826130dd565b602082019050919050565b60006126c6601883612cca565b91506126d182613106565b602082019050919050565b60006126e9600683612cca565b91506126f48261312f565b602082019050919050565b600061270c600383612cca565b915061271782613158565b602082019050919050565b600061272f602f83612cca565b915061273a82613181565b604082019050919050565b6000612752601483612cca565b915061275d826131d0565b602082019050919050565b6000612775602683612cca565b9150612780826131f9565b604082019050919050565b6000612798602c83612cca565b91506127a382613248565b604082019050919050565b60006127bb601883612cca565b91506127c682613297565b602082019050919050565b60006127de601783612cdb565b91506127e9826132c0565b601782019050919050565b6000612801601c83612cca565b915061280c826132e9565b602082019050919050565b6000612824601183612cdb565b915061282f82613312565b601182019050919050565b6000612847602f83612cca565b91506128528261333b565b604082019050919050565b61286681612e7c565b82525050565b61287581612f23565b82525050565b6000612886826127d1565b91506128928285612665565b915061289d82612817565b91506128a98284612665565b91508190509392505050565b60006020820190506128ca60008301846125c3565b92915050565b60006060820190506128e560008301866125c3565b6128f260208301856125c3565b6128ff604083018461285d565b949350505050565b600060408201905061291c60008301856125c3565b612929602083018461285d565b9392505050565b600060208201905061294560008301846125d2565b92915050565b600060208201905061296060008301846125e1565b92915050565b600060208201905061297b60008301846125f0565b92915050565b600060408201905061299660008301856125f0565b6129a3602083018461285d565b9392505050565b60006020820190506129bf60008301846125ff565b92915050565b60006020820190506129da600083018461260e565b92915050565b60006020820190506129f5600083018461261d565b92915050565b60006020820190508181036000830152612a15818461262c565b905092915050565b60006020820190508181036000830152612a3681612696565b9050919050565b60006020820190508181036000830152612a56816126b9565b9050919050565b60006040820190508181036000830152612a76816126dc565b9050612a85602083018461285d565b92915050565b60006040820190508181036000830152612aa4816126ff565b9050612ab3602083018461285d565b92915050565b60006020820190508181036000830152612ad281612722565b9050919050565b60006020820190508181036000830152612af281612745565b9050919050565b60006020820190508181036000830152612b1281612768565b9050919050565b60006020820190508181036000830152612b328161278b565b9050919050565b60006020820190508181036000830152612b52816127ae565b9050919050565b60006020820190508181036000830152612b72816127f4565b9050919050565b60006020820190508181036000830152612b928161283a565b9050919050565b6000602082019050612bae600083018461285d565b92915050565b6000604082019050612bc9600083018561285d565b612bd6602083018461285d565b9392505050565b6000608082019050612bf2600083018761285d565b612bff602083018661285d565b612c0c604083018561285d565b612c19606083018461285d565b95945050505050565b6000602082019050612c37600083018461286c565b92915050565b6000612c47612c58565b9050612c538282612f92565b919050565b6000604051905090565b600067ffffffffffffffff821115612c7d57612c7c61307a565b5b602082029050602081019050919050565b600067ffffffffffffffff821115612ca957612ca861307a565b5b612cb2826130cc565b9050602081019050919050565b600081519050919050565b600082825260208201905092915050565b600081905092915050565b6000612cf182612e7c565b9150612cfc83612e7c565b9250827fffffffffffffffffffffffffffffffffffffffffffffffffffffffffffffffff03821115612d3157612d30612fed565b5b828201905092915050565b6000612d4782612e7c565b9150612d5283612e7c565b925082612d6257612d6161301c565b5b828204905092915050565b6000612d7882612e7c565b9150612d8383612e7c565b9250817fffffffffffffffffffffffffffffffffffffffffffffffffffffffffffffffff0483118215151615612dbc57612dbb612fed565b5b828202905092915050565b6000612dd282612e7c565b9150612ddd83612e7c565b925082821015612df057612def612fed565b5b828203905092915050565b6000612e0682612e5c565b9050919050565b60008115159050919050565b6000819050919050565b60007fffffffff0000000000000000000000000000000000000000000000000000000082169050919050565b60008160000b9050919050565b600073ffffffffffffffffffffffffffffffffffffffff82169050919050565b6000819050919050565b600060ff82169050919050565b6000612e9e82612ea5565b9050919050565b6000612eb082612e5c565b9050919050565b6000612ec282612ec9565b9050919050565b6000612ed482612e5c565b9050919050565b6000612ee682612eed565b9050919050565b6000612ef882612e5c565b9050919050565b6000612f0a82612f11565b9050919050565b6000612f1c82612e5c565b9050919050565b6000612f2e82612e86565b9050919050565b60005b83811015612f53578082015181840152602081019050612f38565b83811115612f62576000848401525b50505050565b6000612f7382612e7c565b91506000821415612f8757612f86612fed565b5b600182039050919050565b612f9b826130cc565b810181811067ffffffffffffffff82111715612fba57612fb961307a565b5b80604052505050565b6000612fce82612e86565b915060ff821415612fe257612fe1612fed565b5b600182019050919050565b7f4e487b7100000000000000000000000000000000000000000000000000000000600052601160045260246000fd5b7f4e487b7100000000000000000000000000000000000000000000000000000000600052601260045260246000fd5b7f4e487b7100000000000000000000000000000000000000000000000000000000600052603260045260246000fd5b7f4e487b7100000000000000000000000000000000000000000000000000000000600052604160045260246000fd5b600080fd5b600080fd5b600080fd5b600080fd5b600080fd5b600080fd5b600080fd5b6000601f19601f8301169050919050565b7f537472696e67733a20686578206c656e67746820696e73756666696369656e74600082015250565b7f4e6f7420656e6f75676820746f6b656e7320746f206275790000000000000000600082015250565b7f72656465656d0000000000000000000000000000000000000000000000000000600082015250565b7f6275790000000000000000000000000000000000000000000000000000000000600082015250565b7f4f6e6c79205553444320746f6b656e732063757272656e746c7920617661696c60008201527f61626c6520666f722072656465656d0000000000000000000000000000000000602082015250565b7f5265737472696374656420746f2061646d696e73000000000000000000000000600082015250565b7f4e6f7420656e6f75676820666f72207472616e7366657220756e7374616b656460008201527f416d6f756e740000000000000000000000000000000000000000000000000000602082015250565b7f4f6e6c79205553444320746f6b656e732063757272656e746c7920617661696c60008201527f61626c6520666f72206275790000000000000000000000000000000000000000602082015250565b7f5a65726f2061646472657373206e6f7420616c6c6f7765640000000000000000600082015250565b7f416363657373436f6e74726f6c3a206163636f756e7420000000000000000000600082015250565b7f5a65726f2064656e6f6d696e61746f72206e6f7420616c6c6f77656400000000600082015250565b7f206973206d697373696e6720726f6c6520000000000000000000000000000000600082015250565b7f416363657373436f6e74726f6c3a2063616e206f6e6c792072656e6f756e636560008201527f20726f6c657320666f722073656c660000000000000000000000000000000000602082015250565b61339381612dfb565b811461339e57600080fd5b50565b6133aa81612e0d565b81146133b557600080fd5b50565b6133c181612e19565b81146133cc57600080fd5b50565b6133d881612e23565b81146133e357600080fd5b50565b6133ef81612e4f565b81146133fa57600080fd5b50565b61340681612e7c565b811461341157600080fd5b5056fea2646970667358221220ff480c2ce749dd9170c3b19c67fcac46c4f8875aae3c5463b8b952e559a3198b64736f6c63430008060033",
  "immutableReferences": {},
  "source": "// SPDX-License-Identifier: MIT\npragma solidity >=0.8.0 <0.9.0;\n\nimport \"@openzeppelin/contracts/token/ERC20/IERC20.sol\";\nimport \"@openzeppelin/contracts/access/AccessControl.sol\";\nimport \"./interfaces/IERC20MintableBurnable.sol\";\nimport \"./interfaces/IConnector.sol\";\nimport \"./OvernightToken.sol\";\nimport \"./interfaces/IPortfolioManager.sol\";\nimport \"./PortfolioManager.sol\";\nimport \"./interfaces/IMark2Market.sol\";\n\ncontract Exchange is AccessControl {\n    OvernightToken public ovn;\n    IERC20 public usdc;\n    PortfolioManager public pm; //portfolio manager contract\n    IMark2Market public m2m;\n\n    uint256 public buyFee = 40;\n    uint256 public buyFeeDenominator = 100000; // ~ 100 %\n\n    uint256 public redeemFee = 40;\n    uint256 public redeemFeeDenominator = 100000; // ~ 100 %\n\n    event EventExchange(string label, uint256 amount);\n    event RewardEvent(\n        uint256 totalOvn,\n        uint256 totalUsdc,\n        uint256 totallyAmountRewarded,\n        uint256 totallySaved\n    );\n    event NoEnoughForRewardEvent(uint256 totalOvn, uint256 totalUsdc);\n    event UpdatedBuyFee(uint256 fee, uint256 feeDenominator);\n    event UpdatedRedeemFee(uint256 fee, uint256 feeDenominator);\n    event PaidBuyFee(uint256 amount, uint256 feeAmount);\n    event PaidRedeemFee(uint256 amount, uint256 feeAmount);\n\n    modifier onlyAdmin() {\n        require(hasRole(DEFAULT_ADMIN_ROLE, msg.sender), \"Restricted to admins\");\n        _;\n    }\n\n    constructor() {\n        _setupRole(DEFAULT_ADMIN_ROLE, msg.sender);\n    }\n\n    function setTokens(address _ovn, address _usdc) external onlyAdmin {\n        require(_ovn != address(0), \"Zero address not allowed\");\n        require(_usdc != address(0), \"Zero address not allowed\");\n        ovn = OvernightToken(_ovn);\n        usdc = IERC20(_usdc);\n    }\n\n    function setAddr(address _addrPM, address _addrM2M) external onlyAdmin {\n        require(_addrPM != address(0), \"Zero address not allowed\");\n        require(_addrM2M != address(0), \"Zero address not allowed\");\n        pm = PortfolioManager(_addrPM);\n        m2m = IMark2Market(_addrM2M);\n    }\n\n    function setBuyFee(uint256 _fee, uint256 _feeDenominator) external onlyAdmin {\n        require(_feeDenominator != 0, \"Zero denominator not allowed\");\n        buyFee = _fee;\n        buyFeeDenominator = _feeDenominator;\n        emit UpdatedBuyFee(buyFee, buyFeeDenominator);\n    }\n\n    function setRedeemFee(uint256 _fee, uint256 _feeDenominator) external onlyAdmin {\n        require(_feeDenominator != 0, \"Zero denominator not allowed\");\n        redeemFee = _fee;\n        redeemFeeDenominator = _feeDenominator;\n        emit UpdatedBuyFee(redeemFee, redeemFeeDenominator);\n    }\n\n    function balance() public view returns (uint256) {\n        return ovn.balanceOf(msg.sender);\n    }\n\n    function buy(address _addrTok, uint256 _amount) external {\n        require(_addrTok == address(usdc), \"Only USDC tokens currently available for buy\");\n        emit EventExchange(\"buy\", _amount);\n\n        uint256 balance = IERC20(_addrTok).balanceOf(msg.sender);\n        require(balance >= _amount, \"Not enough tokens to buy\");\n\n        IERC20(_addrTok).transferFrom(msg.sender, address(this), _amount);\n\n        uint256 buyFeeAmount = (_amount * buyFee) / buyFeeDenominator;\n        uint256 buyAmount = _amount - buyFeeAmount;\n        emit PaidBuyFee(buyAmount, buyFeeAmount);\n\n        ovn.mint(msg.sender, buyAmount);\n\n        IERC20(_addrTok).transfer(address(pm), _amount);\n        pm.invest(IERC20(_addrTok), _amount);\n    }\n\n    event ErrorLogging(string reason);\n\n    function redeem(address _addrTok, uint256 _amount) external {\n        require(_addrTok == address(usdc), \"Only USDC tokens currently available for redeem\");\n        emit EventExchange(\"redeem\", _amount);\n\n        uint256 redeemFeeAmount = (_amount * redeemFee) / redeemFeeDenominator;\n        uint256 redeemAmount = _amount - redeemFeeAmount;\n        emit PaidRedeemFee(redeemAmount, redeemFeeAmount);\n\n        //TODO: Real unstacke amount may be different to _amount\n\n        // try PM.withdraw(IERC20(_addrTok), _amount) returns (uint256 unstakedAmount) {\n\n        //     // Or just burn from sender\n        //     ovn.burn(msg.sender, _amount);\n\n        //     // TODO: correct amount by rates or oracles\n        //     // TODO: check threshhold limits to withdraw deposite\n        //     IERC20(_addrTok).transfer(msg.sender, unstakedAmount);\n\n        // } catch Error(string memory reason) {\n        //     // This may occur if there is an overflow with the two numbers and the `AddNumbers` contract explicitly fails with a `revert()`\n        //     emit ErrorLogging(reason);\n        // } catch {\n        //     emit ErrorLogging(\"No reason\");\n        //     // revert (string(buf.buf));\n        // }\n\n        uint256 unstakedAmount = pm.withdraw(IERC20(_addrTok), redeemAmount);\n\n        // Or just burn from sender\n        ovn.burn(msg.sender, _amount);\n\n        // TODO: correct amount by rates or oracles\n        // TODO: check threshhold limits to withdraw deposite\n        require(\n            IERC20(_addrTok).balanceOf(address(this)) >= unstakedAmount,\n            \"Not enough for transfer unstakedAmount\"\n        );\n        IERC20(_addrTok).transfer(msg.sender, unstakedAmount);\n    }\n\n    function reward() external onlyAdmin {\n        // 0. call claiming reward and rebalancing on PM TODO: may be need move to another place\n        // 1. get current amount of OVN\n        // 2. get total sum of USDC we can get from any source\n        // 3. calc difference between total count of OVN and USDC\n        // 4. go through all OVN owners and mint to their addresses proportionally OVN\n\n        pm.claimRewards();\n        pm.balanceOnReward();\n\n        uint256 totalOvnSupply = ovn.totalSupply();\n        IMark2Market.TotalAssetPrices memory assetPrices = m2m.assetPricesForBalance();\n        uint256 totalUsdc = assetPrices.totalUsdcPrice;\n        // denormilize from 10**18 to 10**6 as OVN decimals\n        totalUsdc = totalUsdc / 10**12;\n        if (totalUsdc <= totalOvnSupply) {\n            emit NoEnoughForRewardEvent(totalOvnSupply, totalUsdc);\n            return;\n        }\n        uint difference = totalUsdc - totalOvnSupply;\n\n        uint totallyAmountRewarded = 0;\n        for (uint8 i = 0; i < ovn.ownerLength(); i++) {\n            address ovnOwnerAddress = ovn.ownerAt(i);\n            uint ovnBalance = ovn.balanceOf(ovnOwnerAddress);\n            uint additionalMintAmount = (ovnBalance * difference) / totalOvnSupply;\n            if (additionalMintAmount > 0) {\n                ovn.mint(ovnOwnerAddress, additionalMintAmount);\n                totallyAmountRewarded += additionalMintAmount;\n            }\n        }\n        //TODO: what to do with saved usdc? Do we need to mint it to PM\n\n        emit RewardEvent(\n            totalOvnSupply,\n            totalUsdc,\n            totallyAmountRewarded,\n            difference - totallyAmountRewarded\n        );\n    }\n\n    function uint2str(uint _i) internal pure returns (string memory _uintAsString) {\n        if (_i == 0) {\n            return \"0\";\n        }\n        uint j = _i;\n        uint len;\n        while (j != 0) {\n            len++;\n            j /= 10;\n        }\n        bytes memory bstr = new bytes(len);\n        uint k = len;\n        while (_i != 0) {\n            k = k - 1;\n            bstr[k] = bytes1(uint8(48 + (_i % 10)));\n            _i /= 10;\n        }\n        return string(bstr);\n    }\n}\n",
  "sourcePath": "/home/vorh/IdeaProjects/Projects-Work/overnight/ovngt-mvp/contracts/Exchange.sol",
  "compiler": {
    "name": "solc",
    "version": "0.8.6+commit.11564f7e.Emscripten.clang"
  },
  "schemaVersion": "3.4.1",
  "updatedAt": "2021-10-27T16:34:52.500Z",
  "networkType": "ethereum",
  "devdoc": {
    "kind": "dev",
    "methods": {
      "getRoleAdmin(bytes32)": {
        "details": "Returns the admin role that controls `role`. See {grantRole} and {revokeRole}. To change a role's admin, use {_setRoleAdmin}."
      },
      "grantRole(bytes32,address)": {
        "details": "Grants `role` to `account`. If `account` had not been already granted `role`, emits a {RoleGranted} event. Requirements: - the caller must have ``role``'s admin role."
      },
      "hasRole(bytes32,address)": {
        "details": "Returns `true` if `account` has been granted `role`."
      },
      "renounceRole(bytes32,address)": {
        "details": "Revokes `role` from the calling account. Roles are often managed via {grantRole} and {revokeRole}: this function's purpose is to provide a mechanism for accounts to lose their privileges if they are compromised (such as when a trusted device is misplaced). If the calling account had been granted `role`, emits a {RoleRevoked} event. Requirements: - the caller must be `account`."
      },
      "revokeRole(bytes32,address)": {
        "details": "Revokes `role` from `account`. If `account` had been granted `role`, emits a {RoleRevoked} event. Requirements: - the caller must have ``role``'s admin role."
      },
      "supportsInterface(bytes4)": {
        "details": "See {IERC165-supportsInterface}."
      }
    },
    "version": 1
  },
  "userdoc": {
    "kind": "user",
    "methods": {},
    "version": 1
  }
}