{
  "contractName": "Mark2Market",
  "abi": [
    {
      "anonymous": false,
      "inputs": [
        {
          "indexed": false,
          "internalType": "string",
          "name": "str",
          "type": "string"
        }
      ],
      "name": "ConsoleLog",
      "type": "event"
    },
    {
      "anonymous": false,
      "inputs": [
        {
          "indexed": true,
          "internalType": "address",
          "name": "previousOwner",
          "type": "address"
        },
        {
          "indexed": true,
          "internalType": "address",
          "name": "newOwner",
          "type": "address"
        }
      ],
      "name": "OwnershipTransferred",
      "type": "event"
    },
    {
      "inputs": [],
      "name": "investmentPortfolio",
      "outputs": [
        {
          "internalType": "contract InvestmentPortfolio",
          "name": "",
          "type": "address"
        }
      ],
      "stateMutability": "view",
      "type": "function",
      "constant": true
    },
    {
      "inputs": [],
      "name": "owner",
      "outputs": [
        {
          "internalType": "address",
          "name": "",
          "type": "address"
        }
      ],
      "stateMutability": "view",
      "type": "function",
      "constant": true
    },
    {
      "inputs": [],
      "name": "renounceOwnership",
      "outputs": [],
      "stateMutability": "nonpayable",
      "type": "function"
    },
    {
      "inputs": [
        {
          "internalType": "bytes32",
          "name": "",
          "type": "bytes32"
        }
      ],
      "name": "rolemap",
      "outputs": [
        {
          "internalType": "address",
          "name": "",
          "type": "address"
        }
      ],
      "stateMutability": "view",
      "type": "function",
      "constant": true
    },
    {
      "inputs": [
        {
          "internalType": "bytes32",
          "name": "_role",
          "type": "bytes32"
        },
        {
          "internalType": "address",
          "name": "_actor",
          "type": "address"
        }
      ],
      "name": "setRole",
      "outputs": [],
      "stateMutability": "nonpayable",
      "type": "function"
    },
    {
      "inputs": [
        {
          "internalType": "address",
          "name": "newOwner",
          "type": "address"
        }
      ],
      "name": "transferOwnership",
      "outputs": [],
      "stateMutability": "nonpayable",
      "type": "function"
    },
    {
      "inputs": [],
      "name": "vault",
      "outputs": [
        {
          "internalType": "contract Vault",
          "name": "",
          "type": "address"
        }
      ],
      "stateMutability": "view",
      "type": "function",
      "constant": true
    },
    {
      "inputs": [
        {
          "internalType": "address",
          "name": "_vault",
          "type": "address"
        },
        {
          "internalType": "address",
          "name": "_investmentPortfolio",
          "type": "address"
        }
      ],
      "name": "init",
      "outputs": [],
      "stateMutability": "nonpayable",
      "type": "function"
    },
    {
      "inputs": [],
      "name": "assetPrices",
      "outputs": [
        {
          "components": [
            {
              "components": [
                {
                  "internalType": "address",
                  "name": "asset",
                  "type": "address"
                },
                {
                  "internalType": "uint256",
                  "name": "amountInVault",
                  "type": "uint256"
                },
                {
                  "internalType": "uint256",
                  "name": "usdcPriceInVault",
                  "type": "uint256"
                },
                {
                  "internalType": "uint256",
                  "name": "diffToTarget",
                  "type": "uint256"
                },
                {
                  "internalType": "int8",
                  "name": "diffToTargetSign",
                  "type": "int8"
                },
                {
                  "internalType": "bool",
                  "name": "targetIsZero",
                  "type": "bool"
                },
                {
                  "internalType": "uint256",
                  "name": "usdcPriceDenominator",
                  "type": "uint256"
                },
                {
                  "internalType": "uint256",
                  "name": "usdcSellPrice",
                  "type": "uint256"
                },
                {
                  "internalType": "uint256",
                  "name": "usdcBuyPrice",
                  "type": "uint256"
                },
                {
                  "internalType": "uint256",
                  "name": "decimals",
                  "type": "uint256"
                },
                {
                  "internalType": "string",
                  "name": "name",
                  "type": "string"
                },
                {
                  "internalType": "string",
                  "name": "symbol",
                  "type": "string"
                }
              ],
              "internalType": "struct IMark2Market.AssetPrices[]",
              "name": "assetPrices",
              "type": "tuple[]"
            },
            {
              "internalType": "uint256",
              "name": "totalUsdcPrice",
              "type": "uint256"
            }
          ],
          "internalType": "struct IMark2Market.TotalAssetPrices",
          "name": "",
          "type": "tuple"
        }
      ],
      "stateMutability": "view",
      "type": "function",
      "constant": true
    },
    {
      "inputs": [],
      "name": "assetPricesForBalance",
      "outputs": [
        {
          "components": [
            {
              "components": [
                {
                  "internalType": "address",
                  "name": "asset",
                  "type": "address"
                },
                {
                  "internalType": "uint256",
                  "name": "amountInVault",
                  "type": "uint256"
                },
                {
                  "internalType": "uint256",
                  "name": "usdcPriceInVault",
                  "type": "uint256"
                },
                {
                  "internalType": "uint256",
                  "name": "diffToTarget",
                  "type": "uint256"
                },
                {
                  "internalType": "int8",
                  "name": "diffToTargetSign",
                  "type": "int8"
                },
                {
                  "internalType": "bool",
                  "name": "targetIsZero",
                  "type": "bool"
                },
                {
                  "internalType": "uint256",
                  "name": "usdcPriceDenominator",
                  "type": "uint256"
                },
                {
                  "internalType": "uint256",
                  "name": "usdcSellPrice",
                  "type": "uint256"
                },
                {
                  "internalType": "uint256",
                  "name": "usdcBuyPrice",
                  "type": "uint256"
                },
                {
                  "internalType": "uint256",
                  "name": "decimals",
                  "type": "uint256"
                },
                {
                  "internalType": "string",
                  "name": "name",
                  "type": "string"
                },
                {
                  "internalType": "string",
                  "name": "symbol",
                  "type": "string"
                }
              ],
              "internalType": "struct IMark2Market.AssetPrices[]",
              "name": "assetPrices",
              "type": "tuple[]"
            },
            {
              "internalType": "uint256",
              "name": "totalUsdcPrice",
              "type": "uint256"
            }
          ],
          "internalType": "struct IMark2Market.TotalAssetPrices",
          "name": "",
          "type": "tuple"
        }
      ],
      "stateMutability": "nonpayable",
      "type": "function"
    },
    {
      "inputs": [
        {
          "internalType": "address",
          "name": "withdrawToken",
          "type": "address"
        },
        {
          "internalType": "uint256",
          "name": "withdrawAmount",
          "type": "uint256"
        }
      ],
      "name": "assetPricesForBalance",
      "outputs": [
        {
          "components": [
            {
              "components": [
                {
                  "internalType": "address",
                  "name": "asset",
                  "type": "address"
                },
                {
                  "internalType": "uint256",
                  "name": "amountInVault",
                  "type": "uint256"
                },
                {
                  "internalType": "uint256",
                  "name": "usdcPriceInVault",
                  "type": "uint256"
                },
                {
                  "internalType": "uint256",
                  "name": "diffToTarget",
                  "type": "uint256"
                },
                {
                  "internalType": "int8",
                  "name": "diffToTargetSign",
                  "type": "int8"
                },
                {
                  "internalType": "bool",
                  "name": "targetIsZero",
                  "type": "bool"
                },
                {
                  "internalType": "uint256",
                  "name": "usdcPriceDenominator",
                  "type": "uint256"
                },
                {
                  "internalType": "uint256",
                  "name": "usdcSellPrice",
                  "type": "uint256"
                },
                {
                  "internalType": "uint256",
                  "name": "usdcBuyPrice",
                  "type": "uint256"
                },
                {
                  "internalType": "uint256",
                  "name": "decimals",
                  "type": "uint256"
                },
                {
                  "internalType": "string",
                  "name": "name",
                  "type": "string"
                },
                {
                  "internalType": "string",
                  "name": "symbol",
                  "type": "string"
                }
              ],
              "internalType": "struct IMark2Market.AssetPrices[]",
              "name": "assetPrices",
              "type": "tuple[]"
            },
            {
              "internalType": "uint256",
              "name": "totalUsdcPrice",
              "type": "uint256"
            }
          ],
          "internalType": "struct IMark2Market.TotalAssetPrices",
          "name": "",
          "type": "tuple"
        }
      ],
      "stateMutability": "nonpayable",
      "type": "function"
    }
  ],
  "bytecode": "0x60806040523480156200001157600080fd5b5062000032620000266200003860201b60201c565b6200004060201b60201c565b620001fa565b600033905090565b600073ffffffffffffffffffffffffffffffffffffffff168173ffffffffffffffffffffffffffffffffffffffff161415620000b3576040517f08c379a0000000000000000000000000000000000000000000000000000000008152600401620000aa906200019e565b60405180910390fd5b60008060009054906101000a900473ffffffffffffffffffffffffffffffffffffffff169050816000806101000a81548173ffffffffffffffffffffffffffffffffffffffff021916908373ffffffffffffffffffffffffffffffffffffffff1602179055508173ffffffffffffffffffffffffffffffffffffffff168173ffffffffffffffffffffffffffffffffffffffff167f8be0079c531659141344cd1fd0a4f28419497f9722a3daafe3b4186f6b6457e060405160405180910390a35050565b600062000186601883620001c0565b91506200019382620001d1565b602082019050919050565b60006020820190508181036000830152620001b98162000177565b9050919050565b600082825260208201905092915050565b7f5a65726f2061646472657373206e6f7420616c6c6f7765640000000000000000600082015250565b6132ef806200020a6000396000f3fe608060405234801561001057600080fd5b50600436106100a95760003560e01c80638da5cb5b116100715780638da5cb5b146101545780639a707d8714610172578063dff8720314610190578063f09a4016146101ac578063f2fde38b146101c8578063fbfa77cf146101e4576100a9565b80630f1d897d146100ae5780632dc10a54146100cc57806358a8316c146100fc578063715018a61461011a578063734bd75d14610124575b600080fd5b6100b6610202565b6040516100c39190612a2b565b60405180910390f35b6100e660048036038101906100e191906124df565b610228565b6040516100f39190612a10565b60405180910390f35b61010461025b565b6040516101119190612ac3565b60405180910390f35b610122610273565b005b61013e6004803603810190610139919061240d565b6102fb565b60405161014b9190612ac3565b60405180910390f35b61015c610d35565b6040516101699190612a10565b60405180910390f35b61017a610d5e565b6040516101879190612ac3565b60405180910390f35b6101aa60048036038101906101a5919061250c565b611419565b005b6101c660048036038101906101c191906123cd565b61155b565b005b6101e260048036038101906101dd91906123a0565b61173d565b005b6101ec6117c5565b6040516101f99190612a46565b60405180910390f35b600360009054906101000a900473ffffffffffffffffffffffffffffffffffffffff1681565b60016020528060005260406000206000915054906101000a900473ffffffffffffffffffffffffffffffffffffffff1681565b610263612019565b61026e6000806102fb565b905090565b61027b6117eb565b73ffffffffffffffffffffffffffffffffffffffff16610299610d35565b73ffffffffffffffffffffffffffffffffffffffff16146102ef576040517f08c379a00000000000000000000000000000000000000000000000000000000081526004016102e690612a83565b60405180910390fd5b6102f960006117f3565b565b610303612019565b600073ffffffffffffffffffffffffffffffffffffffff168373ffffffffffffffffffffffffffffffffffffffff16146103e15760008373ffffffffffffffffffffffffffffffffffffffff1663313ce5676040518163ffffffff1660e01b815260040160206040518083038186803b15801561037f57600080fd5b505afa158015610393573d6000803e3d6000fd5b505050506040513d601f19601f820116820180604052508101906103b7919061261c565b60126103c39190612e8a565b600a6103cf9190612cde565b905080836103dd9190612dfc565b9250505b6000600360009054906101000a900473ffffffffffffffffffffffffffffffffffffffff1673ffffffffffffffffffffffffffffffffffffffff16633ff94f046040518163ffffffff1660e01b815260040160006040518083038186803b15801561044b57600080fd5b505afa15801561045f573d6000803e3d6000fd5b505050506040513d6000823e3d601f19601f820116820180604052508101906104889190612496565b90506000808251905060008167ffffffffffffffff8111156104ad576104ac613107565b5b6040519080825280602002602001820160405280156104e657816020015b6104d3612033565b8152602001906001900390816104cb5790505b50905060005b828160ff161015610b22576000858260ff168151811061050f5761050e6130d8565b5b602002602001015190506000816000015173ffffffffffffffffffffffffffffffffffffffff166370a08231600260009054906101000a900473ffffffffffffffffffffffffffffffffffffffff166040518263ffffffff1660e01b815260040161057a9190612a10565b60206040518083038186803b15801561059257600080fd5b505afa1580156105a6573d6000803e3d6000fd5b505050506040513d601f19601f820116820180604052508101906105ca91906125ef565b90506000826000015173ffffffffffffffffffffffffffffffffffffffff1663313ce5676040518163ffffffff1660e01b815260040160206040518083038186803b15801561061857600080fd5b505afa15801561062c573d6000803e3d6000fd5b505050506040513d601f19601f82011682018060405250810190610650919061261c565b601261065c9190612e8a565b600a6106689190612cde565b905080826106769190612dfc565b91506000600360009054906101000a900473ffffffffffffffffffffffffffffffffffffffff1673ffffffffffffffffffffffffffffffffffffffff1663afad2e1685600001516040518263ffffffff1660e01b81526004016106d99190612a10565b604080518083038186803b1580156106f057600080fd5b505afa158015610704573d6000803e3d6000fd5b505050506040513d601f19601f820116820180604052508101906107289190612595565b905060008160200151905060008173ffffffffffffffffffffffffffffffffffffffff166396ce07956040518163ffffffff1660e01b815260040160206040518083038186803b15801561077b57600080fd5b505afa15801561078f573d6000803e3d6000fd5b505050506040513d601f19601f820116820180604052508101906107b391906125ef565b905060008273ffffffffffffffffffffffffffffffffffffffff16632b8455f16040518163ffffffff1660e01b815260040160206040518083038186803b1580156107fd57600080fd5b505afa158015610811573d6000803e3d6000fd5b505050506040513d601f19601f8201168201806040525081019061083591906125ef565b905060008373ffffffffffffffffffffffffffffffffffffffff1663ea2497846040518163ffffffff1660e01b815260040160206040518083038186803b15801561087f57600080fd5b505afa158015610893573d6000803e3d6000fd5b505050506040513d601f19601f820116820180604052508101906108b791906125ef565b905060008383896108c89190612dfc565b6108d29190612c5a565b9050808d6108e09190612c04565b9c506040518061018001604052808a6000015173ffffffffffffffffffffffffffffffffffffffff168152602001898152602001828152602001600081526020016000800b81526020016000151581526020018581526020018481526020018381526020018a6000015173ffffffffffffffffffffffffffffffffffffffff1663313ce5676040518163ffffffff1660e01b815260040160206040518083038186803b15801561098f57600080fd5b505afa1580156109a3573d6000803e3d6000fd5b505050506040513d601f19601f820116820180604052508101906109c7919061261c565b60ff1681526020018a6000015173ffffffffffffffffffffffffffffffffffffffff166306fdde036040518163ffffffff1660e01b815260040160006040518083038186803b158015610a1957600080fd5b505afa158015610a2d573d6000803e3d6000fd5b505050506040513d6000823e3d601f19601f82011682018060405250810190610a56919061254c565b81526020018a6000015173ffffffffffffffffffffffffffffffffffffffff166395d89b416040518163ffffffff1660e01b815260040160006040518083038186803b158015610aa557600080fd5b505afa158015610ab9573d6000803e3d6000fd5b505050506040513d6000823e3d601f19601f82011682018060405250810190610ae2919061254c565b8152508b8b60ff1681518110610afb57610afa6130d8565b5b60200260200101819052505050505050505050508080610b1a9061301f565b9150506104ec565b5085831015610b3087611927565b610b3985611927565b604051602001610b4a9291906129d6565b60405160208183030381529060405290610b9a576040517f08c379a0000000000000000000000000000000000000000000000000000000008152600401610b919190612a61565b60405180910390fd5b508583610ba79190612e56565b9250610bcb6040518060600160405280602181526020016132996021913984611a8e565b60005b828160ff161015610d0d576000828260ff1681518110610bf157610bf06130d8565b5b60200260200101519050610c09858260000151611af2565b83606001846080018560a00183151515158152508360000b60000b81525083815250505050600088118015610c6d57508873ffffffffffffffffffffffffffffffffffffffff16816000015173ffffffffffffffffffffffffffffffffffffffff16145b15610cf9576000816080015160000b1215610cde578781606001511115610cac57878160600151610c9e9190612e56565b816060018181525050610cd9565b806060015188610cbc9190612e56565b8160600181815250506001816080019060000b908160000b815250505b610cf8565b878160600151610cee9190612c04565b8160600181815250505b5b508080610d059061301f565b915050610bce565b5060006040518060400160405280838152602001858152509050809550505050505092915050565b60008060009054906101000a900473ffffffffffffffffffffffffffffffffffffffff16905090565b610d66612019565b6000600360009054906101000a900473ffffffffffffffffffffffffffffffffffffffff1673ffffffffffffffffffffffffffffffffffffffff16631aeb0df86040518163ffffffff1660e01b815260040160006040518083038186803b158015610dd057600080fd5b505afa158015610de4573d6000803e3d6000fd5b505050506040513d6000823e3d601f19601f82011682018060405250810190610e0d919061244d565b90506000808251905060008167ffffffffffffffff811115610e3257610e31613107565b5b604051908082528060200260200182016040528015610e6b57816020015b610e58612033565b815260200190600190039081610e505790505b50905060005b828160ff1610156113f4576000858260ff1681518110610e9457610e936130d8565b5b602002602001015190506000816000015173ffffffffffffffffffffffffffffffffffffffff166370a08231600260009054906101000a900473ffffffffffffffffffffffffffffffffffffffff166040518263ffffffff1660e01b8152600401610eff9190612a10565b60206040518083038186803b158015610f1757600080fd5b505afa158015610f2b573d6000803e3d6000fd5b505050506040513d601f19601f82011682018060405250810190610f4f91906125ef565b90506000826000015173ffffffffffffffffffffffffffffffffffffffff1663313ce5676040518163ffffffff1660e01b815260040160206040518083038186803b158015610f9d57600080fd5b505afa158015610fb1573d6000803e3d6000fd5b505050506040513d601f19601f82011682018060405250810190610fd5919061261c565b6012610fe19190612e8a565b600a610fed9190612cde565b90508082610ffb9190612dfc565b915060008360200151905060008173ffffffffffffffffffffffffffffffffffffffff166396ce07956040518163ffffffff1660e01b815260040160206040518083038186803b15801561104e57600080fd5b505afa158015611062573d6000803e3d6000fd5b505050506040513d601f19601f8201168201806040525081019061108691906125ef565b905060008273ffffffffffffffffffffffffffffffffffffffff16632b8455f16040518163ffffffff1660e01b815260040160206040518083038186803b1580156110d057600080fd5b505afa1580156110e4573d6000803e3d6000fd5b505050506040513d601f19601f8201168201806040525081019061110891906125ef565b905060008373ffffffffffffffffffffffffffffffffffffffff1663ea2497846040518163ffffffff1660e01b815260040160206040518083038186803b15801561115257600080fd5b505afa158015611166573d6000803e3d6000fd5b505050506040513d601f19601f8201168201806040525081019061118a91906125ef565b9050600083838861119b9190612dfc565b6111a59190612c5a565b9050808c6111b39190612c04565b9b50604051806101800160405280896000015173ffffffffffffffffffffffffffffffffffffffff168152602001888152602001828152602001600081526020016000800b8152602001600015158152602001858152602001848152602001838152602001896000015173ffffffffffffffffffffffffffffffffffffffff1663313ce5676040518163ffffffff1660e01b815260040160206040518083038186803b15801561126257600080fd5b505afa158015611276573d6000803e3d6000fd5b505050506040513d601f19601f8201168201806040525081019061129a919061261c565b60ff168152602001896000015173ffffffffffffffffffffffffffffffffffffffff166306fdde036040518163ffffffff1660e01b815260040160006040518083038186803b1580156112ec57600080fd5b505afa158015611300573d6000803e3d6000fd5b505050506040513d6000823e3d601f19601f82011682018060405250810190611329919061254c565b8152602001896000015173ffffffffffffffffffffffffffffffffffffffff166395d89b416040518163ffffffff1660e01b815260040160006040518083038186803b15801561137857600080fd5b505afa15801561138c573d6000803e3d6000fd5b505050506040513d6000823e3d601f19601f820116820180604052508101906113b5919061254c565b8152508a8a60ff16815181106113ce576113cd6130d8565b5b6020026020010181905250505050505050505080806113ec9061301f565b915050610e71565b5060006040518060400160405280838152602001858152509050809550505050505090565b6114216117eb565b73ffffffffffffffffffffffffffffffffffffffff1661143f610d35565b73ffffffffffffffffffffffffffffffffffffffff1614611495576040517f08c379a000000000000000000000000000000000000000000000000000000000815260040161148c90612a83565b60405180910390fd5b600073ffffffffffffffffffffffffffffffffffffffff168173ffffffffffffffffffffffffffffffffffffffff161415611505576040517f08c379a00000000000000000000000000000000000000000000000000000000081526004016114fc90612aa3565b60405180910390fd5b806001600084815260200190815260200160002060006101000a81548173ffffffffffffffffffffffffffffffffffffffff021916908373ffffffffffffffffffffffffffffffffffffffff1602179055505050565b6115636117eb565b73ffffffffffffffffffffffffffffffffffffffff16611581610d35565b73ffffffffffffffffffffffffffffffffffffffff16146115d7576040517f08c379a00000000000000000000000000000000000000000000000000000000081526004016115ce90612a83565b60405180910390fd5b600073ffffffffffffffffffffffffffffffffffffffff168273ffffffffffffffffffffffffffffffffffffffff161415611647576040517f08c379a000000000000000000000000000000000000000000000000000000000815260040161163e90612aa3565b60405180910390fd5b600073ffffffffffffffffffffffffffffffffffffffff168173ffffffffffffffffffffffffffffffffffffffff1614156116b7576040517f08c379a00000000000000000000000000000000000000000000000000000000081526004016116ae90612aa3565b60405180910390fd5b81600260006101000a81548173ffffffffffffffffffffffffffffffffffffffff021916908373ffffffffffffffffffffffffffffffffffffffff16021790555080600360006101000a81548173ffffffffffffffffffffffffffffffffffffffff021916908373ffffffffffffffffffffffffffffffffffffffff1602179055505050565b6117456117eb565b73ffffffffffffffffffffffffffffffffffffffff16611763610d35565b73ffffffffffffffffffffffffffffffffffffffff16146117b9576040517f08c379a00000000000000000000000000000000000000000000000000000000081526004016117b090612a83565b60405180910390fd5b6117c2816117f3565b50565b600260009054906101000a900473ffffffffffffffffffffffffffffffffffffffff1681565b600033905090565b600073ffffffffffffffffffffffffffffffffffffffff168173ffffffffffffffffffffffffffffffffffffffff161415611863576040517f08c379a000000000000000000000000000000000000000000000000000000000815260040161185a90612aa3565b60405180910390fd5b60008060009054906101000a900473ffffffffffffffffffffffffffffffffffffffff169050816000806101000a81548173ffffffffffffffffffffffffffffffffffffffff021916908373ffffffffffffffffffffffffffffffffffffffff1602179055508173ffffffffffffffffffffffffffffffffffffffff168173ffffffffffffffffffffffffffffffffffffffff167f8be0079c531659141344cd1fd0a4f28419497f9722a3daafe3b4186f6b6457e060405160405180910390a35050565b6060600082141561196f576040518060400160405280600181526020017f30000000000000000000000000000000000000000000000000000000000000008152509050611a89565b600082905060005b600082146119a157808061198a90612fd6565b915050600a8261199a9190612c5a565b9150611977565b60008167ffffffffffffffff8111156119bd576119bc613107565b5b6040519080825280601f01601f1916602001820160405280156119ef5781602001600182028036833780820191505090505b50905060008290505b60008614611a8157600181611a0d9190612e56565b9050600a86611a1c9190613049565b6030611a289190612c04565b60f81b828281518110611a3e57611a3d6130d8565b5b60200101907effffffffffffffffffffffffffffffffffffffffffffffffffffffffffffff1916908160001a905350600a86611a7a9190612c5a565b95506119f8565b819450505050505b919050565b7f0f8db0708c4e6b233e2c285fe1ed66015dee71bd374ac8e835534be5f592d6a282611ab983611927565b604051602001611aca9291906129b2565b604051602081830303815290604052604051611ae69190612a61565b60405180910390a15050565b600080600080600360009054906101000a900473ffffffffffffffffffffffffffffffffffffffff1673ffffffffffffffffffffffffffffffffffffffff16633a7e9db0866040518263ffffffff1660e01b8152600401611b539190612a10565b60806040518083038186803b158015611b6b57600080fd5b505afa158015611b7f573d6000803e3d6000fd5b505050506040513d601f19601f82011682018060405250810190611ba391906125c2565b90506000600360009054906101000a900473ffffffffffffffffffffffffffffffffffffffff1673ffffffffffffffffffffffffffffffffffffffff1663ed2a2f9d6040518163ffffffff1660e01b815260040160206040518083038186803b158015611c0f57600080fd5b505afa158015611c23573d6000803e3d6000fd5b505050506040513d601f19601f82011682018060405250810190611c4791906125ef565b826040015188611c579190612dfc565b611c619190612c5a565b90506000600360009054906101000a900473ffffffffffffffffffffffffffffffffffffffff1673ffffffffffffffffffffffffffffffffffffffff1663afad2e16886040518263ffffffff1660e01b8152600401611cc09190612a10565b604080518083038186803b158015611cd757600080fd5b505afa158015611ceb573d6000803e3d6000fd5b505050506040513d601f19601f82011682018060405250810190611d0f9190612595565b905060008160200151905060008173ffffffffffffffffffffffffffffffffffffffff166396ce07956040518163ffffffff1660e01b815260040160206040518083038186803b158015611d6257600080fd5b505afa158015611d76573d6000803e3d6000fd5b505050506040513d601f19601f82011682018060405250810190611d9a91906125ef565b905060008273ffffffffffffffffffffffffffffffffffffffff1663ea2497846040518163ffffffff1660e01b815260040160206040518083038186803b158015611de457600080fd5b505afa158015611df8573d6000803e3d6000fd5b505050506040513d601f19601f82011682018060405250810190611e1c91906125ef565b90506000818387611e2d9190612dfc565b611e379190612c5a565b905060008b73ffffffffffffffffffffffffffffffffffffffff166370a08231600260009054906101000a900473ffffffffffffffffffffffffffffffffffffffff166040518263ffffffff1660e01b8152600401611e969190612a10565b60206040518083038186803b158015611eae57600080fd5b505afa158015611ec2573d6000803e3d6000fd5b505050506040513d601f19601f82011682018060405250810190611ee691906125ef565b905060008c73ffffffffffffffffffffffffffffffffffffffff1663313ce5676040518163ffffffff1660e01b815260040160206040518083038186803b158015611f3057600080fd5b505afa158015611f44573d6000803e3d6000fd5b505050506040513d601f19601f82011682018060405250810190611f68919061261c565b6012611f749190612e8a565b600a611f809190612cde565b90508082611f8e9190612dfc565b9150600080841415611fa35760019050611fa8565b600090505b828410611fd3578284611fbb9190612e56565b6001829c509c509c5050505050505050505050612012565b8383611fdf9190612e56565b7fffffffffffffffffffffffffffffffffffffffffffffffffffffffffffffffff829c509c509c50505050505050505050505b9250925092565b604051806040016040528060608152602001600081525090565b604051806101800160405280600073ffffffffffffffffffffffffffffffffffffffff1681526020016000815260200160008152602001600081526020016000800b81526020016000151581526020016000815260200160008152602001600081526020016000815260200160608152602001606081525090565b60006120c16120bc84612b0a565b612ae5565b905080838252602082019050828560408602820111156120e4576120e3613140565b5b60005b8581101561211457816120fa8882612299565b8452602084019350604083019250506001810190506120e7565b5050509392505050565b600061213161212c84612b36565b612ae5565b9050808382526020820190508285608086028201111561215457612153613140565b5b60005b85811015612184578161216a88826122e9565b845260208401935060808301925050600181019050612157565b5050509392505050565b60006121a161219c84612b62565b612ae5565b9050828152602081018484840111156121bd576121bc613145565b5b6121c8848285612f72565b509392505050565b6000813590506121df8161323c565b92915050565b6000815190506121f48161323c565b92915050565b600082601f83011261220f5761220e613136565b5b815161221f8482602086016120ae565b91505092915050565b600082601f83011261223d5761223c613136565b5b815161224d84826020860161211e565b91505092915050565b60008135905061226581613253565b92915050565b600082601f8301126122805761227f613136565b5b815161229084826020860161218e565b91505092915050565b6000604082840312156122af576122ae61313b565b5b6122b96040612ae5565b905060006122c9848285016121e5565b60008301525060206122dd848285016121e5565b60208301525092915050565b6000608082840312156122ff576122fe61313b565b5b6123096080612ae5565b90506000612319848285016121e5565b600083015250602061232d84828501612376565b602083015250604061234184828501612376565b604083015250606061235584828501612376565b60608301525092915050565b6000813590506123708161326a565b92915050565b6000815190506123858161326a565b92915050565b60008151905061239a81613281565b92915050565b6000602082840312156123b6576123b561314f565b5b60006123c4848285016121d0565b91505092915050565b600080604083850312156123e4576123e361314f565b5b60006123f2858286016121d0565b9250506020612403858286016121d0565b9150509250929050565b600080604083850312156124245761242361314f565b5b6000612432858286016121d0565b925050602061244385828601612361565b9150509250929050565b6000602082840312156124635761246261314f565b5b600082015167ffffffffffffffff8111156124815761248061314a565b5b61248d848285016121fa565b91505092915050565b6000602082840312156124ac576124ab61314f565b5b600082015167ffffffffffffffff8111156124ca576124c961314a565b5b6124d684828501612228565b91505092915050565b6000602082840312156124f5576124f461314f565b5b600061250384828501612256565b91505092915050565b600080604083850312156125235761252261314f565b5b600061253185828601612256565b9250506020612542858286016121d0565b9150509250929050565b6000602082840312156125625761256161314f565b5b600082015167ffffffffffffffff8111156125805761257f61314a565b5b61258c8482850161226b565b91505092915050565b6000604082840312156125ab576125aa61314f565b5b60006125b984828501612299565b91505092915050565b6000608082840312156125d8576125d761314f565b5b60006125e6848285016122e9565b91505092915050565b6000602082840312156126055761260461314f565b5b600061261384828501612376565b91505092915050565b6000602082840312156126325761263161314f565b5b60006126408482850161238b565b91505092915050565b6000612655838361285b565b905092915050565b61266681612ebe565b82525050565b61267581612ebe565b82525050565b600061268682612ba3565b6126908185612bc6565b9350836020820285016126a285612b93565b8060005b858110156126de57848403895281516126bf8582612649565b94506126ca83612bb9565b925060208a019950506001810190506126a6565b50829750879550505050505092915050565b6126f981612ed0565b82525050565b61270881612f2a565b82525050565b61271781612f4e565b82525050565b61272681612ee6565b82525050565b600061273782612bae565b6127418185612bd7565b9350612751818560208601612f72565b61275a81613154565b840191505092915050565b600061277082612bae565b61277a8185612be8565b935061278a818560208601612f72565b61279381613154565b840191505092915050565b60006127a982612bae565b6127b38185612bf9565b93506127c3818560208601612f72565b80840191505092915050565b60006127dc600383612bf9565b91506127e782613172565b600382019050919050565b60006127ff602383612be8565b915061280a8261319b565b604082019050919050565b6000612822601a83612bf9565b915061282d826131ea565b601a82019050919050565b6000612845601883612be8565b915061285082613213565b602082019050919050565b600061018083016000830151612874600086018261265d565b50602083015161288760208601826129a3565b50604083015161289a60408601826129a3565b5060608301516128ad60608601826129a3565b5060808301516128c0608086018261271d565b5060a08301516128d360a08601826126f0565b5060c08301516128e660c08601826129a3565b5060e08301516128f960e08601826129a3565b5061010083015161290e6101008601826129a3565b506101208301516129236101208601826129a3565b5061014083015184820361014086015261293d828261272c565b915050610160830151848203610160860152612959828261272c565b9150508091505092915050565b60006040830160008301518482036000860152612983828261267b565b915050602083015161299860208601826129a3565b508091505092915050565b6129ac81612f13565b82525050565b60006129be828561279e565b91506129ca828461279e565b91508190509392505050565b60006129e182612815565b91506129ed828561279e565b91506129f8826127cf565b9150612a04828461279e565b91508190509392505050565b6000602082019050612a25600083018461266c565b92915050565b6000602082019050612a4060008301846126ff565b92915050565b6000602082019050612a5b600083018461270e565b92915050565b60006020820190508181036000830152612a7b8184612765565b905092915050565b60006020820190508181036000830152612a9c816127f2565b9050919050565b60006020820190508181036000830152612abc81612838565b9050919050565b60006020820190508181036000830152612add8184612966565b905092915050565b6000612aef612b00565b9050612afb8282612fa5565b919050565b6000604051905090565b600067ffffffffffffffff821115612b2557612b24613107565b5b602082029050602081019050919050565b600067ffffffffffffffff821115612b5157612b50613107565b5b602082029050602081019050919050565b600067ffffffffffffffff821115612b7d57612b7c613107565b5b612b8682613154565b9050602081019050919050565b6000819050602082019050919050565b600081519050919050565b600081519050919050565b6000602082019050919050565b600082825260208201905092915050565b600082825260208201905092915050565b600082825260208201905092915050565b600081905092915050565b6000612c0f82612f13565b9150612c1a83612f13565b9250827fffffffffffffffffffffffffffffffffffffffffffffffffffffffffffffffff03821115612c4f57612c4e61307a565b5b828201905092915050565b6000612c6582612f13565b9150612c7083612f13565b925082612c8057612c7f6130a9565b5b828204905092915050565b6000808291508390505b6001851115612cd557808604811115612cb157612cb061307a565b5b6001851615612cc05780820291505b8081029050612cce85613165565b9450612c95565b94509492505050565b6000612ce982612f13565b9150612cf483612f1d565b9250612d217fffffffffffffffffffffffffffffffffffffffffffffffffffffffffffffffff8484612d29565b905092915050565b600082612d395760019050612df5565b81612d475760009050612df5565b8160018114612d5d5760028114612d6757612d96565b6001915050612df5565b60ff841115612d7957612d7861307a565b5b8360020a915084821115612d9057612d8f61307a565b5b50612df5565b5060208310610133831016604e8410600b8410161715612dcb5782820a905083811115612dc657612dc561307a565b5b612df5565b612dd88484846001612c8b565b92509050818404811115612def57612dee61307a565b5b81810290505b9392505050565b6000612e0782612f13565b9150612e1283612f13565b9250817fffffffffffffffffffffffffffffffffffffffffffffffffffffffffffffffff0483118215151615612e4b57612e4a61307a565b5b828202905092915050565b6000612e6182612f13565b9150612e6c83612f13565b925082821015612e7f57612e7e61307a565b5b828203905092915050565b6000612e9582612f1d565b9150612ea083612f1d565b925082821015612eb357612eb261307a565b5b828203905092915050565b6000612ec982612ef3565b9050919050565b60008115159050919050565b6000819050919050565b60008160000b9050919050565b600073ffffffffffffffffffffffffffffffffffffffff82169050919050565b6000819050919050565b600060ff82169050919050565b6000612f3582612f3c565b9050919050565b6000612f4782612ef3565b9050919050565b6000612f5982612f60565b9050919050565b6000612f6b82612ef3565b9050919050565b60005b83811015612f90578082015181840152602081019050612f75565b83811115612f9f576000848401525b50505050565b612fae82613154565b810181811067ffffffffffffffff82111715612fcd57612fcc613107565b5b80604052505050565b6000612fe182612f13565b91507fffffffffffffffffffffffffffffffffffffffffffffffffffffffffffffffff8214156130145761301361307a565b5b600182019050919050565b600061302a82612f1d565b915060ff82141561303e5761303d61307a565b5b600182019050919050565b600061305482612f13565b915061305f83612f13565b92508261306f5761306e6130a9565b5b828206905092915050565b7f4e487b7100000000000000000000000000000000000000000000000000000000600052601160045260246000fd5b7f4e487b7100000000000000000000000000000000000000000000000000000000600052601260045260246000fd5b7f4e487b7100000000000000000000000000000000000000000000000000000000600052603260045260246000fd5b7f4e487b7100000000000000000000000000000000000000000000000000000000600052604160045260246000fd5b600080fd5b600080fd5b600080fd5b600080fd5b600080fd5b600080fd5b6000601f19601f8301169050919050565b60008160011c9050919050565b7f203e200000000000000000000000000000000000000000000000000000000000600082015250565b7f4f776e61626c654578743a2063616c6c6572206973206e6f7420746865206f7760008201527f6e65720000000000000000000000000000000000000000000000000000000000602082015250565b7f5769746864726177206d6f7265207468616e20746f74616c3a20000000000000600082015250565b7f5a65726f2061646472657373206e6f7420616c6c6f7765640000000000000000600082015250565b61324581612ebe565b811461325057600080fd5b50565b61325c81612edc565b811461326757600080fd5b50565b61327381612f13565b811461327e57600080fd5b50565b61328a81612f1d565b811461329557600080fd5b5056fe746f74616c55736463507269636520616674657220636f7272656374696f6e3a20a264697066735822122094de2f84b2cdcd600fc02295744aa21c494346729c6cebc61d2c0a7c6512d88064736f6c63430008060033",
  "immutableReferences": {},
  "source": "// SPDX-License-Identifier: GPL-3.0\n\npragma solidity >=0.8.0 <0.9.0;\nimport \"@openzeppelin/contracts/token/ERC20/extensions/IERC20Metadata.sol\";\nimport \"./interfaces/IMark2Market.sol\";\nimport \"./interfaces/IPriceGetter.sol\";\nimport \"./OwnableExt.sol\";\nimport \"./registries/InvestmentPortfolio.sol\";\nimport \"./Vault.sol\";\n\n//TODO: use AccessControl or Ownable from zeppelin\ncontract Mark2Market is IMark2Market, OwnableExt {\n    Vault public vault;\n    InvestmentPortfolio public investmentPortfolio;\n\n    //TODO: remove\n    event ConsoleLog(string str);\n\n    function init(address _vault, address _investmentPortfolio) public onlyOwner {\n        require(_vault != address(0), \"Zero address not allowed\");\n        require(_investmentPortfolio != address(0), \"Zero address not allowed\");\n        vault = Vault(_vault);\n        investmentPortfolio = InvestmentPortfolio(_investmentPortfolio);\n    }\n\n    function assetPrices() public view override returns (TotalAssetPrices memory) {\n        InvestmentPortfolio.AssetInfo[] memory assetInfos = investmentPortfolio.getAllAssetInfos();\n\n        uint256 totalUsdcPrice = 0;\n        uint256 count = assetInfos.length;\n        AssetPrices[] memory assetPrices = new AssetPrices[](count);\n        for (uint8 i = 0; i < count; i++) {\n            InvestmentPortfolio.AssetInfo memory assetInfo = assetInfos[i];\n            uint256 amountInVault = IERC20(assetInfo.asset).balanceOf(address(vault));\n            // normilize amountInVault to 18 decimals\n            //TODO: denominator usage\n            uint256 amountDenominator = 10**(18 - IERC20Metadata(assetInfo.asset).decimals());\n            amountInVault = amountInVault * amountDenominator;\n\n            IPriceGetter priceGetter = IPriceGetter(assetInfo.priceGetter);\n\n            uint256 usdcPriceDenominator = priceGetter.denominator();\n            uint256 usdcSellPrice = priceGetter.getUsdcSellPrice();\n            uint256 usdcBuyPrice = priceGetter.getUsdcBuyPrice();\n\n            // in decimals: 18 + 18 - 18 => 18\n            uint256 usdcPriceInVault = (amountInVault * usdcSellPrice) / usdcPriceDenominator;\n\n            totalUsdcPrice += usdcPriceInVault;\n\n            assetPrices[i] = AssetPrices(\n                assetInfo.asset,\n                amountInVault,\n                usdcPriceInVault,\n                0,\n                int8(0),\n                false,\n                usdcPriceDenominator,\n                usdcSellPrice,\n                usdcBuyPrice,\n                IERC20Metadata(assetInfo.asset).decimals(),\n                IERC20Metadata(assetInfo.asset).name(),\n                IERC20Metadata(assetInfo.asset).symbol()\n            );\n        }\n\n        TotalAssetPrices memory totalPrices = TotalAssetPrices(assetPrices, totalUsdcPrice);\n\n        return totalPrices;\n    }\n\n    function assetPricesForBalance() external override returns (TotalAssetPrices memory) {\n        return assetPricesForBalance(address(0), 0);\n    }\n\n    /**\n     * @param withdrawToken Token to withdraw\n     * @param withdrawAmount Not normilized amount to withdraw\n     */\n    function assetPricesForBalance(address withdrawToken, uint256 withdrawAmount)\n        public\n        override\n        returns (TotalAssetPrices memory)\n    {\n        if (withdrawToken != address(0)) {\n            // normilize withdrawAmount to 18 decimals\n            //TODO: denominator usage\n            uint256 withdrawAmountDenominator = 10**(18 - IERC20Metadata(withdrawToken).decimals());\n            withdrawAmount = withdrawAmount * withdrawAmountDenominator;\n        }\n        // //TODO: remove\n        // log(\"withdrawAmount: \", withdrawAmount);\n\n        InvestmentPortfolio.AssetWeight[] memory assetWeights = investmentPortfolio\n            .getAllAssetWeights();\n\n        // //TODO: remove\n        // log(\"assetWeights.length: \", assetWeights.length);\n\n        uint256 totalUsdcPrice = 0;\n        uint256 count = assetWeights.length;\n        AssetPrices[] memory assetPrices = new AssetPrices[](count);\n        for (uint8 i = 0; i < count; i++) {\n            InvestmentPortfolio.AssetWeight memory assetWeight = assetWeights[i];\n\n            uint256 amountInVault = IERC20(assetWeight.asset).balanceOf(address(vault));\n            // normilize amountInVault to 18 decimals\n            //TODO: denominator usage\n            uint256 amountDenominator = 10**(18 - IERC20Metadata(assetWeight.asset).decimals());\n            amountInVault = amountInVault * amountDenominator;\n            // //TODO: remove\n            // log(\"amountInVault: \", amountInVault);\n\n            InvestmentPortfolio.AssetInfo memory assetInfo = investmentPortfolio.getAssetInfo(\n                assetWeight.asset\n            );\n            IPriceGetter priceGetter = IPriceGetter(assetInfo.priceGetter);\n\n            uint256 usdcPriceDenominator = priceGetter.denominator();\n            uint256 usdcSellPrice = priceGetter.getUsdcSellPrice();\n            uint256 usdcBuyPrice = priceGetter.getUsdcBuyPrice();\n\n            // in decimals: 18 + 18 - 18 => 18\n            uint256 usdcPriceInVault = (amountInVault * usdcSellPrice) / usdcPriceDenominator;\n\n            totalUsdcPrice += usdcPriceInVault;\n\n            assetPrices[i] = AssetPrices(\n                assetWeight.asset,\n                amountInVault,\n                usdcPriceInVault,\n                0,\n                int8(0),\n                false,\n                usdcPriceDenominator,\n                usdcSellPrice,\n                usdcBuyPrice,\n                IERC20Metadata(assetWeight.asset).decimals(),\n                IERC20Metadata(assetWeight.asset).name(),\n                IERC20Metadata(assetWeight.asset).symbol()\n            );\n        }\n\n        // 3. validate withdrawAmount\n        require(\n            totalUsdcPrice >= withdrawAmount,\n            string(\n                abi.encodePacked(\n                    \"Withdraw more than total: \",\n                    uint2str(withdrawAmount),\n                    \" > \",\n                    uint2str(totalUsdcPrice)\n                )\n            )\n        );\n\n        // 4. correct total with withdrawAmount\n        // //TODO: remove\n        // log(\"totalUsdcPrice before correction: \", totalUsdcPrice);\n\n        totalUsdcPrice = totalUsdcPrice - withdrawAmount;\n        log(\"totalUsdcPrice after correction: \", totalUsdcPrice);\n\n        for (uint8 i = 0; i < count; i++) {\n            AssetPrices memory assetPrice = assetPrices[i];\n            (\n                assetPrice.diffToTarget,\n                assetPrice.diffToTargetSign,\n                assetPrice.targetIsZero\n            ) = diffToTarget(totalUsdcPrice, assetPrice.asset);\n\n            // emit ConsoleLog(\n            //     string(\n            //         abi.encodePacked(\n            //             uint2str(i),\n            //             \" | \",\n            //             IERC20Metadata(assetPrice.asset).symbol(),\n            //             \" | \",\n            //             uint2str(assetPrice.amountInVault),\n            //             \" | \",\n            //             uint2str(assetPrice.usdcPriceInVault),\n            //             \" | \",\n            //             uint2str(assetPrice.diffToTarget),\n            //             \" | \",\n            //             uint2str(assetPrice.usdcSellPrice),\n            //             \" | \",\n            //             uint2str(assetPrice.usdcBuyPrice)\n            //         )\n            //     )\n            // );\n\n            // update diff for withdrawn token\n            if (withdrawAmount > 0 && assetPrice.asset == withdrawToken) {\n                if (assetPrice.diffToTargetSign < 0) {\n                    if (assetPrice.diffToTarget > withdrawAmount) {\n                        assetPrice.diffToTarget = assetPrice.diffToTarget - withdrawAmount;\n                    } else {\n                        assetPrice.diffToTarget = withdrawAmount - assetPrice.diffToTarget;\n                        assetPrice.diffToTargetSign = int8(1);\n                    }\n                } else {\n                    assetPrice.diffToTarget = assetPrice.diffToTarget + withdrawAmount;\n                }\n            }\n\n            // emit ConsoleLog(\n            //     string(\n            //         abi.encodePacked(\n            //             // uint2str(i),\n            //             // \" | \",\n            //             IERC20Metadata(assetPrice.asset).symbol(),\n            //             \" | \",\n            //             uint2str(assetPrice.amountInVault),\n            //             // \" | \",\n            //             // uint2str(assetPrice.usdcPriceInVault),\n            //             \" | \",\n            //             uint2str(assetPrice.diffToTarget),\n            //             \" | \",\n            //             uint2str(assetPrice.usdcSellPrice),\n            //             \" | \",\n            //             uint2str(assetPrice.usdcBuyPrice)\n            //         )\n            //     )\n            // );\n        }\n\n        TotalAssetPrices memory totalPrices = TotalAssetPrices(assetPrices, totalUsdcPrice);\n\n        return totalPrices;\n    }\n\n    /**\n     * @param totalUsdcPrice - Total normilized to 10**18\n     * @param asset - Token address to calc\n     * @return normilized to 10**18 diff amount, sign and mark that mean that need sell all\n     */\n    function diffToTarget(uint256 totalUsdcPrice, address asset)\n        internal\n        view\n        returns (\n            uint256,\n            int8,\n            bool\n        )\n    {\n        InvestmentPortfolio.AssetWeight memory assetWeight = investmentPortfolio.getAssetWeight(\n            asset\n        );\n\n        uint256 targetUsdcAmount = (totalUsdcPrice * assetWeight.targetWeight) /\n            investmentPortfolio.TOTAL_WEIGHT();\n\n        InvestmentPortfolio.AssetInfo memory assetInfo = investmentPortfolio.getAssetInfo(asset);\n        IPriceGetter priceGetter = IPriceGetter(assetInfo.priceGetter);\n\n        uint256 usdcPriceDenominator = priceGetter.denominator();\n        uint256 usdcBuyPrice = priceGetter.getUsdcBuyPrice();\n\n        // in decimals: 18 * 18 / 18 => 18\n        uint256 targetTokenAmount = (targetUsdcAmount * usdcPriceDenominator) / usdcBuyPrice;\n\n        // normilize currentAmount to 18 decimals\n        uint256 currentAmount = IERC20(asset).balanceOf(address(vault));\n        //TODO: denominator usage\n        uint256 denominator = 10**(18 - IERC20Metadata(asset).decimals());\n        currentAmount = currentAmount * denominator;\n\n        bool targetIsZero;\n        if (targetTokenAmount == 0) {\n            targetIsZero = true;\n        } else {\n            targetIsZero = false;\n        }\n\n        if (targetTokenAmount >= currentAmount) {\n            return (targetTokenAmount - currentAmount, int8(1), targetIsZero);\n        } else {\n            return (currentAmount - targetTokenAmount, int8(-1), targetIsZero);\n        }\n    }\n\n    //TODO: remove\n    function uint2str(uint _i) internal pure returns (string memory _uintAsString) {\n        if (_i == 0) {\n            return \"0\";\n        }\n        uint j = _i;\n        uint len;\n        while (j != 0) {\n            len++;\n            j /= 10;\n        }\n        bytes memory bstr = new bytes(len);\n        uint k = len;\n        while (_i != 0) {\n            k = k - 1;\n            bstr[k] = bytes1(uint8(48 + (_i % 10)));\n            _i /= 10;\n        }\n        return string(bstr);\n    }\n\n    //TODO: remove\n    function log(string memory message, uint value) internal {\n        emit ConsoleLog(string(abi.encodePacked(message, uint2str(value))));\n    }\n}\n\n/* // function m2m () {\n\n    // calculate proportions and changes value\n        for (uint8 a = 0; a<actives.length; a++) {\n                totalSum +=  (uint128 (actives[a].balance)) * priceAct;\n\n\n        }\n\n    }\n */\n",
  "sourcePath": "/home/vorh/IdeaProjects/Projects-Work/overnight/ovngt-mvp/contracts/Mark2Market.sol",
  "compiler": {
    "name": "solc",
    "version": "0.8.6+commit.11564f7e.Emscripten.clang"
  },
  "schemaVersion": "3.4.1",
  "updatedAt": "2021-10-27T16:34:54.108Z",
  "networkType": "ethereum",
  "devdoc": {
    "kind": "dev",
    "methods": {
      "assetPricesForBalance(address,uint256)": {
        "params": {
          "withdrawAmount": "Not normilized amount to withdraw",
          "withdrawToken": "Token to withdraw"
        }
      },
      "owner()": {
        "details": "Returns the address of the current owner."
      },
      "renounceOwnership()": {
        "details": "Leaves the contract without owner. It will not be possible to call `onlyOwner` functions anymore. Can only be called by the current owner. NOTE: Renouncing ownership will leave the contract without an owner, thereby removing any functionality that is only available to the owner."
      },
      "transferOwnership(address)": {
        "details": "Transfers ownership of the contract to a new account (`newOwner`). Can only be called by the current owner."
      }
    },
    "version": 1
  },
  "userdoc": {
    "kind": "user",
    "methods": {},
    "version": 1
  }
}